:020000040800F2
:10000000C807002041020008CF220008392100085B
:10001000CD220008ED0F00085B260008000000005C
:10002000000000000000000000000000D3220008D3
:10003000EF0F000800000000D1220008D5220008C0
:100040005B0200085B0200085B0200085B0200081C
:100050005B0200085B0200085B0200085B0200080C
:100060005B0200085B0200085B0200085B020008FC
:100070005B0200085B0200085B0200085B020008EC
:100080005B0200085B0200085B0200085B020008DC
:100090005B0200085B0200085B0200085B020008CC
:1000A0005B0200085B0200085B0200087D23000879
:1000B0005B0200085B0200085B0200085B020008AC
:1000C0005B0200085B0200085B0200085B0200089C
:1000D0005B0200085B0200085B0200085B0200088C
:1000E0005B0200085B0200085B0200085B0200087C
:1000F0005B0200085B0200085B0200085B0200086C
:100100005B0200085B0200085B0200085B0200085B
:100110005B0200085B0200085B0200085B0200084B
:100120005B0200085B0200085B0200085B0200083B
:100130005B0200085B0200085B0200085B0200082B
:100140005B0200085B0200085B0200085B0200081B
:100150005B0200085B0200085B0200085B0200080B
:100160005B0200085B0200085B0200085B020008FB
:100170005B0200085B0200085B0200080000000050
:100180005B0200085B02000800F002F800F049F88A
:100190000AA090E8000C82448344AAF10107DA45E2
:1001A00001D100F03EF8AFF2090EBAE80F0013F0EB
:1001B000010F18BFFB1A43F0010318477026000017
:1001C00090260000103A24BF78C878C1FAD85207A8
:1001D00024BF30C830C144BF04680C6070470000C1
:1001E0000023002400250026103A28BF78C1FBD840
:1001F000520728BF30C148BF0B607047642900F028
:10020000F780002070471FB502F0F6FA9DE8030062
:1002100000F0DEFC00F01AFA1FBD10B500F07FFA06
:1002200010BD00F0AFFA1146FFF7EDFF02F0A0FAA3
:1002300000F09EFC03B4FFF7F0FF03BC00F03AFEB1
:100240000948804709480047FEE7FEE7FEE7FEE76A
:10025000FEE7FEE7FEE7FEE7FEE7FEE704480549A6
:10026000054A064B704700006D230008890100080D
:10027000C8010020C8070020C8030020C8030020D0
:1002800053EA020C00F069802DE9F04B4FF00006B4
:10029000002B1FBFB3FA83F503FA05F424FA05F621
:1002A0005E4012BF1643B2FA82F502FA05F4C5F1B8
:1002B00020051EBF22FA05FC44EA0C04203556EA4C
:1002C000044C4FEA144418BF641C4FF000084FF070
:1002D0000009904271EB030C39D3002919BFB1FA20
:1002E00081F701FA07F6B0FA80F700FA07F6C7F1CE
:1002F00020071EBF20FA07FC46EA0C062037B6FB93
:10030000F4FCA7EB0507103F07F01F0BCBF120060D
:100310000CFA0BFB2CFA06F644BFB3460026202F3E
:10032000A4BF5E464FF0000B5BEA060C08BF4FF01F
:10033000010B19EB0B09ABFB027C48EB0608C01B59
:1003400006FB02CC0BFB03CC71EB0C01C1E70B46A7
:10035000024641464846BDE8F08B13B54FF0000019
:100360004FF00001AFF30080BDE81C407047000073
:100370000FB4044910B503AA029800F039F910BC73
:100380005DF814FBBC0000202DE9F0410E46044648
:10039000002020622046E168884730B3252805D038
:1003A000D4E901219047206A401CF2E7E168204629
:1003B00000278847050018D0A5F14100192802D868
:1003C00020354FF400673246294620462760FFF764
:1003D00015FF40B1012804D0F61D26F007060836A7
:1003E000D8E7361DD6E72846DAE7206ABDE8F0816F
:1003F0002DE9F0410646002410687529314616A5FE
:1004000010D0AFF30080002802DA404213A507E0C5
:1004100031688A0701D512A502E0490704D511A564
:10042000012401E0AFF3008000210A2206F1240735
:1004300009E0B0FBF2FCB0FBF2F302FB1C00303031
:1004400078541846491C0028F3D123462A463046E2
:10045000BDE8F04100F073B8000000002D0000007E
:100460002B000000200000004FF0000200B51346F2
:1004700094469646203922BFA0E80C50A0E80C50C4
:10048000B1F12001BFF4F7AF090728BFA0E80C5075
:1004900048BF0CC05DF804EB890028BF40F8042B6E
:1004A00008BF704748BF20F8022B11F0804F18BFDB
:1004B00000F8012B704700004FF0013C50F8042B6E
:1004C00051F8043B9A4221D1A2EB0C03934313EA67
:1004D000CC1317D150F8042B51F8043B9A4215D194
:1004E000A2EB0C03934313EACC130BD150F8042B6B
:1004F00051F8043B9A4209D1A2EB0C03934313EA4F
:10050000CC13DBD04FF00000704700BFD01A01BA07
:10051000B1FA81F101F0180122FA01F0CB40C1F1EA
:100520002001DBB2C0B2C01A2CFA01F3D11A9143F8
:1005300011EAC311E6D170477047704770472DE943
:10054000F0470D4699469246044600F1240801689A
:10055000880604D5E06921F01001216000E0012047
:10056000A84201DD471B00E00027A1697A1902EBD0
:100570000900081AA0612078C00602D42046AFF313
:100580000080002608E0D4E901211AF8060090470F
:10059000206A401C761C20624E45F4DB2078C006A1
:1005A0000AD52046AFF3008006E0D4E901213020CF
:1005B0009047206A401C2062381EA7F10107F4DC36
:1005C00007E0D4E9012118F805009047206A401C93
:1005D0002062281EA5F10105F3DC2046AFF3008060
:1005E0002078000602D50220BDE8F0870120FBE755
:1005F000074B70B50D467B4400F011F804462846C1
:1006000000F020F810B14FF0FF3070BD204670BDF3
:100610005D21000001694A1C02610878704700B53D
:100620008FB0CDE901310021059105497944CDE92B
:10063000031011466846FFF7A7FE0FB000BD00008B
:10064000E5FFFFFF007B00F08000704710B54248D7
:100650005421FFF709FF41485421FFF705FF4048A7
:100660005421FFF701FF3F493B483C4A3F4B08609C
:100670003D490A603A491960531C0365481C1065DE
:10068000012008653B48344A39A1784400F0D4F988
:1006900020B9384878440A3800F073FA37482F4AAE
:1006A00035A1784400F0C8F920B9344878440A38B4
:1006B00000F067FA32482A4A2FA1784400F0BCF9CA
:1006C00020B92F4878440A3800F05BFA40232248CA
:1006D000DC000021224600F08CF920B12548784446
:1006E000543800F04EFA1D4822464023002100F005
:1006F00080F920B121487844543800F042FA184873
:1007000022461023002100F074F9002806D01C486E
:100710007844BDE81040563800F033BA10BD104898
:1007200070B5006D20F001040B4800F0FBF90B4898
:1007300000F0F8F90A4800F0F5F909E0206D20F022
:100740000105204600F0EEF9204600F040F82C4666
:10075000002CF3D170BD000068000020BC00002018
:100760001001002014000020180000201C000020B0
:100770007200000084210000770000007321000057
:1007800063210000754600F003FAAE460500694695
:10079000534620F00700854618B020B5FFF75EFDF0
:1007A000BDE820404FF000064FF000074FF0000872
:1007B0004FF0000B21F00701AC46ACE8C009ACE8F3
:1007C000C009ACE8C009ACE8C0098D46704770B5F7
:1007D0000446051F00F0E0F90068002C14BF4468CF
:1007E00070BD002C18BFAC423CBF20466468F8D3F3
:1007F00001680A18AA4218BF456003D12A68054655
:100800001144016028684119A1421CBF6C6070BD91
:100810006168696021680844286070BD2DE9F0476F
:1008200005460C46C86820F4201040F48000C860DB
:10083000800602D5084600F0FCFAE06841F2820129
:100840004FF0FF390140022903D0204600F09AFA08
:10085000B5E000F42041B1F5004F0FD1C00306D53B
:100860006168E06A884200D80846606006E0206956
:10087000E0626060606901F00DFFA061A068002285
:10088000EEB200280DDAE1688B050AD4C043A060FF
:1008900041F490302260E0606068411C6160067045
:1008A000A5E0E0689046226040F40050E0602069D6
:1008B00068BB606901F0F4FE012704F12405A0B1D2
:1008C000A08910F4407F08D0E06900F0B0F9206101
:1008D00018B1E06840F4006016E0E7612561E06867
:1008E00020F4407040F480600EE0E06900F09FF971
:1008F00000282061F1D0E06840F4006010F4407FEF
:10090000E06002D140F48070E06020696060E068DF
:1009100025696FF0010AC1051FD56168E06A884248
:1009200000D80846411B04D02246284600F034FA7D
:10093000F0BBE068010203D5E562C4E9015854E068
:10094000691CE1626160E16940F48030491EC4E9DC
:10095000021030462E70BDE8F087010202D500F487
:1009600080320AE06068411C61600670E0680A2E0F
:1009700040F48030E06006D00022E16A6068814285
:1009800003D90B4602E00122F7E70346A7895B1B68
:100990007F0503D4E7699F4200DDE2B1814200D8C0
:1009A0000146E5620F1AC4E90158002B09DD00E099
:1009B00005E022461946284600F0EEF908B14846FF
:1009C000C9E747B1A069E5626560C01BA061E06846
:1009D00040F01000E060E068000208D56168A0699E
:1009E000E562491B08446560A0615046B3E73046A4
:1009F000B1E770B5C468A50713D0650211D4B2F58C
:100A0000807F09D0B2F5007F06D0B2F5806F08D1A3
:100A1000012300F1240106E05D1E6FF07F46B54220
:100A200001D3012070BD0161C361416024F4706194
:100A30001143C160002070BD2DE9F0410C4607460E
:100A40001646104600F06EF82078611C61280AD026
:100A5000722802D077283CD102E00125002405E06D
:100A60000225042402E0082448F2020511F8010BD3
:100A70002B2806D0622809D011F8010C74280AD05E
:100A80000BE045F0030544F00204EFE745F00405F0
:100A900044F00104EAE744F010043846214601F02E
:100AA0000BFE411C15D00021316171604FF40071C3
:100AB000F560F1617061200704D530460222002103
:100AC00000F0E4F8306D40F0010030653046BDE8DC
:100AD000F0810020FBE72DE9F0410D460646104C61
:100AE000206DC10704D0410804D020F00104F7E7CD
:100AF00022460EE0542000F09AF807000ED0206D38
:100B000047F001010843542120653846FFF7ACFC4B
:100B10003A4629463046BDE8F0418DE70020D6E749
:100B2000680000202DE9F04704464FF000094FF01F
:100B3000FF37C568D4E90486A80707D0204600F02F
:100B400055F9304601F09AFD002802DA3846BDE832
:100B5000F087280502D54046FFF739FE4C21204694
:100B6000FFF782FC206D20F0010020654846EEE78B
:100B700010B50446AFF300802046BDE81040FFF7F3
:100B800059BB10B500F07CF9BDE8104000F072B917
:100B90000048704764010020004870476C01002045
:100BA000704770477047704738B504460A460020C2
:100BB0006946AFF30080002808BF38BD024600999F
:100BC000204600F084F9012038BD012000F0D3B99F
:100BD000F8B5AFF30080054600200C46102000BF9A
:100BE0000646A819A0420DD9324669460020AFF347
:100BF0000080070008BF00F0BEF90098A04218BFAF
:100C00000546C419FFF7C8FF05600746F01D20F030
:100C100007004619284600F053F9B44208BFF8BD52
:100C2000A21B31463868BDE8F84000F050B970B5F5
:100C30000646FFF7B1FF056806F10B0020F0070438
:100C4000B4429CBF002070BD2B466A68BAB11068E0
:100C5000A04210D304F1080188423CBF506858609C
:100C600007D35168101941601168091B0160586071
:100C70001460101D70BD13465268002AE7D121464A
:100C80002846FFF791FF0028DED170BD2DE9F04125
:100C9000044616460D464769007B80072ED038462D
:100CA00001F0FEFC50BB3EB3012E02D0022E25D136
:100CB00004E0204600F025F905441DE0384601F027
:100CC000E9FCE168002841F01001E16005DA204606
:100CD00000F058F80120BDE8F081C9030BD5626827
:100CE000E16A914200D81146A26911442269891A29
:100CF000814200DD08460544002D01DA0220EAE7C2
:100D0000E16A6068E268814206D29103E06203D53D
:100D100022F4003141F01002A6690027AE4213DC34
:100D2000E16A814201D90B4600E0034603EB060C61
:100D30002369ACEB030CAC4506DD814201D98C463E
:100D400000E084469C4505D1A760276042F0200062
:100D5000A5620DE0AD1BE669AE1B8142A66000D91D
:100D60000846C01A281A20605819606022F0200036
:100D700003490840E060002084F84870ABE70000B9
:100D8000BFCFD7FFC16821F4001141F08001C160DD
:100D900000218160016070472DE9F04781461446CB
:100DA0000E464FF0FF383248D5685769054209D0E2
:100DB0003846A16901F0AEFC002811DB2C48C04385
:100DC0000540E5602B4632464946384601F0A5FC11
:100DD000A16920F00042B21A11440028A16103D099
:100DE0002046FFF7CFFF4046BDE8F08770B50446C8
:100DF0000569C06A6168884200D80846E16821F444
:100E00002011E160C90312D5A84208D02246411B37
:100E10002846FFF7C1FF10B14FF0FF3070BD002032
:100E2000E562C4E90150E06820F48030E060002011
:100E300070BD10B50446C06820F02000E060A16AD3
:100E4000A06988420DD02046FFF7D0FFE06820F46B
:100E5000405040F01000E060A06AA0612069E062AC
:100E6000606044F24001E0688843E06010BD00002B
:100E700010000200002801D000F01CB870470000EC
:100E800010B5014602A000F05DF8012010BD000081
:100E900053494752545245443A2052656469726539
:100EA00063743A2063616E2774206F70656E3A2018
:100EB0000000000001491820ABBEFEE7260002003A
:100EC00000210160C0E901107047102070470346FF
:100ED00040688C46002818BF88423CBF03464068E3
:100EE000F8D318681844884207D00CF1030020F0AA
:100EF0000700001D411A521A0146081D0A60FFF73B
:100F000066BC10B50146C268900703D0900607D5AD
:100F1000886A0AE000F03EF801210160881E10BDD9
:100F20008B69486818440B69C01A91F848301BB1A6
:100F300091F84910401A10BD1103FCD50028FADDC4
:100F4000401E10BD70B505460C460A2000E06D1C21
:100F500000F018F835B128780028F8D102E0641CB8
:100F600000F010F814B120780028F8D1BDE87040E6
:100F70000A2000F007B810B500F010F8BDE81040E6
:100F8000FFF778BF08B569468DF800000320ABBEB7
:100F900008BD7047004870476401002010B5012863
:100FA00005D0002103A0FFF7CDFF012010BD09A14E
:100FB000F8E7000053494752544D454D3A204F75CC
:100FC00074206F662068656170206D656D6F727941
:100FD000000000003A2048656170206D656D6F72F9
:100FE0007920636F7272757074656400FEE77047F4
:100FF00072B6FEE770B5044600F018F90546601CAD
:1010000002D004480078044400F010F9401BA042CC
:10101000FAD370BD040000202DE9F84FDFF8BCA121
:101020000022012503264FF00F090AF1040BAAF153
:10103000040E00BF0B6805FA02F42340A34270D1EE
:101040000F7907F00307012F01D0022F16D187680F
:101050004FEA420806FA08FC27EA0C07D1F80CC050
:101060000CFA08FC4CEA070CC0F808C04768A74314
:101070000C79C4F3001494403C4344600C79E4437D
:10108000A4070AD0C4684FEA420C06FA0CF7BC4326
:101090008F6807FA0CF72743C7600C7904F0030444
:1010A000022C12D1D40800EB840CDCF82040570746
:1010B000FF0E09FA07F824EA0804D1F8108008FAAC
:1010C00007F848EA0408CCF8208004684FEA420C8C
:1010D00006FA0CF7BC430F7907F0030707FA0CF781
:1010E000274307604C6814F4403F70D03C4C27689D
:1010F00047F480472760246822F0030704F4804403
:101100000094384C07EB040CDCF8084897074FEACA
:10111000177809FA08F7BC43334FB84202D10027C9
:1011200024E054E0314FB84201D101271EE0304F96
:10113000B84201D1022719E02E4FB84201D103274E
:1011400014E02D4FB84201D104270FE02B4FB842D5
:1011500001D105270AE02A4FB84201D1062705E050
:10116000284FB84201D1072700E0082707FA08F7FF
:101170002743CCF80878DAF800405746D1F804C085
:101180009C435FEACC2C00D51C433C60DBF800405C
:101190005F46D1F804C09C435FEA8C2C00D51C4309
:1011A0003C60DEF800407746D1F804C09C435FEA1B
:1011B0008C3C00D51C433C60084F083F3C68D1F88C
:1011C00004C09C435FEACC3C00D51C433C60521CED
:1011D000102AFFF42FAFBDE8F88F0000083C014053
:1011E0004438024000300140000002400004024048
:1011F00000080240000C02400010024000140240AF
:1012000000180240001C02400069084000D0012084
:101210007047426921EA02030A4043EA02418161C0
:1012200070470AB1816170470904FBE70148806893
:1012300070470000040000200248816802781144D1
:1012400081607047040000200B4810B5016841F42C
:1012500000710160016841F480610160016841F43E
:1012600080710160032000F06FF80F2000F006F895
:1012700000F024F8002010BD003C024070B50D4D78
:1012800004464FF47A712878B1FBF0F00A490968F6
:10129000B1FBF0F000F0EAFA48B9102C07D20022B6
:1012A0002146501E00F030F800206C6070BD012017
:1012B00070BD000004000020100000200A4808B59E
:1012C000016841F480410160006800F480400090B2
:1012D0000548001F016841F080510160006800F07E
:1012E0008050009008BD000044380240002809DB0F
:1012F00000F01F02012191404009800000F1E02030
:10130000C0F8001170470000F0B40E4B1B680C468B
:10131000C3F30223C3F10705042D00D90425191DC9
:10132000072901D2002300E0DB1E012606FA05F1A1
:10133000491E214099409E40761E16403143F0BC24
:1013400001F08CB90CED00E0064900F007020868D6
:101350004FF6FF03184040EA0220034A104308609A
:10136000704700000CED00E00000FA052DE9F047A1
:101370000E46050065D0DFF81481D8F80000F7B2FA
:1013800000F00700B04207D288F80070D8F80000DB
:1013900000F00700B04254D128683D4C810712D5B7
:1013A000400703D5206840F4E0502060287800070B
:1013B00003D5206840F4604020602068A96820F0D0
:1013C000F000084320602878C0072DD030496868B5
:1013D0000839012812D0022813D0032811D0096837
:1013E000890700292DDA216821F0030101432160DA
:1013F000FFF71CFF814641F2883A0EE00968890335
:10140000EFE709688901ECE7FFF710FFA0EB09019E
:10141000514502D90320BDE8F0872068696800F0D3
:101420000C00B0EB810FEFD1D8F80010404601F06E
:101430000701B14207D90770006800F00700B04209
:1014400001D00120E7E72878400705D52068E96842
:1014500020F4E050084320602878000706D5206873
:10146000296920F4604040EAC100206000F018F8CB
:101470002168084AC1F30311515CC840064908605D
:1014800006480068FFF7FAFE0020C4E7003C02406F
:101490000838024002280008100000200800002040
:1014A000154810B5006810F00C02144813D0411014
:1014B000042A0FD0082A0ED10F4C241F226823685B
:1014C00002F03F025B0207D52068C0F38810A0FB42
:1014D000010106E0084610BD2168C1F38811A1FB97
:1014E00000010023FEF7CCFE2168C1F30141491C35
:1014F0004900B0FBF1F010BD083802400024F400B0
:101500002DE9F84F04006ED02078DFF84C93C00727
:10151000A9F104054AD009F104000168C1F3810171
:10152000012908D00068C0F3810002280AD1D9F847
:101530000000400206D52868800337D5606800287F
:10154000E1D033E06068B0F5803F10D0B0F5A02F57
:10155000286810D020F480302860286820F480208B
:1015600028606068A8B1FFF761FE06460DE02868B4
:1015700040F48030F4E740F480202860F7E700BFB3
:10158000FFF754FE801B642873D828688003F7D5C2
:101590000CE0FFF74BFE064605E000BFFFF746FEF6
:1015A000801B6428F0D828688003F7D42078DFF8FF
:1015B000AC8280074FF0000A3ED5A748001D0168A5
:1015C00011F00C0F08D00068C0F3810002280BD185
:1015D000D9F80000400207D42868800716D5E068D3
:1015E000012800D112E033E1E068B8B10120C8F869
:1015F0000000FFF71BFE064605E000BFFFF716FEE2
:10160000801B0228C0D828688007F7D52868216980
:1016100020F0F80040EAC10028600DE0C8F800A002
:10162000FFF704FE064604E0FFF700FE801B0228D9
:101630001FD828688007F7D42078000722D5864F66
:1016400087486169703771B101210160FFF7EEFDD4
:10165000064604E0FFF7EAFD801B022809D8386837
:101660008007F7D50EE0C0F800A0FFF7DFFD0646C3
:1016700005E082E0FFF7DAFD801B02287DD838689C
:101680008007F7D42078400768D5DFF8CCB1002771
:101690000BF13C0BDBF80000C0000BD4DBF80010B2
:1016A00041F08051CBF80010DBF80000012700F07A
:1016B000805000906B4E3068C00510D4306840F404
:1016C00080703060FFF7B2FD009005E0FFF7AEFDDF
:1016D0000099401A022850D83068C005F6D55E4EF1
:1016E000A0686C3601280FD00528306810D020F093
:1016F00001003060306820F004003060A068B8B1AC
:10170000FFF794FD00900FE0306840F00100F4E72F
:1017100040F004003060F7E7FFF788FD0099411AB8
:1017200041F28830814266D830688007F4D50EE0F7
:10173000FFF77CFD009007E0FFF778FD0099411A64
:1017400041F28830814256D830688007F4D42FB1F6
:10175000DBF8001021F08051CBF80010A069C8B36D
:101760003D49091D0968C1F3810102294AD00228B7
:10177000504607D0C8F8600000E03CE0FFF756FD97
:1017800004463BE04746C8F86000FFF74FFD0646B9
:1017900005E000BFFFF74AFD801B02282BD8286810
:1017A0008001F7D4D4E907010843A16A2E4A490809
:1017B00002EB0141626A41EA8211084394F82C105D
:1017C00040EA0161C9F8001001203866FFF72EFDDC
:1017D000044606E03EE000BFFFF728FD001B02289C
:1017E00009D828688001F7D534E000BFFFF71EFD57
:1017F000001B022802D90320BDE8F88F2868800169
:10180000F4D427E00128F7D0D9F80000E26900F409
:10181000800191421CD1226A00F03F01914217D110
:1018200047F6C071626A0140B1EB821F10D1A26A13
:101830004FF0FF3300F4403103EB5202B1EB024FA3
:1018400006D194F82C1000F07060B0EB016F01D05D
:101850000120D1E70020CFE70438024000004742D2
:10186000800E4742007000400000FFFF10B5401E90
:10187000B0F1807F01D3012010BD4FF0E024606102
:101880000F21601700F0EAFE0020A0610720206110
:10189000002010BD7047704710B590F83C20012A19
:1018A00022D0012280F83C20CA688C6822F4407261
:1018B00022434C6822F4806222430C6822F40062C6
:1018C00022430C6922F4805222434C6922F40052D4
:1018D0002243C969002322F480420A4301684A6412
:1018E00080F83C30002010BD022010BD70B590F88B
:1018F0003C20012A32D0012480F83C40022280F8AA
:101900003D2003685A689D6822F070060A683243D9
:101910005A60134B02689A4214D0B2F1804F11D032
:10192000104B9A420ED0104B9A420BD00F4B9A425A
:1019300008D00F4B9A4205D00E4B9A4202D00E4B64
:101940009A4204D1496825F080031943916080F8D8
:101950003D40002180F83C10084670BD022070BD5B
:10196000000001400004004000080040000C00405E
:1019700000040140004001400018004010B5040080
:1019800003D094F83D0010B107E0012010BD002005
:1019900084F83C00204600F01FF8022084F83D0047
:1019A000211D206800F0F0FC012084F8460084F836
:1019B0003E0084F83F0084F8400084F8410084F839
:1019C000420084F8430084F8440084F8450084F819
:1019D0003D00002010BD000008B500680B4988429A
:1019E00012D10B48016841F001010160006800223A
:1019F00000F00100009011461B20FFF785FCBDE8B8
:101A000008401B20FFF772BC08BD00000000014029
:101A10004438024070B5044690F83C000025012887
:101A200017D0012684F83C60022084F83D0020682D
:101A3000826822F0770222F47F4282600868502890
:101A400038D00DDC20284FD005DC90B3102811D100
:101A50004AE0022070BD302846D040280AD13BE041
:101A600060282FD070280DD0B0F5805F03D0B0F57E
:101A7000005F12D0012584F83D60002084F83C000E
:101A8000284670BDCB68D1E90121206800F0EDFC4B
:101A90002068816841F0770109E0CB68D1E9012134
:101AA000206800F0E2FC2068816841F48041816098
:101AB000E1E719E0CA684968206800F0ABFD5021F1
:101AC000206806E0CA684968206800F0B4FD60211B
:101AD000206800F0D4FCCEE7CA684968206800F0AE
:101AE00099FD40212068F4E7226801461046F0E79E
:101AF000704770B50446006801694FF00005C9439E
:101B0000890715D4C168C943890711D4E91E016149
:101B100001202077206880698007204602D0FFF7E7
:101B2000E7FF04E000F000F9204600F069FA2577AD
:101B300020680169C943490717D4C168C9434907E7
:101B400013D46FF0040101610220207720688069BE
:101B500010F4407F204602D0FFF7CAFF04E000F0F7
:101B6000E3F8204600F04CFA257720680169C94364
:101B7000090716D4C168C943090712D46FF00801D8
:101B80000161042020772068C0698007204602D0C8
:101B9000FFF7AEFF04E000F0C7F8204600F030FA8F
:101BA000257720680169C943C90617D4C168C943AC
:101BB000C90613D46FF01001016108202077206856
:101BC000C06910F4407F204602D0FFF791FF04E087
:101BD00000F0AAF8204600F013FA25772068016982
:101BE000C943C90708D1C168C943C90704D1891EBF
:101BF0000161204600F09EFA20680169C943090688
:101C000009D4C168C943090605D46FF08001016198
:101C10002046FFF73FFE20680169C943490609D401
:101C2000C168C943490605D46FF0400101612046EF
:101C300000F081FA20680169C94389060BD4C168A4
:101C4000C943890607D46FF0200101612046BDE831
:101C50007040FFF720BE70BDF0B587B00446142178
:101C60006846FEF701FC17492068884227D11648CC
:101C70000024016841F010010160016801F01001C9
:101C80000591016841F00101016000684FF40075A1
:101C900002260095CDE9016400F001000127CDE99D
:101CA0000470694603940948FFF7B6F90095CDE939
:101CB0000164CDE9034769460548FFF7ADF907B070
:101CC000F0BD00000000014030380240001002402A
:101CD0000000024070B5044690F83C000025012841
:101CE0000FD0012084F83C006AB1042A0FD0082AE2
:101CF00011D00C2A13D00125002084F83C0028467E
:101D000070BD022070BD206800F0C2FBF4E72068BF
:101D100000F0EEFBF0E7206800F020FCECE7206824
:101D200000F050FCE8E7000010B5007F022811D158
:101D3000094C0AA02188FEF71BFB2088401C80B2BA
:101D40002080C82806D1BDE810404FF480610D48BE
:101D5000FFF75FBA10BD00000000002054494D5F3E
:101D600031204F432048414C5F54494D5F4143541B
:101D70004956455F4348414E4E454C5F32202564ED
:101D8000200A00000010024010B5040003D094F8AF
:101D90003D0010B107E0012010BD002084F83C0098
:101DA000204600F01EF8022084F83D00211D206826
:101DB00000F0EAFA012084F8460084F83E0084F836
:101DC0003F0084F8400084F8410084F8420084F821
:101DD000430084F8440084F8450084F83D00002066
:101DE00010BD704730B500250446022249B10429D0
:101DF00012D008294CD094F84100012853D001207A
:101E000030BD94F83E000128F9D184F83E202068C6
:101E1000C26842F0020209E094F83F000128EED1C6
:101E200084F83F202068C26842F00402C2600122A8
:101E3000206800F00DFB21492068214A884201D02A
:101E4000904203D1436C43F40043436420688842CA
:101E500013D0B0F1804F10D01A4988420DD01A49E2
:101E600088420AD01949884207D0904205D01849C3
:101E7000884202D01749884204D1816801F00701E5
:101E8000062903D0016841F001010160284630BDF8
:101E900094F840000128B2D184F840202068C2683C
:101EA00042F00802C2E784F841200C2901D0012544
:101EB000ECE72068C26842F01002B7E7000001407A
:101EC000000401400004004000080040000C0040F5
:101ED000004001400018004070B5044690F83C00F6
:101EE00000260D4601280FD0012084F83C006AB17D
:101EF000042A1DD0082A2FD00C2A3FD0012600200A
:101F000084F83C00304670BD022070BD206800F0AF
:101F1000BFFA2068816941F0080181612068816908
:101F200021F004018161206881692A69114311E06F
:101F3000206800F0DDFA2068816941F40061816168
:101F40002068816921F480618161206881692A6942
:101F500041EA02218161D2E7206800F0FFFA20689F
:101F6000C16941F00801C1612068C16921F0040123
:101F7000C1612068C1692A69114311E0206800F03D
:101F800021FB2068C16941F40061C1612068C16919
:101F900021F48061C1612068C1692A6941EA022196
:101FA000C161ACE710B5040003D094F83D0010B156
:101FB00007E0012010BD002084F83C00204600F01E
:101FC0001EF8022084F83D00211D206800F0DCF995
:101FD000012084F8460084F83E0084F83F0084F82D
:101FE000400084F8410084F8420084F8430084F8FB
:101FF000440084F8450084F83D00002010BD70477F
:10200000007F012804D10348018803A0FEF7B0B97E
:10201000704700000000002054494D5F31205057A8
:102020004D2048414C5F54494D5F4143544956450A
:102030005F4348414E4E454C5F31202564200A00E5
:1020400030B500250446022249B1042912D00829DE
:102050004CD094F84100012853D0012030BD94F8B1
:102060003E000128F9D184F83E202068C26842F081
:10207000020209E094F83F000128EED184F83F20E5
:102080002068C26842F00402C2600122206800F0A9
:10209000DFF921492068214A884201D0904203D1CA
:1020A000436C43F4004343642068884213D0B0F18A
:1020B000804F10D01A4988420DD01A4988420AD060
:1020C0001949884207D0904205D01849884202D069
:1020D0001749884204D1816801F00701062903D01D
:1020E000016841F001010160284630BD94F84000CC
:1020F0000128B2D184F840202068C26842F008026A
:10210000C2E784F841200C2901D00125ECE72068C2
:10211000C26842F01002B7E700000140000401402D
:102120000004004000080040000C00400040014056
:102130000018004070477047FEE700000749096833
:10214000C9070AD0054980390968C90705D04FF089
:1021500060410A68002AFCD008707047800E00E0D9
:10216000F0B587B014216846FEF77EF919480024BF
:10217000016841F010010160016801F01001059152
:10218000016841F080010160016801F08001059162
:10219000016841F00101016000680F4F00F001008B
:1021A0004FF440660590002231463846FFF739F873
:1021B000182001258DE8310069463846FEF72CFFCE
:1021C0000096CDE90154694638460394FEF724FF92
:1021D00007B0F0BD303802400010024010B596B094
:1021E00000240F9410941194129413941C216846A7
:1021F0001494FEF739F9202107A8FEF735F9324883
:102200003049016040F28F61C0E9011440F2E731CA
:10221000C0E9031444618461FFF7B0FB08B1FEF725
:10222000E7FE4FF480500F900FA92748FFF7F2FB0D
:1022300008B1FEF7DDFE2448FFF7B4FE08B1FEF753
:10224000D7FE2148FFF7A0FD08B1FEF7D1FE139499
:1022500013A91D481494FFF749FB08B1FEF7C8FE07
:102260006020009040F2F310CDE90104039404943F
:1022700005940022694614480694FFF72DFE08B124
:10228000FEF7B6FE3020CDE90004042269460E4870
:10229000FFF720FD08B1FEF7ABFE07940894099400
:1022A0004FF400500A94CDE90B4007A906480E945C
:1022B000FFF7F2FA08B1FEF79BFE0348FFF7CCFCEC
:1022C00016B010BD0000014020000020FEE7FEE730
:1022D00070477047FEF7B0BF30B593B03021684605
:1022E000FEF7C2F814210CA8FEF7BEF81D48002521
:1022F000016841F080510160006800F08050119049
:102300001948016841F4804101600068022400F42A
:102310008040119001200090000401908001CDE9DF
:10232000064008AA0420A82182E813000B90684602
:10233000FFF7E6F808B172B6FEE70CA90F2081E8B6
:1023400031004FF4A0500F904FF4805010900521B1
:102350000CA8FFF70BF8002801D072B6FEE713B007
:1023600030BD000040380240007000400248016863
:1023700041F470010160704788ED00E00148FFF70B
:10238000B8BB000020000020F0B50268254C264DA7
:10239000264E274F274B4FF0804CA04209D0604576
:1023A00007D0A84205D0B04203D0B84201D098422D
:1023B00004D122F0700E4A6842EA0E02A0421BD0FD
:1023C000604519D0A84217D0B04215D0B84213D0FA
:1023D000984211D0184DA8420ED0184DA8420BD0EB
:1023E000174DA84208D0174DA84205D0164DA84257
:1023F00002D0164DA84203D122F44075CA682A4380
:102400004D6922F080022A4302608A68C2620A682B
:102410008262A04201D0984201D109690163012181
:102420004161F0BD00000140000400400008004090
:10243000000C004000040140004001400044014005
:102440000048014000180040001C004000200040EF
:1024500010B501F01F030121046A99408C43046206
:10246000016A9A401143016210BD10B5846842EAC6
:10247000032224F47F440A432243826010BD826811
:1024800022F070020A4342F00701816070470000A9
:10249000F0B5026A22F001020262036A42688469AE
:1024A000124E24F073050C682C4323F002058B6850
:1024B0002B430D4DA84201D0B04205D123F00807AF
:1024C000CB683B4323F00403A84201D0B04205D1BE
:1024D0004D6922F4407215438A692A43426084613F
:1024E000496841630362F0BD0000014000040140FF
:1024F000F0B5026A22F010020262026A436884693F
:102500000D6824F4E64444EA05248D6822F0200294
:1025100042EA05120F4D104EA84201D0B04206D13A
:10252000CF6822F0800242EA071222F04002A8425D
:1025300001D0B04207D14D6923F4406343EA8503DB
:102540008D6943EA8503436084614968816302625F
:10255000F0BD00000000014000040140F0B5026A37
:1025600022F480720262026A4368C46922F4007233
:1025700024F073050C68124E2C438D6842EA052244
:102580000E4DA84201D0B04206D1CF6822F40062BD
:1025900042EA072222F48062A84201D0B04207D169
:1025A0004D6923F4405343EA05138D6943EA05134B
:1025B0004360C4614968C1630262F0BD000001402C
:1025C0000004014030B5026A22F480520262046ABB
:1025D0004268C3690D6823F4E64343EA05238D6826
:1025E00024F4005444EA0534084DA84202D0084DB2
:1025F000A84204D14D6922F4804242EA8512426029
:10260000C36149680164046230BD000000000140FC
:102610000004014010B5036A046A24F00104046256
:10262000846924F0F00444EA021423F00A020A4305
:102630008461026210BD10B5036A23F010030362C7
:102640008369046A23F4704343EA023224F0A0034E
:1026500043EA01118261016210BDFEE70907090E1C
:10266000002804DB00F1E02080F80014704700F03F
:102670000F0000F1E02080F8141D70476FF4004156
:10268000401804D0012803D0022801D00814704754
:10269000002070476FF40041401800D000207047C0
:1026A0006FF40041401805D0012802D0022801D063
:1026B000002070470120704770B504004FF0FF35CF
:1026C00011D020783A280ED10CA12046FDF7F4FE57
:1026D00058B10CA12046FDF7EFFE48B10BA12046F2
:1026E000FDF7EAFE38B1284670BD48F2010070BD22
:1026F00048F2020070BD48F2030070BD3A535444E2
:10270000494E00003A5354444F5554003A535444F0
:10271000455252004FF0FF30704710B50C466FF431
:102720000041411813464FF0FF3013D0012902D069
:1027300002290FD106E063B114F8010BFFF7FEFC8C
:102740005B1EF8E72BB114F8010BFFF7F7FC5B1EDB
:10275000F8E7002010BD8A68002A01DCFEF75EB8A9
:10276000521E8A604A68C0B2531C4B60107070479A
:10277000FEF76AFDFFF7B0FDFFF7F2FCFFF72EFD55
:1027800000211B48FFF75CFC04211948FFF72AFBD6
:10279000184C012291022046FEF743FD0122D5028A
:1027A00021E010212046FEF72FFD60B91420FEF72E
:1027B00021FC10212046FEF727FD20B900222946E2
:1027C0002046FEF72EFD08212046FEF71DFD0028BD
:1027D000E7D11420FEF70EFC08212046FEF714FD79
:1027E0000028DED1012229462046FEF71AFDD8E74F
:1027F00020000020001002404FF04070E1EE100A6F
:1028000070470000000000000000010203040607FA
:1028100008093A535444494E003A5354444F5554CE
:10282000003A535444455252000000004C2800081E
:102830000000002020000000C40100086C280008EF
:1028400020000020A8070000E001000800000000B0
:102850000100000010000000000000000024F4004F
:0C2860000000000000000000000000006C
:040000050800018965
:00000001FF
