:020000040800F2
:10000000B0080020490200084B210008431D0008E9
:1000100049210008A10E00087D230008000000000F
:100020000000000000000000000000004F21000858
:10003000A30E0008000000004D2100085121000817
:1000400063020008630200086302000863020008FC
:1000500063020008630200086302000863020008EC
:1000600063020008630200086302000863020008DC
:1000700063020008630200086302000863020008CC
:1000800063020008630200086302000863020008BC
:1000900063020008630200086302000863020008AC
:1000A000630200086302000863020008630200089C
:1000B000630200086302000863020008630200088C
:1000C000630200086302000863020008630200087C
:1000D000630200086302000863020008630200086C
:1000E000630200086302000863020008630200085C
:1000F000630200086302000863020008630200084C
:10010000630200086302000863020008630200083B
:10011000630200086302000863020008630200082B
:10012000630200086302000863020008630200081B
:10013000630200086302000863020008630200080B
:1001400063020008630200086302000863020008FB
:1001500063020008630200086302000863020008EB
:1001600063020008630200086302000863020008DB
:100170006302000863020008630200080000000038
:10018000630200086302000800F002F800F04CF877
:100190000AA090E8000C82448344AAF10107DA45E2
:1001A00001D100F041F8AFF2090EBAE80F0013F0E8
:1001B000010F18BFFB1A43F001031847942B0000EE
:1001C000B42B0000103A24BF78C878C1FAD852077F
:1001D00024BF30C830C144BF04680C6070470000C1
:1001E0000023002400250026103A28BF78C1FBD840
:1001F000520728BF30C148BF0B607047642900F028
:100200002581732900F03482002070471FB502F069
:1002100079FD9DE8030000F035FC00F05BFA1FBD9E
:1002200010B500F0C0FA10BD00F0F0FA1146FFF76B
:10023000EDFF02F0E9FB00F0F5FB03B4FFF7F0FF80
:1002400003BC00F091FD00000948804709480047C1
:10025000FEE7FEE7FEE7FEE7FEE7FEE7FEE7FEE776
:10026000FEE7FEE704480549054A064B70470000D3
:10027000E921000889010008B0020020B008002030
:10028000B0040020B004002053EA020C00F06980A2
:100290002DE9F04B4FF00006002B1FBFB3FA83F59A
:1002A00003FA05F424FA05F65E4012BF1643B2FACB
:1002B00082F502FA05F4C5F120051EBF22FA05FCFD
:1002C00044EA0C04203556EA044C4FEA144418BFA3
:1002D000641C4FF000084FF00009904271EB030CD2
:1002E00039D3002919BFB1FA81F701FA07F6B0FA3C
:1002F00080F700FA07F6C7F120071EBF20FA07FCB7
:1003000046EA0C062037B6FBF4FCA7EB0507103FC6
:1003100007F01F0BCBF120060CFA0BFB2CFA06F6AC
:1003200044BFB3460026202FA4BF5E464FF0000B0B
:100330005BEA060C08BF4FF0010B19EB0B09ABFB96
:10034000027C48EB0608C01B06FB02CC0BFB03CC6F
:1003500071EB0C01C1E70B46024641464846BDE839
:10036000F08B13B54FF000004FF00001AFF30080A9
:10037000BDE81C40704700000FB4044910B503AA43
:10038000029800F079F910BC5DF814FBA801002078
:100390002DE9F0410E460446002020622046E16827
:1003A000884730B3252805D0D4E901219047206A39
:1003B000401CF2E7E168204600278847050018D076
:1003C000A5F14100192802D820354FF400673246C4
:1003D000294620462760FFF711FF40B1012804D0CD
:1003E000F61D26F007060836D8E7361DD6E728465C
:1003F000DAE7206ABDE8F08170B50C460546012AAF
:1004000005D02878800600D5EA69002302E00123A0
:1004100005E05B1C934202D2E05C0028F9D1A86998
:10042000E618C01AA861286A184428622846AFF363
:10043000008004E0D5E9012114F8010B9047B44293
:10044000F8D32846AFF3008070BD00002DE9F041DD
:100450000646002410687529314616A510D0AFF362
:100460000080002802DA404213A507E031688A07BD
:1004700001D512A502E0490704D511A5012401E028
:10048000AFF3008000210A2206F1240709E0B0FB47
:10049000F2FCB0FBF2F302FB1C003030785418463B
:1004A000491C0028F3D123462A463046BDE8F041D6
:1004B00000F073B8000000002D0000002B000000C9
:1004C000200000004FF0000200B513469446964607
:1004D000203922BFA0E80C50A0E80C50B1F1200157
:1004E000BFF4F7AF090728BFA0E80C5048BF0CC005
:1004F0005DF804EB890028BF40F8042B08BF704763
:1005000048BF20F8022B11F0804F18BF00F8012BD4
:10051000704700004FF0013C50F8042B51F8043BA9
:100520009A4221D1A2EB0C03934313EACC1317D1C7
:1005300050F8042B51F8043B9A4215D1A2EB0C035E
:10054000934313EACC130BD150F8042B51F8043B1E
:100550009A4209D1A2EB0C03934313EACC13DBD0EC
:100560004FF00000704700BFD01A01BAB1FA81F114
:1005700001F0180122FA01F0CB40C1F12001DBB2F9
:10058000C0B2C01A2CFA01F3D11A914311EAC31177
:10059000E6D170477047704770472DE9F0470D4628
:1005A00099469246044600F124080168880604D55D
:1005B000E06921F01001216000E00120A84201DD86
:1005C000471B00E00027A1697A1902EB0900081A0D
:1005D000A0612078C00602D42046AFF30080002638
:1005E00008E0D4E901211AF806009047206A401C6F
:1005F000761C20624E45F4DB2078C0060AD52046E2
:10060000AFF3008006E0D4E9012130209047206A52
:10061000401C2062381EA7F10107F4DC07E0D4E992
:10062000012118F805009047206A401C2062281E0E
:10063000A5F10105F3DC2046AFF300802078000629
:1006400002D50220BDE8F0870120FBE710B5436921
:1006500013B1AFF3008001E0FFF7CEFE012010BD23
:10066000127800F124010A7000224A700122EDE79D
:1006700011684FF0FF32E9E7074B70B50D467B4438
:1006800000F011F80446284600F020F810B14FF0B1
:10069000FF3070BD204670BD1322000001694A1C66
:1006A00002610878704700B58FB0CDE901310021B3
:1006B000059105497944CDE9031011466846FFF7D5
:1006C00067FE0FB000BD0000E5FFFFFF007B00F0FC
:1006D0008000704710B542485421FFF7F3FE4148AF
:1006E0005421FFF7EFFE40485421FFF7EBFE3F494E
:1006F0003B483C4A3F4B08603D490A603A49196013
:10070000531C0365481C1065012008653B48344AAA
:1007100039A1784400F0EAF820B9384878440A381A
:1007200000F089F937482F4A35A1784400F0DEF807
:1007300020B9344878440A3800F07DF932482A4A12
:100740002FA1784400F0D2F820B92F4878440A3815
:1007500000F071F940232248DC000021224600F01D
:10076000A1F820B125487844543800F064F91D48B8
:1007700022464023002100F095F820B1214878441A
:10078000543800F058F9184822461023002100F090
:1007900089F8002806D01C487844BDE81040563837
:1007A00000F049B910BD104870B5006D20F001048B
:1007B0000B4800F011F90B4800F00EF90A4800F060
:1007C0000BF909E0206D20F00105204600F004F946
:1007D000204600F040F82C46002CF3D170BD0000FC
:1007E00054010020A8010020FC0100203C00002052
:1007F000400000204400002072000000222600007B
:10080000770000001126000001260000754600F068
:1008100019F9AE4605006946534620F007008546A3
:1008200018B020B5FFF71EFDBDE820404FF00006D0
:100830004FF000074FF000084FF0000B21F00701C8
:10084000AC46ACE8C009ACE8C009ACE8C009ACE80B
:10085000C0098D46704770B50446051F00F0F6F8D4
:100860000068002C14BF446870BD002C18BFAC4257
:100870003CBF20466468F8D301680A18AA4218BF32
:10088000456003D12A680546114401602868411972
:10089000A1421CBF6C6070BD61686960216808443A
:1008A000286070BD70B5C468A50713D0650211D467
:1008B000B2F5807F09D0B2F5007F06D0B2F5806F27
:1008C00008D1012300F1240106E05D1E6FF07F4690
:1008D000B54201D3012070BD0161C361416024F4C0
:1008E00070611143C160002070BD00002DE9F0412E
:1008F0000C4607461646104600F06EF82078611C3C
:1009000061280AD0722802D077283CD102E0012564
:10091000002405E00225042402E0082448F2020530
:1009200011F8010B2B2806D0622809D011F8010C10
:1009300074280AD00BE045F0030544F00204EFE709
:1009400045F0040544F00104EAE744F01004384699
:10095000214601F043FD411C15D000213161716039
:100960004FF40071F560F1617061200704D53046E5
:100970000222002100F0E4F8306D40F00100306503
:100980003046BDE8F0810020FBE72DE9F0410D463F
:100990000646104C206DC10704D0410804D020F059
:1009A0000104F7E722460EE0542000F09AF8070011
:1009B0000ED0206D47F001010843542120653846D0
:1009C000FFF780FD3A4629463046BDE8F0418DE705
:1009D0000020D6E7540100202DE9F04704464FF0EF
:1009E00000094FF0FF37C568D4E90486A80707D08F
:1009F000204600F055F9304601F0D1FC002802DA1B
:100A00003846BDE8F087280502D54046FFF723FFAA
:100A10004C212046FFF756FD206D20F00100206597
:100A20004846EEE710B50446AFF300802046BDE827
:100A30001040FFF702BC10B500F07CF9BDE8104093
:100A400000F072B90048704750020020004870471B
:100A500058020020704770477047704738B5044609
:100A60000A4600206946AFF30080002808BF38BD61
:100A700002460099204600F084F9012038BD01208B
:100A800000F0D3B9F8B5AFF30080054600200C465E
:100A9000102000BF0646A819A0420DD9324669466B
:100AA0000020AFF30080070008BF00F0BEF90098F7
:100AB000A04218BF0546C419FFF7C8FF05600746E6
:100AC000F01D20F007004619284600F053F9B44203
:100AD00008BFF8BDA21B31463868BDE8F84000F0F9
:100AE00050B970B50646FFF7B1FF056806F10B0077
:100AF00020F00704B4429CBF002070BD2B466A68FA
:100B0000BAB11068A04210D304F1080188423CBF7A
:100B10005068586007D35168101941601168091B6B
:100B2000016058601460101D70BD13465268002AA1
:100B3000E7D121462846FFF791FF0028DED170BD9E
:100B40002DE9F041044616460D464769007B8007B3
:100B50002ED0384601F035FC50BB3EB3012E02D0FA
:100B6000022E25D104E0204600F025F905441DE0C1
:100B7000384601F020FCE168002841F01001E160F6
:100B800005DA204600F058F80120BDE8F081C903DD
:100B90000BD56268E16A914200D81146A2691144FE
:100BA0002269891A814200DD08460544002D01DAD8
:100BB0000220EAE7E16A6068E268814206D29103B6
:100BC000E06203D522F4003141F01002A66900274B
:100BD000AE4213DCE16A814201D90B4600E00346D4
:100BE00003EB060C2369ACEB030CAC4506DD81423C
:100BF00001D98C4600E084469C4505D1A76027605A
:100C000042F02000A5620DE0AD1BE669AE1B8142FB
:100C1000A66000D90846C01A281A206058196060DA
:100C200022F0200003490840E060002084F848706A
:100C3000ABE70000BFCFD7FFC16821F4001141F03E
:100C40008001C16000218160016070472DE9F0479B
:100C5000814614460E464FF0FF383248D568576932
:100C6000054209D03846A16901F0E6FB002811DBF6
:100C70002C48C0430540E5602B463246494638467D
:100C800001F0DDFBA16920F00042B21A11440028F6
:100C9000A16103D02046FFF7CFFF4046BDE8F087B3
:100CA00070B504460569C06A6168884200D8084684
:100CB000E16821F42011E160C90312D5A84208D0EF
:100CC0002246411B2846FFF7C1FF10B14FF0FF300D
:100CD00070BD0020E562C4E90150E06820F4803076
:100CE000E060002070BD10B50446C06820F0200010
:100CF000E060A16AA06988420DD02046FFF7D0FFCE
:100D0000E06820F4405040F01000E060A06AA0616C
:100D10002069E062606044F24001E0688843E0607E
:100D200010BD000010000200002801D000F01CB827
:100D30007047000010B5014602A000F05DF80120E8
:100D400010BD000053494752545245443A20526561
:100D50006469726563743A2063616E2774206F70F2
:100D6000656E3A200000000001491820ABBEFEE786
:100D70002600020000210160C0E901107047102028
:100D80007047034640688C46002818BF88423CBF25
:100D900003464068F8D318681844884207D00CF11D
:100DA000030020F00700001D411A521A0146081DD9
:100DB0000A60FFF750BD10B50146C268900703D026
:100DC000900607D5886A0AE000F03EF8012101602C
:100DD000881E10BD8B69486818440B69C01A91F8C9
:100DE00048301BB191F84910401A10BD1103FCD5D1
:100DF0000028FADD401E10BD70B505460C460A20DD
:100E000000E06D1C00F018F835B128780028F8D102
:100E100002E0641C00F010F814B120780028F8D12A
:100E2000BDE870400A2000F007B810B500F010F8D7
:100E3000BDE81040FFF778BF08B569468DF800009F
:100E40000320ABBE08BD7047004870475002002029
:100E500010B5012805D0002103A0FFF7CDFF012028
:100E600010BD09A1F8E7000053494752544D454DC4
:100E70003A204F7574206F662068656170206D653B
:100E80006D6F7279000000003A2048656170206D36
:100E9000656D6F727920636F72727570746564002E
:100EA000FEE7704772B6FEE770B5044600F010F931
:100EB0000546601C02D004480078044400F008F99C
:100EC000401BA042FAD370BD2C0000202DE9F84F42
:100ED000DFF8BCA10022012503264FF00F090AF11B
:100EE000040BAAF1040E00BF0B6805FA02F42340BC
:100EF000A34270D10F7907F00307012F01D0022F11
:100F000016D187684FEA420806FA08FC27EA0C0760
:100F1000D1F80CC00CFA08FC4CEA070CC0F808C069
:100F20004768A7430C79C4F3001494403C434460E1
:100F30000C79E443A4070AD0C4684FEA420C06FACD
:100F40000CF7BC438F6807FA0CF72743C7600C798E
:100F500004F00304022C12D1D40800EB840CDCF85A
:100F600020405707FF0E09FA07F824EA0804D1F8D1
:100F7000108008FA07F848EA0408CCF820800468D2
:100F80004FEA420C06FA0CF7BC430F7907F003074F
:100F900007FA0CF7274307604C6814F4403F70D001
:100FA0003C4C276847F480472760246822F00307F9
:100FB00004F480440094384C07EB040CDCF8084837
:100FC00097074FEA177809FA08F7BC43334FB8423E
:100FD00002D1002724E054E0314FB84201D101276B
:100FE0001EE0304FB84201D1022719E02E4FB8421F
:100FF00001D1032714E02D4FB84201D104270FE09F
:101000002B4FB84201D105270AE02A4FB84201D13F
:10101000062705E0284FB84201D1072700E008273E
:1010200007FA08F72743CCF80878DAF80040574663
:10103000D1F804C09C435FEACC2C00D51C433C6033
:10104000DBF800405F46D1F804C09C435FEA8C2C7B
:1010500000D51C433C60DEF800407746D1F804C060
:101060009C435FEA8C3C00D51C433C60084F083F22
:101070003C68D1F804C09C435FEACC3C00D51C43DB
:101080003C60521C102AFFF42FAFBDE8F88F00001F
:10109000083C01404438024000300140000002405A
:1010A0000004024000080240000C02400010024010
:1010B0000014024000180240001C02400069084071
:1010C00000D0012070470AB1816170470904FBE735
:1010D00001488068704700002C00002070B50400B3
:1010E00025D094F83D00002520B984F83C502046D6
:1010F00000F04EF9242084F83D002068016821F0BA
:10110000010101602068016841F40041016020682C
:10111000016821F40041016000F094FA4D4A6168D1
:10112000914201D84C4900E04C49884201D201204B
:1011300070BD4B492368B0FBF1F15E6826F03F06B5
:101140000E435E606368934206D94FF49673594329
:101150004FF47A73B1FBF3F12368491C1E6A26F041
:101160003F06314319626168914210D84900401E20
:10117000B0FBF1F2521CC2F30B02042A01D204208C
:1011800022E0B0FBF1F0401CC0F30B001CE0A268B1
:10119000F2B301EBC10303EB0116431EB3FBF6F3FD
:1011A0005B1C43F480431B0549D092B301EBC102A1
:1011B00002EB0111401EB0FBF1F0401CC0F30B002C
:1011C00040F4804040F400402168CA694CF6FF7347
:1011D0009A431043C861D4E90710014320680268AC
:1011E00022F0C00211430160D4E9030101432068E9
:1011F000826848F2FF339A4311438160D4E90501C4
:1012000008432168CA6822F0FF021043C86001E069
:101210000EE016E02068016841F0010101602564DC
:10122000202084F83D00256384F83E50002070BDE6
:1012300001EB4106431EB3FBF6F35B1CB3E7012051
:10124000C2E701EB4101401EB0FBF1F0401CC0F3CE
:101250000B00B7E7A086010080841E0000093D0056
:1012600040420F002DE9F84F1F4690468A4604463B
:10127000DDF82890FFF72CFF054694F83D00202864
:101280007FD11923012240492046009500F0E6FD58
:10129000002876D194F83C00012872D0012084F80F
:1012A0003C0020680168C90703D1016841F00101D1
:1012B00001602068016821F400610160212084F848
:1012C0003D00102084F83E0000262664C4F82480E7
:1012D0006785608D20852D48E0622B464A46514641
:1012E000204600F047FD90B9206841698069009070
:1012F00036E02A464946204600F02FFE50B1206CC9
:10130000042804D12068016841F4007101600120C3
:10131000BDE8F88F606A216800780861606A401C47
:101320006062618D491E6185218D491E89B22185CA
:1013300022685369DB435B070BD451B1007810611D
:10134000606A401C6062608D401E6085208D401E7A
:1013500020852A464946204600F05AFD0028CED175
:10136000208D0028C5D154F83D0B016841F400716F
:101370000160202004F81E09E67766770020C7E7A1
:10138000FFE70220C4E70000020010000000FFFF9A
:1013900010B586B0044614216846FFF793F8134948
:1013A0002068884220D112480021026842F00202DF
:1013B0000260006800F002000590C020009012203A
:1013C000CDE90101032003900420049069460948F7
:1013D000FFF77CFD06481030016841F40011016000
:1013E000006800F40010059006B010BD00540040E5
:1013F00030380240000402400248816802781144FB
:10140000816070472C0000200B4810B5016841F442
:1014100000710160016841F480610160016841F47C
:1014200080710160032000F061F80F2000F006F8E1
:1014300000F024F8002010BD003C024070B50D4DB6
:1014400004464FF47A712878B1FBF0F00A49096834
:10145000B1FBF0F000F0A2FB48B9102C07D200223B
:101460002146501E00F022F800206C6070BD012063
:1014700070BD00002C000020380000200A4808B58C
:10148000016841F480410160006800F480400090F0
:101490000548001F016841F080510160006800F0BC
:1014A0008050009008BD000044380240F0B40E4B5C
:1014B0001B680C46C3F30223C3F10705042D00D9B2
:1014C0000425191D072901D2002300E0DB1E012697
:1014D00006FA05F1491E214099409E40761E1640AD
:1014E0003143F0BC00F04BBF0CED00E0064900F0CA
:1014F000070208684FF6FF03184040EA0220034A3B
:1015000010430860704700000CED00E00000FA0591
:101510002DE9F0470E46050065D0DFF81481D8F8B4
:101520000000F7B200F00700B04207D288F8007060
:10153000D8F8000000F00700B04254D128683D4CB4
:10154000810712D5400703D5206840F4E0502060A1
:101550002878000703D5206840F4604020602068A8
:10156000A96820F0F000084320602878C0072DD03B
:10157000304968680839012812D0022813D003289E
:1015800011D00968890700292DDA216821F00301AB
:1015900001432160FFF79CFD814641F2883A0EE04D
:1015A00009688903EFE709688901ECE7FFF790FD17
:1015B000A0EB0901514502D90320BDE8F08720685E
:1015C000696800F00C00B0EB810FEFD1D8F8001083
:1015D000404601F00701B14207D90770006800F0EA
:1015E0000700B04201D00120E7E72878400705D581
:1015F0002068E96820F4E05008432060287800075C
:1016000006D52068296920F4604040EAC1002060C6
:1016100000F038F82168084AC1F30311515CC84052
:101620000649086006480068FFF708FF0020C4E785
:10163000003C024008380240202D000838000020FD
:10164000300000200448054900680968044AC1F3D5
:101650008221515CC84070473800002008380240A1
:10166000302D00080448054900680968044AC1F3A0
:101670004231515CC84070473800002008380240B1
:10168000302D0008154810B5006810F00C02144801
:1016900013D04110042A0FD0082A0ED10F4C241F5A
:1016A0002268236802F03F025B0207D52068C0F37E
:1016B0008810A0FB010106E0084610BD2168C1F3B7
:1016C0008811A1FB00010023FEF7DEFD2168C1F3B4
:1016D0000141491C4900B0FBF1F010BD083802403F
:1016E0000024F4002DE9F84F04006ED02078DFF8D4
:1016F0004C93C007A9F104054AD009F10400016820
:10170000C1F38101012908D00068C0F381000228DB
:101710000AD1D9F80000400206D52868800337D5E1
:1017200060680028E1D033E06068B0F5803F10D0F9
:10173000B0F5A02F286810D020F4803028602868E9
:1017400020F4802028606068A8B1FFF7C1FC06463D
:101750000DE0286840F48030F4E740F480202860F1
:10176000F7E700BFFFF7B4FC801B642873D8286834
:101770008003F7D50CE0FFF7ABFC064605E000BFA1
:10178000FFF7A6FC801B6428F0D828688003F7D4F4
:101790002078DFF8AC8280074FF0000A3ED5A748DA
:1017A000001D016811F00C0F08D00068C0F3810023
:1017B00002280BD1D9F80000400207D4286880071E
:1017C00016D5E068012800D112E033E1E068B8B135
:1017D0000120C8F80000FFF77BFC064605E000BFCB
:1017E000FFF776FC801B0228C0D828688007F7D551
:1017F0002868216920F0F80040EAC10028600DE067
:10180000C8F800A0FFF764FC064604E0FFF760FCA0
:10181000801B02281FD828688007F7D4207800078B
:1018200022D5864F87486169703771B10121016007
:10183000FFF74EFC064604E0FFF74AFC801B022837
:1018400009D838688007F7D50EE0C0F800A0FFF788
:101850003FFC064605E082E0FFF73AFC801B0228C9
:101860007DD838688007F7D42078400768D5DFF83E
:10187000CCB100270BF13C0BDBF80000C0000BD40F
:10188000DBF8001041F08051CBF80010DBF80000CD
:10189000012700F0805000906B4E3068C00510D4D6
:1018A000306840F480703060FFF712FC009005E073
:1018B000FFF70EFC0099401A022850D83068C00586
:1018C000F6D55E4EA0686C3601280FD0052830682A
:1018D00010D020F001003060306820F0040030604B
:1018E000A068B8B1FFF7F4FB00900FE0306840F05B
:1018F0000100F4E740F004003060F7E7FFF7E8FB91
:101900000099411A41F28830814266D830688007D8
:10191000F4D50EE0FFF7DCFB009007E0FFF7D8FB03
:101920000099411A41F28830814256D830688007C8
:10193000F4D42FB1DBF8001021F08051CBF8001067
:10194000A069C8B33D49091D0968C1F38101022995
:101950004AD00228504607D0C8F8600000E03CE0BA
:10196000FFF7B6FB04463BE04746C8F86000FFF7C8
:10197000AFFB064605E000BFFFF7AAFB801B02286D
:101980002BD828688001F7D4D4E907010843A16A5D
:101990002E4A490802EB0141626A41EA821108437A
:1019A00094F82C1040EA0161C9F800100120386653
:1019B000FFF78EFB044606E03EE000BFFFF788FB22
:1019C000001B022809D828688001F7D534E000BF41
:1019D000FFF77EFB001B022802D90320BDE8F88F29
:1019E00028688001F4D427E00128F7D0D9F8000056
:1019F000E26900F4800191421CD1226A00F03F01AB
:101A0000914217D147F6C071626A0140B1EB821F63
:101A100010D1A26A4FF0FF3300F4403103EB5202C1
:101A2000B1EB024F06D194F82C1000F07060B0EBCF
:101A3000016F01D00120D1E70020CFE70438024038
:101A400000004742800E4742007000400000FFFF48
:101A500070B5040009D0606A002540B12561656158
:101A6000A56294F8510040B10CE0012070BD60689F
:101A7000B0F5827FF4D0E561F2E784F8505020465B
:101A800000F044F8022084F851002068016821F039
:101A900040010160A088218900F4827001F40441B2
:101AA0000843A18901F400610843217C01F002018F
:101AB0000843217D01F001010843218B01F40071ED
:101AC0000843217F01F03801084394F8201001F009
:101AD00080010843218D01F400510843216808600A
:101AE000A069042101EA104094F8241001F01001CB
:101AF0000843216848602068C16921F40061C16120
:101B00006565012084F85100002070BDF0B587B0F4
:101B1000044614216846FEF7D5FC1C49206888421B
:101B200032D11B480024016841F480410160006803
:101B300000F48040059016481038016841F0040117
:101B40000160016801F004010591016841F00201A2
:101B500001600068022500F0020005900C20CDE92C
:101B6000000502AA0326052782E8D0006946094835
:101B7000FFF7ACF96802CDE9000502AA694682E8E0
:101B8000D0000548FFF7A2F907B0F0BD00380040CB
:101B900040380240000802400004024010B5401ED8
:101BA000B0F1807F01D3012010BD4FF0E0246061CF
:101BB0000F21601700F0E3FB0020A06107202061E7
:101BC000002010BD70B5040004D094F83D0000253D
:101BD00010B106E0012070BD84F83C50204600F0B2
:101BE00023F8242084F83D002068C16821F40051C6
:101BF000C160204600F000FB2068016921F490419B
:101C000001612068416921F02A0141612068C168B1
:101C100041F40051C1602564202084F83D0084F81F
:101C20003E00002070BD000010B586B004461421AF
:101C30006846FEF747FC13492068884220D11248C5
:101C40000021026842F400320260006800F40030B3
:101C500005900D481038026842F0010202600068E9
:101C600000F0010005900C2000900220CDE9010158
:101C7000032003900720049069460448FFF726F9E3
:101C800006B010BD00440040403802400000024051
:101C90002DE9F843044690F83D001F4616460D46D0
:101CA00020284CD1C5B1BEB194F83C00012846D0E3
:101CB000012084F83C004FF00008C4F84080212047
:101CC00084F83D00FFF704FAA6848146E684A06804
:101CD000B0F5805F03D004E00120BDE8F8832069FF
:101CE00028B12E465FF0000584F83C800EE0002607
:101CF000FAE78021204600F005FBA0B9AEB116F846
:101D0000010B21684860E08C401EE084E08C4B466B
:101D10004FF0000200970028EBD14FF04001204621
:101D200000F0F0FA30B10320D7E735F8020BC0F32A
:101D30000800E6E7202084F83D000020CDE70220DF
:101D4000CBE7FEE701684A69D24352050FD46FF42E
:101D500080624A61002140F8301F20224273817363
:101D6000026942F004020261017301207047002001
:101D700070470000F8B50446C06A1E460D46174677
:101D8000082807D0012805D010F5803F02D0206B2D
:101D9000122804D12068016841F480710160134663
:101DA00000224FF001112046009600F057F840B194
:101DB00020680068C00502D54FF40070206403203D
:101DC000F8BD2069B0F5804F0ED00620216800EAEA
:101DD000D51040F0F000086133463A460B492046E2
:101DE00000F070F878B902E005F0FE0000E0E8B21B
:101DF00021680861054933463A46891F204600F0AC
:101E000061F80028DCD00120F8BD000008000100C6
:101E100070B516460D4604460DE02046FFF792FFCA
:101E200008B1012070BD681C05D0FFF751F9801B77
:101E3000A84207D835B120684069C0434007ECD4B8
:101E4000002070BD002044F8300F20216173A07382
:101E5000216941F0200121612073E2E72DE9F0477B
:101E60001E4690460D460446C1F30747DDF8209014
:101E700008E0701C06D0FFF72BF9A0EB0900B04278
:101E80000FD876B12068012F18D0806925EA0000AC
:101E90000004000C14D000214145EAD00020BDE828
:101EA000F087002044F8300F20216173A07321696E
:101EB00041F02001216120730120F0E74069E5E74E
:101EC0000121E9E72DE9F0479A4691460E4604467E
:101ED00000254FF02008C1F3074725E0206840693E
:101EE000C043400514D42068016841F400710160CA
:101EF00021686FF480604861256384F83D8084F830
:101F00003E50206C40F00400206484F83C501FE0F8
:101F1000B9F1FF3F08D0FFF7DBF8A0EB0A01494514
:101F20000CD8B9F1000F09D02068012F13D08069B7
:101F300026EA00000004000C0BD0CFE744F8305F25
:101F400084F80D80A573206940F02000206125737E
:101F50000120BDE8F0874069EAE770B516460D46F6
:101F600004460DE02046FFF7EDFE08B1012070BDEC
:101F7000681C05D0FFF7ACF8801BA84207D835B124
:101F800020684069C0430006ECD4002070BD0020EA
:101F900044F8300F20216173A073216941F02001C2
:101FA00021612073E2E7000007490968C9070AD0E8
:101FB000054980390968C90705D04FF060410A68B2
:101FC000002AFCD008707047800E00E0F0B587B0A2
:101FD00014216846FEF776FA29480024016841F08A
:101FE00080010160016801F080010591016841F004
:101FF00004010160016801F004010591016841F0EC
:1020000001010160016801F001010591016841F0E1
:1020100002010160016801F002010591016841F0CF
:10202000080101600068174E00F0080005900122C9
:10203000C0213046FFF747F8134F0122F021384600
:10204000FFF741F8C0200125CDE900050320CDE9C7
:10205000024069463046FEF739FF0F208DE8310017
:1020600069463846FEF732FFF0200090CDE9015472
:10207000694638460394FEF729FF07B0F0BD00001B
:102080003038024000000240000C02400D4810B5FC
:102090000B4901600C49416000214FF4804281608E
:1020A000C0E9031241618161C1610162FFF716F865
:1020B000002803D0BDE81040FEF7F4BE10BD0000BC
:1020C0000054004064000020A08601000F4810B5B5
:1020D0000D4901604FF48271416000218160C1604F
:1020E0004FF400720161C0E90512C16101624162F1
:1020F00081620A21C162FFF7ABFC002803D0BDE872
:102100001040FEF7CFBE10BD00380040B8000020E0
:102110000C4810B50A4901604FF4E13141600021DB
:1021200081600C22C160C0E904128161C161FFF7C6
:1021300049FD002803D0BDE81040FEF7B3BE10BD36
:102140000044004010010020FEE7FEE770477047A2
:10215000FFF752B930B593B030216846FEF7B2F9B7
:1021600014210CA8FEF7AEF91D480025016841F0C6
:1021700080510160006800F080501190194801689A
:1021800041F4804101600068022400F48040119015
:1021900001200090000401908001CDE9064008AACA
:1021A0000420A82182E813000B906846FFF79AFAF2
:1021B00008B172B6FEE70CA90F2081E831004FF498
:1021C000A0500F904FF48050109005210CA8FFF7FD
:1021D0009FF9002801D072B6FEE713B030BD0000B1
:1021E00040380240007000400248016841F470012C
:1021F0000160704788ED00E070B504460068016931
:10220000E26821F44051114301612169A068E2694B
:1022100008436169114308432168CA6849F20C63A5
:102220009A430243CA6020684169A26921F440715F
:102230001143416131492068884202D030498842C7
:1022400002D1FFF70FFA01E0FFF7FCF9E269002382
:10225000192164253226B2F5004F626828D0A0FB10
:102260000101930F9200FEF70FF80146B0FBF5F065
:102270006FF01802504301EB800006EB0010B0FB3A
:10228000F5F000F0F002B1FBF5F002EB0012B1FB4B
:10229000F5F06FF01803584301EB800006EB0010D7
:1022A000B0FBF5F000F00F0021681044886070BDAD
:1022B000A0FB010192185B41FDF7E6FF0146B0FB70
:1022C000F5F00201B1FBF5F06FF01803584301EB94
:1022D000800006EBC000B0FBF5F000F0F80002EB68
:1022E0004002B1FBF5F0584301EB800006EBC00063
:1022F000B0FBF5F000F00700D6E700000010014049
:10230000001401402DE9F041984617460E46044658
:10231000069D27E0681C25D02DB1FEF7D9FEA0EB65
:102320000800A8421ED920680C3050E8001F21F494
:10233000D07140E80012002AF5D12068143050E82E
:10234000001F21F0010140E80012002AF5D12020F1
:1023500084F83D0084F83E00002084F83C0003200F
:10236000BDE8F0812068006836EA000004D0002053
:10237000B842CFD00020F3E70120F9E7FEE70907D4
:10238000090E002804DB00F1E02080F800147047FB
:1023900000F00F0000F1E02080F8141D70476FF48A
:1023A0000041401804D0012803D0022801D00814AD
:1023B0007047002070476FF40041401800D00020A3
:1023C00070476FF40041401805D0012802D0022860
:1023D00001D00020704701207047000070B5040054
:1023E0004FF0FF3511D020783A280ED10CA12046AD
:1023F000FEF790F858B10CA12046FEF78BF848B1D3
:102400000BA12046FEF786F838B1284670BD48F289
:10241000010070BD48F2020070BD48F2030070BDBB
:102420003A535444494E00003A5354444F555400D3
:102430003A535444455252004FF0FF30704710B5A4
:102440000C466FF40041411813464FF0FF3013D093
:10245000012902D002290FD106E063B114F8010B63
:10246000FFF7A2FD5B1EF8E72BB114F8010BFFF795
:102470009BFD5B1EF8E7002010BD00002DE9F8432E
:1024800006460120424C00252F466076814617E023
:1024900004EB050884F8199098F8060000902A4685
:1024A000635D11463BA0FDF767FF615D98F806008C
:1024B000814204D046A0FDF75FFF677606E06D1C01
:1024C0003068A842E4DC607E012801D0002521E0CC
:1024D0000021012000F03AFA44A000F08BFA48A055
:1024E00028E000BF04EB050884F8199098F80C0068
:1024F00000902A46635D114647A0FDF73DFF615DF0
:1025000098F80C00814204D052A0FDF735FF6776A1
:1025100006E06D1C3068A842E4DC607E012801D032
:10252000002523E00021012000F010FA50A000F067
:1025300061FA54A0FDF720FF1EE000BF04EB050880
:1025400084F8199098F8120000902A46635D1146AD
:1025500052A0FDF711FF615D98F81200814204D08E
:102560005DA0FDF709FF677606E06D1C3068A842A4
:10257000E4DC607E012802D0607EBDE8F8830021A3
:10258000012000F0E3F95BA000F034FA5EA0D1E78F
:1025900048000020736D617274686F6D652E706104
:1025A0007373776F72645B25645D213D736D617237
:1025B00074686F6D652E757365725B305D5B256445
:1025C0005D203E202564203A202564200D0A00006D
:1025D000557373657220313A20536169696969697D
:1025E0006969696969200D0A000000005573657208
:1025F00020313A204F4B20202020202020000000B6
:102600005573657220313A204F4B20202020202026
:1026100020200D0A00000000736D617274686F6DF8
:10262000652E70617373776F72645B25645D213D05
:10263000736D617274686F6D652E757365725B3151
:102640005D5B25645D203E202564203A20256420C2
:102650000D0A0000557373657220323A2053616988
:10266000696969696969696969200D0A0000000082
:102670005573657220323A204F4B202020202020B5
:10268000200000005573657220323A204F4B202005
:102690002020202020200D0A00000000736D6172B0
:1026A00074686F6D652E70617373776F72645B25EC
:1026B000645D213D736D617274686F6D652E757315
:1026C00065725B325D5B25645D203E202564203AA7
:1026D000202564200D0A0000557373657220333A7B
:1026E00020536169696969696969696969200D0AC5
:1026F000000000005573657220333A204F4B2020B4
:1027000020202020200000005573657220333A20DD
:102710004F4B20202020202020200D0A0000000008
:102720002DE9F843002031223223374C332521187C
:10273000401C8A710B738D740628F8DB0026334D1C
:102740004FF47A774FF4FA78009657E00021084664
:1027500000F0FCF82EA000F04DF90F2000F00AF96F
:102760000120009900F0F2F800F084FA2870303867
:102770000A280ED2009806280BDA244929A0FDF772
:10278000FBFD00992878605400F014F90098401C73
:102790000090009803282EDD287823282BD126A02E
:1027A000FDF7EAFD6846FFF769FE58B10120607643
:1027B00026763846FEF778FB00F078F84046FEF7BC
:1027C00073FB1EE022A0FDF7D7FD0021012000963B
:1027D00000F0BCF824A000F00DF93846FEF764FBC9
:1027E0000021012000F0B2F825A000F003F94046D6
:1027F000FEF75AFB66766420FEF756FB207E012822
:10280000A4D0607EBDE8F8834800002000000020CE
:102810004E686170206D6174206B686175202D3E7B
:10282000202300004B65794E756D6265723A202554
:1028300073200D0A000000004B69656D2074726101
:10284000206D6174206B686175200D0A0000000026
:102850005041535320557365723A204E4720202033
:1028600020202020200D0A0050415353205573652D
:10287000723A204E47202020202020200000000017
:102880002020202020202020202020202020202048
:102890002000000013B54FF0FF33012269460248C3
:1028A000FFF7F6F900981CBD1001002010B580203C
:1028B00000F060F80024202000F07CF8641C502C0C
:1028C000F9DB10BD10B53220FEF7EEFA302000F033
:1028D00051F80520FEF7E8FA302000F04BF801200F
:1028E000FEF7E2FA302000F045F80A20FEF7DCFAA5
:1028F000202000F03FF80A20FEF7D6FA282000F04A
:1029000039F80120FEF7D0FA082000F033F8012052
:10291000FEF7CAFA012000F02DF80120FEF7C4FAF4
:102920000120FEF7C1FA062000F024F80120FEF78E
:10293000BBFA0C2000F01EF80520FEF7B5FAFFF7F1
:10294000B5FFBDE810406420FEF7AEBA802230B17A
:10295000012809D0022809D0032802D108E041F05B
:102960008002D0B200F006B84031F8E71431F6E743
:102970005431F4E71CB500F0F00141F00C028DF881
:10298000042041F0080100018DF8051040F00C0111
:102990008DF8061040F008008DF8070064200090C4
:1029A000042301AA4E210248FEF75CFC1CBD000076
:1029B000640000201CB500F0F00141F00D028DF81C
:1029C000042041F0090100018DF8051040F00D01CF
:1029D0008DF8061040F009008DF807006420009083
:1029E000042301AA4E210248FEF73CFC1CBD000056
:1029F0006400002010B5044602E0641CFFF7DAFF13
:102A000020780028F9D110BDFEF7FEFCFFF7A2FBED
:102A1000FFF7DCFAFFF73AFBFFF77AFBFFF756FB0D
:102A2000FFF750FF484D494E494C00BF00F022F9D6
:102A3000A0F1300128700A2904D2434945A0FDF7CE
:102A40009BFC28E0202826D03F4947A0FDF794FCB6
:102A50002878412806D042280AD043280ED044289E
:102A600012D018E0FFF722FF0120207643A010E0EB
:102A7000FFF71CFF0220207648A00AE0FFF716FFB0
:102A8000032020764CA004E0FFF710FF07202076FB
:102A900052A0FDF771FC207E80B1012830D00228C1
:102AA000C4D00328C2D00728C0D1FFF70BFF0020F5
:102AB00020764FF4FA70FEF7F7F9B7E700210846E1
:102AC000FFF744FF4DA0FFF795FF00210120FFF71E
:102AD0003DFF4EA0FFF78EFF00210220FFF736FFDB
:102AE0004DA0FFF787FF00210320FFF72FFF4FA026
:102AF000FFF780FF012240213046FEF7E4FA95E718
:102B0000FFF70EFE01464DA0FDF736FCFFF708FE6D
:102B100001288BD1002240213046FEF7D4FA002153
:102B20000846FFF713FF4BA0FFF764FF00210120C9
:102B3000FFF70CFF4BA0FFF75DFF41F28830FEF777
:102B4000B3F9FFF7B3FE71E7000000200000024078
:102B5000480000204B65794E756D6265723A2025FC
:102B600073200D0A000000004B657946756E637492
:102B7000696F6E3A202573200D0A0000736D617233
:102B800074686F6D652E6D6F64653A204D6F646576
:102B90005F4B6579706164200D0A0000736D61728E
:102BA00074686F6D652E6D6F64653A204D6F646556
:102BB0005F4E4643200D0A00736D617274686F6D3D
:102BC000652E6D6F64653A204D6F64655F46696E72
:102BD0006765727072696E74200D0A00736D6172A0
:102BE00074686F6D652E6D6F64653A204D6F646516
:102BF0005F44656C657465200D0A0000413A204D04
:102C00006F64655F4B65797061640000423A204DE6
:102C10006F64655F4E464300433A204D6F64655FC5
:102C200046696E6765727072696E7400443A204D31
:102C30006F64655F44656C6574650000537461740E
:102C40007573206D6F206375613A202564200D0A2D
:102C5000000000004D6F64655F4B65797061643AF8
:102C6000000000004F70656E20446F6F72203520A9
:102C7000536563002DE9FF47204B214E00240FCB05
:102C80008DE80F0006F11707A6F1040906F1070801
:102C900019F8041058F824000022FEF714FA002551
:102CA000715D57F82500FEF709FA80B16D1C042DFF
:102CB000F6DB19F8041058F824000122FEF703FA95
:102CC000641C042CE4DB202004B0BDE8F087142051
:102CD000FEF7EAF8715D57F82500FEF7EFF90028D6
:102CE000F8D019F8041058F824000122FEF7EBF987
:102CF000684600EB8400405DE6E70000102D000808
:102D0000050000204FF04070E1EE100A704700000F
:102D10003132334134353642373839432A3023444F
:102D2000000000000000000001020304060708097B
:102D300000000000010203043A535444494E003A93
:102D40005354444F5554003A535444455252000092
:102D5000702D00080000002048000000C401000899
:102D6000B82D00084800002068080000E0010008B5
:102D7000001020408001020408000000000C024006
:102D8000000C0240000C0240000C0240000C02400B
:102D9000000C0240000C0240000C02400100000048
:102DA00010000000000000000024F40000000000FB
:082DB00000000000000000001B
:040000050800018965
:00000001FF
