:020000040800F2
:1000000018070020390200086B1500083912000893
:10001000691500087F060008191600080000000096
:100020000000000000000000000000006F15000844
:1000300081060008000000006D1500087115000819
:10004000530200085302000853020008530200083C
:10005000530200085302000853020008530200082C
:10006000530200085302000853020008530200081C
:10007000530200085302000853020008530200080C
:1000800053020008530200085302000853020008FC
:1000900053020008530200085302000853020008EC
:1000A00053020008530200085302000853020008DC
:1000B00053020008530200085302000853020008CC
:1000C00053020008530200085302000853020008BC
:1000D00053020008530200085302000853020008AC
:1000E000530200085302000853020008530200089C
:1000F000530200085302000853020008530200088C
:10010000530200085302000853020008530200087B
:10011000530200085302000853020008530200086B
:10012000530200085302000853020008530200085B
:10013000530200085302000853020008530200084B
:10014000530200085302000853020008530200083B
:10015000530200085302000853020008530200082B
:10016000530200085302000853020008530200081B
:100170005302000853020008530200080000000068
:10018000530200085302000800F002F800F044F89F
:100190000AA090E8000C82448344AAF10107DA45E2
:1001A00001D100F039F8AFF2090EBAE80F0013F0F0
:1001B000010F18BFFB1A43F0010318474C19000048
:1001C0006C190000103A24BF78C878C1FAD85207D9
:1001D00024BF30C830C144BF04680C6070470000C1
:1001E0000023002400250026103A28BF78C1FBD840
:1001F000520728BF30C148BF0B607047642900F028
:10020000FB80782900F03481002070471FB501F091
:100210004DFC1FBD10B510BD00F0F7F91146FFF7FA
:10022000F5FF01F0B9FA00F015FA03B4FFF7F2FF99
:1002300003BC00F01DFA0000094880470948004748
:10024000FEE7FEE7FEE7FEE7FEE7FEE7FEE7FEE786
:10025000FEE7FEE704480549054A064B70470000E3
:10026000091600088901000818010020180700205D
:10027000180300201803002053EA020C00F06980E4
:100280002DE9F04B4FF00006002B1FBFB3FA83F5AA
:1002900003FA05F424FA05F65E4012BF1643B2FADB
:1002A00082F502FA05F4C5F120051EBF22FA05FC0D
:1002B00044EA0C04203556EA044C4FEA144418BFB3
:1002C000641C4FF000084FF00009904271EB030CE2
:1002D00039D3002919BFB1FA81F701FA07F6B0FA4C
:1002E00080F700FA07F6C7F120071EBF20FA07FCC7
:1002F00046EA0C062037B6FBF4FCA7EB0507103FD7
:1003000007F01F0BCBF120060CFA0BFB2CFA06F6BC
:1003100044BFB3460026202FA4BF5E464FF0000B1B
:100320005BEA060C08BF4FF0010B19EB0B09ABFBA6
:10033000027C48EB0608C01B06FB02CC0BFB03CC7F
:1003400071EB0C01C1E70B46024641464846BDE849
:10035000F08B13B54FF000004FF00001AFF30080B9
:10036000BDE81C40704700000FB41CB5074B06AA3F
:100370007B4469460090059800F02FF900206946FB
:1003800000F03EF91CBC5DF814FB00008D0200007B
:100390002DE9F0410E460446002020622046E16827
:1003A000884730B3252805D0D4E901219047206A39
:1003B000401CF2E7E168204600278847050018D076
:1003C000A5F14100192802D820354FF400673246C4
:1003D000294620462760FFF711FF40B1012804D0CD
:1003E000F61D26F007060836D8E7361DD6E728465C
:1003F000DAE7206ABDE8F0812DE9F04106460024E5
:1004000010687529314616A510D0AFF3008000287A
:1004100002DA404213A507E031688A0701D512A528
:1004200002E0490704D511A5012401E0AFF30080E3
:1004300000210A2206F1240709E0B0FBF2FCB0FB20
:10044000F2F302FB1C00303078541846491C002897
:10045000F3D123462A463046BDE8F04100F05EB8AD
:10046000000000002D0000002B0000002000000014
:1004700070B504460D4621461068AFF30080218810
:10048000090502D50F4A7A4402E00E4A7A440E3238
:10049000002104F1240305E000F00F060009965D39
:1004A0005E54491C0028F7D120780023000704D5AA
:1004B000702D02D009B1022311322046BDE87040F0
:1004C00000F02CB8561600004FF0000200B513469D
:1004D00094469646203922BFA0E80C50A0E80C5064
:1004E000B1F12001BFF4F7AF090728BFA0E80C5015
:1004F00048BF0CC05DF804EB890028BF40F8042B0E
:1005000008BF704748BF20F8022B11F0804F18BF7A
:1005100000F8012B70477047704770472DE9F0478E
:100520000D4699469246044600F124080168880663
:1005300004D5E06921F01001216000E00120A8420B
:1005400001DD471B00E00027A1697A1902EB0900D1
:10055000081AA0612078C00602D42046AFF30080BC
:10056000002608E0D4E901211AF806009047206A25
:10057000401C761C20624E45F4DB2078C0060AD56C
:100580002046AFF3008006E0D4E9012130209047F7
:10059000206A401C2062381EA7F10107F4DC07E046
:1005A000D4E9012118F805009047206A401C206218
:1005B000281EA5F10105F3DC2046AFF3008020786A
:1005C000000602D50220BDE8F0870120FBE700000D
:1005D00001694A1C02610878704700B58FB0CDE907
:1005E00001310021059105497944CDE903101146F7
:1005F0006846FFF7CDFE0FB000BD0000E5FFFFFF2E
:100600000A6802F8010B0A607047754600F02CF882
:10061000AE4605006946534620F00700854618B0EF
:1006200020B5FFF717FEBDE820404FF000064FF061
:1006300000074FF000084FF0000B21F00701AC4617
:10064000ACE8C009ACE8C009ACE8C009ACE8C00936
:100650008D46704710B50446AFF300802046BDE8D4
:100660001040FFF7E2BD000000487047B8000020CE
:1006700001491820ABBEFEE7260002007047FEE7E6
:10068000704772B6FEE7000070B5044600F010F93E
:100690000546601C02D004480078044400F008F9C4
:1006A000401BA042FAD370BD540000202DE9F84F42
:1006B000DFF8BCA10022012503264FF00F090AF143
:1006C000040BAAF1040E00BF0B6805FA02F42340E4
:1006D000A34270D10F7907F00307012F01D0022F39
:1006E00016D187684FEA420806FA08FC27EA0C0789
:1006F000D1F80CC00CFA08FC4CEA070CC0F808C092
:100700004768A7430C79C4F3001494403C43446009
:100710000C79E443A4070AD0C4684FEA420C06FAF5
:100720000CF7BC438F6807FA0CF72743C7600C79B6
:1007300004F00304022C12D1D40800EB840CDCF882
:1007400020405707FF0E09FA07F824EA0804D1F8F9
:10075000108008FA07F848EA0408CCF820800468FA
:100760004FEA420C06FA0CF7BC430F7907F0030777
:1007700007FA0CF7274307604C6814F4403F70D029
:100780003C4C276847F480472760246822F0030721
:1007900004F480440094384C07EB040CDCF808485F
:1007A00097074FEA177809FA08F7BC43334FB84266
:1007B00002D1002724E054E0314FB84201D1012793
:1007C0001EE0304FB84201D1022719E02E4FB84247
:1007D00001D1032714E02D4FB84201D104270FE0C7
:1007E0002B4FB84201D105270AE02A4FB84201D168
:1007F000062705E0284FB84201D1072700E0082767
:1008000007FA08F72743CCF80878DAF8004057468B
:10081000D1F804C09C435FEACC2C00D51C433C605B
:10082000DBF800405F46D1F804C09C435FEA8C2CA3
:1008300000D51C433C60DEF800407746D1F804C088
:100840009C435FEA8C3C00D51C433C60084F083F4A
:100850003C68D1F804C09C435FEACC3C00D51C4303
:100860003C60521C102AFFF42FAFBDE8F88F000047
:10087000083C014044380240003001400000024082
:100880000004024000080240000C02400010024038
:100890000014024000180240001C02400069084099
:1008A00000D0012070470AB1816170470904FBE75D
:1008B00001488068704700005400002070B50400B3
:1008C00025D094F83D00002520B984F83C502046FE
:1008D00000F04EF9242084F83D002068016821F0E2
:1008E000010101602068016841F400410160206855
:1008F000016821F40041016000F094FA4D4A6168FA
:10090000914201D84C4900E04C49884201D2012073
:1009100070BD4B492368B0FBF1F15E6826F03F06DD
:100920000E435E606368934206D94FF49673594351
:100930004FF47A73B1FBF3F12368491C1E6A26F069
:100940003F06314319626168914210D84900401E48
:10095000B0FBF1F2521CC2F30B02042A01D20420B4
:1009600022E0B0FBF1F0401CC0F30B001CE0A268D9
:10097000F2B301EBC10303EB0116431EB3FBF6F325
:100980005B1C43F480431B0549D092B301EBC102C9
:1009900002EB0111401EB0FBF1F0401CC0F30B0054
:1009A00040F4804040F400402168CA694CF6FF736F
:1009B0009A431043C861D4E90710014320680268D4
:1009C00022F0C00211430160D4E903010143206811
:1009D000826848F2FF339A4311438160D4E90501EC
:1009E00008432168CA6822F0FF021043C86001E092
:1009F0000EE016E02068016841F001010160256405
:100A0000202084F83D00256384F83E50002070BD0E
:100A100001EB4106431EB3FBF6F35B1CB3E7012079
:100A2000C2E701EB4101401EB0FBF1F0401CC0F3F6
:100A30000B00B7E7A086010080841E0000093D007E
:100A400040420F002DE9F84F1F4690468A46044663
:100A5000DDF82890FFF72CFF054694F83D0020288C
:100A60007FD11923012240492046009500F070FCF7
:100A7000002876D194F83C00012872D0012084F837
:100A80003C0020680168C90703D1016841F00101F9
:100A900001602068016821F400610160212084F870
:100AA0003D00102084F83E0000262664C4F824800F
:100AB0006785608D20852D48E0622B464A46514669
:100AC000204600F0D1FB90B9206841698069009010
:100AD00036E02A464946204600F0B9FC50B1206C69
:100AE000042804D12068016841F4007101600120EC
:100AF000BDE8F88F606A216800780861606A401C70
:100B00006062618D491E6185218D491E89B22185F2
:100B100022685369DB435B070BD451B10078106145
:100B2000606A401C6062608D401E6085208D401EA2
:100B300020852A464946204600F0E4FB0028CED115
:100B4000208D0028C5D154F83D0B016841F4007197
:100B50000160202004F81E09E67766770020C7E7C9
:100B6000FFE70220C4E70000020010000000FFFFC2
:100B700010B586B0044614216846FFF7A5FC13495A
:100B80002068884220D112480021026842F0020207
:100B90000260006800F002000590C0200090122062
:100BA000CDE901010320039004200490694609481F
:100BB000FFF77CFD06481030016841F40011016028
:100BC000006800F40010059006B010BD005400400D
:100BD0003038024000040240024881680278114423
:100BE00081607047540000200B4810B5016841F443
:100BF00000710160016841F480610160016841F4A5
:100C000080710160032000F061F80F2000F006F809
:100C100000F024F8002010BD003C024070B50D4DDE
:100C200004464FF47A712878B1FBF0F00A4909685C
:100C3000B1FBF0F000F0ECFA48B9102C07D200221A
:100C40002146501E00F022F800206C6070BD01208B
:100C500070BD000054000020600000200A4808B564
:100C6000016841F480410160006800F48040009018
:100C70000548001F016841F080510160006800F0E4
:100C80008050009008BD000044380240F0B40E4B84
:100C90001B680C46C3F30223C3F10705042D00D9DA
:100CA0000425191D072901D2002300E0DB1E0126BF
:100CB00006FA05F1491E214099409E40761E1640D5
:100CC0003143F0BC00F0A9BC0CED00E0064900F097
:100CD000070208684FF6FF03184040EA0220034A63
:100CE00010430860704700000CED00E00000FA05BA
:100CF0002DE9F0470E46050065D0DFF81481D8F8DD
:100D00000000F7B200F00700B04207D288F8007088
:100D1000D8F8000000F00700B04254D128683D4CDC
:100D2000810712D5400703D5206840F4E0502060C9
:100D30002878000703D5206840F4604020602068D0
:100D4000A96820F0F000084320602878C0072DD063
:100D5000304968680839012812D0022813D00328C6
:100D600011D00968890700292DDA216821F00301D3
:100D700001432160FFF79CFD814641F2883A0EE075
:100D800009688903EFE709688901ECE7FFF790FD3F
:100D9000A0EB0901514502D90320BDE8F087206886
:100DA000696800F00C00B0EB810FEFD1D8F80010AB
:100DB000404601F00701B14207D90770006800F012
:100DC0000700B04201D00120E7E72878400705D5A9
:100DD0002068E96820F4E050084320602878000784
:100DE00006D52068296920F4604040EAC1002060EF
:100DF00000F028F82168084AC1F30311515CC8408B
:100E00000649086006480068FFF708FF0020C4E7AD
:100E1000003C024008380240C81A00086000002068
:100E2000580000200448054900680968044AC1F3D5
:100E30008221515CC84070476000002008380240A1
:100E4000D81A0008154810B5006810F00C021448B4
:100E500013D04110042A0FD0082A0ED10F4C241FA2
:100E60002268236802F03F025B0207D52068C0F3C6
:100E70008810A0FB010106E0084610BD2168C1F3FF
:100E80008811A1FB00010023FFF7F6F92168C1F3E7
:100E90000141491C4900B0FBF1F010BD0838024087
:100EA0000024F4002DE9F84F04006ED02078DFF81C
:100EB0004C93C007A9F104054AD009F10400016868
:100EC000C1F38101012908D00068C0F38100022824
:100ED0000AD1D9F80000400206D52868800337D52A
:100EE00060680028E1D033E06068B0F5803F10D042
:100EF000B0F5A02F286810D020F480302860286832
:100F000020F4802028606068A8B1FFF7D1FC064675
:100F10000DE0286840F48030F4E740F48020286039
:100F2000F7E700BFFFF7C4FC801B642873D828686C
:100F30008003F7D50CE0FFF7BBFC064605E000BFD9
:100F4000FFF7B6FC801B6428F0D828688003F7D42C
:100F50002078DFF8AC8280074FF0000A3ED5A74822
:100F6000001D016811F00C0F08D00068C0F381006B
:100F700002280BD1D9F80000400207D42868800766
:100F800016D5E068012800D112E033E1E068B8B17D
:100F90000120C8F80000FFF78BFC064605E000BF03
:100FA000FFF786FC801B0228C0D828688007F7D589
:100FB0002868216920F0F80040EAC10028600DE0AF
:100FC000C8F800A0FFF774FC064604E0FFF770FCC9
:100FD000801B02281FD828688007F7D420780007D4
:100FE00022D5864F87486169703771B10121016050
:100FF000FFF75EFC064604E0FFF75AFC801B022860
:1010000009D838688007F7D50EE0C0F800A0FFF7D0
:101010004FFC064605E082E0FFF74AFC801B0228F1
:101020007DD838688007F7D42078400768D5DFF886
:10103000CCB100270BF13C0BDBF80000C0000BD457
:10104000DBF8001041F08051CBF80010DBF8000015
:10105000012700F0805000906B4E3068C00510D41E
:10106000306840F480703060FFF722FC009005E0AB
:10107000FFF71EFC0099401A022850D83068C005BE
:10108000F6D55E4EA0686C3601280FD00528306872
:1010900010D020F001003060306820F00400306093
:1010A000A068B8B1FFF704FC00900FE0306840F092
:1010B0000100F4E740F004003060F7E7FFF7F8FBC9
:1010C0000099411A41F28830814266D83068800721
:1010D000F4D50EE0FFF7ECFB009007E0FFF7E8FB2C
:1010E0000099411A41F28830814256D83068800711
:1010F000F4D42FB1DBF8001021F08051CBF80010B0
:10110000A069C8B33D49091D0968C1F381010229DD
:101110004AD00228504607D0C8F8600000E03CE002
:10112000FFF7C6FB04463BE04746C8F86000FFF700
:10113000BFFB064605E000BFFFF7BAFB801B022895
:101140002BD828688001F7D4D4E907010843A16AA5
:101150002E4A490802EB0141626A41EA82110843C2
:1011600094F82C1040EA0161C9F80010012038669B
:10117000FFF79EFB044606E03EE000BFFFF798FB4A
:10118000001B022809D828688001F7D534E000BF89
:10119000FFF78EFB001B022802D90320BDE8F88F61
:1011A00028688001F4D427E00128F7D0D9F800009E
:1011B000E26900F4800191421CD1226A00F03F01F3
:1011C000914217D147F6C071626A0140B1EB821FAC
:1011D00010D1A26A4FF0FF3300F4403103EB52020A
:1011E000B1EB024F06D194F82C1000F07060B0EB18
:1011F000016F01D00120D1E70020CFE70438024081
:1012000000004742800E4742007000400000FFFF90
:1012100010B5401EB0F1807F01D3012010BD4FF00A
:10122000E02460610F21601700F0F7F90020A06151
:1012300007202061002010BDFEE701684A69D24303
:1012400052050FD46FF480624A61002140F8301FCC
:10125000202242738173026942F004020261017329
:101260000120704700207047F8B50446C06A1E464A
:101270000D461746082807D0012805D010F5803FF5
:1012800002D0206B122804D12068016841F48071DB
:101290000160134600224FF001112046009600F035
:1012A00057F840B120680068C00502D54FF40070BF
:1012B00020640320F8BD2069B0F5804F0ED00620D1
:1012C000216800EAD51040F0F000086133463A4644
:1012D0000B49204600F070F878B902E005F0FE00F6
:1012E00000E0E8B221680861054933463A46891FA3
:1012F000204600F061F80028DCD00120F8BD000095
:101300000800010070B516460D4604460DE0204663
:10131000FFF793FF08B1012070BD681C05D0FFF7EF
:10132000C7FA801BA84207D835B120684069C0437E
:101330004007ECD4002070BD002044F8300F20217D
:101340006173A073216941F0200121612073E2E7FC
:101350002DE9F0471E4690460D460446C1F3074767
:10136000DDF8209008E0701C06D0FFF7A1FAA0EB92
:101370000900B0420FD876B12068012F18D08069DB
:1013800025EA00000004000C14D000214145EAD0F9
:101390000020BDE8F087002044F8300F2021617361
:1013A000A073216941F02001216120730120F0E741
:1013B0004069E5E70121E9E72DE9F0479A469146C2
:1013C0000E46044600254FF02008C1F3074725E0EC
:1013D00020684069C043400514D42068016841F486
:1013E0000071016021686FF480604861256384F8B2
:1013F0003D8084F83E50206C40F00400206484F866
:101400003C501FE0B9F1FF3F08D0FFF751FAA0EBC5
:101410000A0149450CD8B9F1000F09D02068012F05
:1014200013D0806926EA00000004000C0BD0CFE73F
:1014300044F8305F84F80D80A573206940F02000E7
:10144000206125730120BDE8F0874069EAE770B5A7
:1014500016460D4604460DE02046FFF7EEFE08B1A5
:10146000012070BD681C05D0FFF722FA801BA8423E
:1014700007D835B120684069C0430006ECD400208D
:1014800070BD002044F8300F20216173A0732169E2
:1014900041F0200121612073E2E7000070B586B0C1
:1014A00014216846FFF710F81D480024016841F038
:1014B00080010160016801F080010591016841F03F
:1014C00001010160016801F001010591016841F02D
:1014D00008010160016801F008010591016841F00F
:1014E0000201016000680F4E00F002000590012229
:1014F000F0213046FFF7D7F90F2001258DE83100A4
:1015000069463046FFF7D2F8F0200090CDE901544B
:10151000694630460394FFF7C9F806B070BD000075
:1015200030380240000C02400D4810B50B490160F4
:101530000C49416000214FF480428160C0E90312F0
:1015400041618161C1610162FFF7B8F9002803D0F0
:10155000BDE81040FFF795B810BD000000540040F2
:1015600064000020A0860100FEE7FEE77047704798
:10157000FFF732BB30B593B030216846FEF7A4FFC9
:1015800014210CA8FEF7A0FF1D480025016841F0BA
:1015900080510160006800F0805011901948016886
:1015A00041F4804101600068022400F48040119001
:1015B00001200090000401908001CDE9064008AAB6
:1015C0000420A82182E813000B906846FFF76AFC0C
:1015D00008B172B6FEE70CA90F2081E831004FF484
:1015E000A0500F904FF48050109005210CA8FFF7E9
:1015F0007FFB002801D072B6FEE713B030BD0000BB
:1016000040380240007000400248016841F4700117
:101610000160704788ED00E0FEE70907090E002829
:1016200004DB00F1E02080F80014704700F00F00A8
:1016300000F1E02080F8141D704710B5802000F004
:1016400061F80024202000F07DF8641C502CF9DBA8
:1016500010BD10B53220FFF717F8302000F052F817
:101660000520FFF711F8302000F04CF80120FFF7BB
:101670000BF8302000F046F80A20FFF705F820208C
:1016800000F040F80A20FEF7FFFF282000F03AF8AB
:101690000120FEF7F9FF082000F034F80120FEF7E2
:1016A000F3FF012000F02EF80120FEF7EDFF0120EE
:1016B000FEF7EAFF062000F025F80120FEF7E4FF20
:1016C0000C2000F01FF80520FEF7DEFFFFF7B5FF46
:1016D000BDE810406420FEF7D7BF802230B101285A
:1016E00009D0022809D0032802D108E041F0800285
:1016F000D0B200F007B84031F8E71431F6E75431C2
:10170000F4E700001CB500F0F00141F00C028DF888
:10171000042041F0080100018DF8051040F00C0193
:101720008DF8061040F008008DF807006420009046
:10173000042301AA4E210248FFF784F91CBD0000D2
:10174000640000201CB500F0F00141F00D028DF89E
:10175000042041F0090100018DF8051040F00D0151
:101760008DF8061040F009008DF807006420009005
:10177000042301AA4E210248FFF764F91CBD0000B2
:101780006400002010B5044602E0641CFFF7DAFF95
:1017900020780028F9D110BD86B0FFF725FAFFF7B1
:1017A000E9FEFFF77BFEFFF7BFFEFFF752FF824D1A
:1017B0000326A5F1400400BF00F02CF92070412859
:1017C00041D042287DD044287CD0E068012843D015
:1017D000022878D0032877D000210846FFF77DFF44
:1017E00076A0FFF7CFFF207F3030C0B2FFF7AAFF0F
:1017F00000210120FFF771FF72A0FFF7C3FF207ED9
:101800003030C0B2FFF79EFF00210220FFF765FFD6
:101810006EA0FFF7B7FF2078FFF794FF00210320A9
:10182000FFF75BFF6BA0FFF7ADFF23786CA11A46B3
:101830006846FEF799FD6846FFF7A4FF4FF4FA707B
:10184000FEF722FFB8E70A210020FFF746FF67A056
:10185000FFF798FF0120E06000210846FFF73DFFF9
:1018600056A0FFF78FFF207F3030C0B2FFF76AFF2E
:1018700000210120FFF731FF52A0FFF783FF207EF8
:101880003030C0B2FFF75EFF00210220FFF725FFD6
:101890004EA0FFF777FF2078FFF754FF00210320C9
:1018A000FFF71BFF4BA0FFF76DFF23784CA11A46F3
:1018B0006846FEF759FD6846FFF764FF0A210120DC
:1018C00003E025E040E025E03FE0FFF706FF4AA007
:1018D000FFF758FF2069C0F113010120FFF7FDFE5B
:1018E0000420FFF70FFF0F20FFF70CFF2078A0F177
:1018F000300109295ED8216905295BDA45F8210004
:10190000FFF720FF2069401C2061052851D051E0DD
:101910000220E0600A210220FFF7DFFE37A0FFF778
:1019200031FF4FF41670FEF7AFFE00205FF030017C
:1019300045F82010401C0528FADB0020E0602061FB
:101940006061FFF786FE79E7E6600A210220FFF773
:10195000C4FE2DA0FFF716FF286942F2107130383F
:101960004843E96801EB4102C2EBC11100EBC10041
:10197000A96801EBC10202EB011100EB810069686B
:1019800001EB810100EB410029684218A2F55042A9
:10199000503A1FA168466261FEF7E6FC6846FFF711
:1019A000F1FE0E210120FFF798FE0F20FFF7AAFE9F
:1019B00044E7E6600620F9E740000020526F7720F8
:1019C0003A200000436F6C203A2000004B657920DC
:1019D0003A0000004B6579204153434949203A00C1
:1019E00030782558202D2025640000004E68617055
:1019F000203520736F3A00002D3E3A00586F612069
:101A00003520736F21210000446F6E653A0000009D
:101A1000256400002DE9FF47224B234E00240FCB05
:101A20008DE80F0006F12B07A6F1040906F11B084B
:101A300019F8041058F824000022FEF734FF00259E
:101A4000715D57F82500FEF729FF80B16D1C042D4C
:101A5000F6DB19F8041058F824000122FEF723FFE2
:101A6000641C042CE4DB202004B0BDE8F0871420C3
:101A7000FEF70AFE715D57F82500FEF70FFF0028FC
:101A8000F8D019F8041058F824000122FEF70BFFD3
:101A90000548401FC0E90654684600EB8400405DDD
:101AA000E2E70000B81A0008050000204FF040707F
:101AB000E1EE100A704700003132334134353642CE
:101AC000373839432A30234400000000000000006A
:101AD00001020304060708090000000001020304D4
:101AE0003031323334353637383941424344454654
:101AF000403058003031323334353637383961624E
:101B00006364656640307800281B000800000020F0
:101B100064000000C40100088C1B00086400002061
:101B2000B4060000E001000800102040800102041B
:101B3000080000000000000000000000000000009D
:101B40000000000000000000000C0240000C0240F9
:101B5000000C0240000C0240000C0240000C02404D
:101B6000000C0240000C02403000000000000000A9
:101B70000000000000000000000000000100000064
:0C1B800010000000000000000024F40031
:040000050800018965
:00000001FF
