:020000040800F2
:1000000020080020510200082F2F0008CF2D0008E3
:100010002D2F0008051E00081B31000800000000FD
:10002000000000000000000000000000332F000866
:10003000071E000800000000312F0008352F0008BF
:100040006B0200086B0200086B0200086B020008DC
:100050006B0200086B0200086B0200086B020008CC
:100060006B0200086B0200086B0200086B020008BC
:100070006B0200086B0200086B0200086B020008AC
:100080006B0200086B0200086B0200086B0200089C
:100090006B0200086B0200086B0200086B0200088C
:1000A0006B0200086B0200086B0200086B0200087C
:1000B000DD2F00086B0200086B0200086B020008CD
:1000C0006B0200086B0200086B0200086B0200085C
:1000D0006B0200086B0200086B0200086B0200084C
:1000E0006B0200086B0200086B0200086B0200083C
:1000F0006B0200086B0200086B0200086B0200082C
:100100006B0200086B0200086B0200086B0200081B
:100110006B0200086B0200086B0200086B0200080B
:100120006B0200086B0200086B0200086B020008FB
:100130006B0200086B0200086B0200086B020008EB
:100140006B0200086B0200086B0200086B020008DB
:100150006B0200086B0200086B0200086B020008CB
:100160006B0200086B0200086B0200086B020008BB
:100170006B0200086B0200086B0200080000000020
:100180006B0200086B02000800F002F800F051F862
:100190000AA090E8000C82448344AAF10107DA45E2
:1001A00001D100F046F8AFF2090EBAE80F0013F0E3
:1001B000010F18BFFB1A43F001031847B0330000CA
:1001C000D0330000103A24BF78C878C1FAD852075B
:1001D00024BF30C830C144BF04680C6070470000C1
:1001E0000023002400250026103A28BF78C1FBD840
:1001F000520728BF30C148BF0B607047662903F023
:100200005581002070471FB503F04BF99DE80300AE
:1002100000F08EFF00F0B2FB04000020002103F08C
:10022000B3F8E06000F0C2FC1FBD10B500F027FD80
:1002300010BD00F05BFD1146FFF7E5FF03F06AF823
:1002400000F04AFF03B4FFF7F0FF03BC01F0E2F84F
:100250000948804709480047FEE7FEE7FEE7FEE75A
:10026000FEE7FEE7FEE7FEE7FEE7FEE70448054996
:10027000054A064B70470000CD2F00088901000891
:10028000200200202008002020040020200400205C
:1002900053EA020C00F069802DE9F04B4FF00006A4
:1002A000002B1FBFB3FA83F503FA05F424FA05F611
:1002B0005E4012BF1643B2FA82F502FA05F4C5F1A8
:1002C00020051EBF22FA05FC44EA0C04203556EA3C
:1002D000044C4FEA144418BF641C4FF000084FF060
:1002E0000009904271EB030C39D3002919BFB1FA10
:1002F00081F701FA07F6B0FA80F700FA07F6C7F1BE
:1003000020071EBF20FA07FC46EA0C062037B6FB82
:10031000F4FCA7EB0507103F07F01F0BCBF12006FD
:100320000CFA0BFB2CFA06F644BFB3460026202F2E
:10033000A4BF5E464FF0000B5BEA060C08BF4FF00F
:10034000010B19EB0B09ABFB027C48EB0608C01B49
:1003500006FB02CC0BFB03CC71EB0C01C1E70B4697
:10036000024641464846BDE8F08B13B54FF0000009
:100370004FF00001AFF30080BDE81C407047000063
:100380000FB4044910B503AA029800F0E5FA10BCB6
:100390005DF814FB180100202DE9F0410E460446DB
:1003A000002020622046E168884730B3252805D028
:1003B000D4E901219047206A401CF2E7E168204619
:1003C00000278847050018D0A5F14100192802D858
:1003D00020354FF400673246294620462760FFF754
:1003E0000DFF40B1012804D0F61D26F0070608369F
:1003F000D8E7361DD6E72846DAE7206ABDE8F0815F
:1004000010B5203AC0F00B80B1E81850203AA0E8AF
:100410001850B1E81850A0E81850BFF4F5AF5FEAE3
:10042000027C24BFB1E81850A0E8185044BF18C996
:1004300018C0BDE810405FEA827C24BF51F8043B3D
:1004400040F8043B08BF7047D20728BF31F8023B91
:1004500048BF11F8012B28BF20F8023B48BF00F825
:10046000012B70474FF0000200B5134694469646A4
:10047000203922BFA0E80C50A0E80C50B1F12001B7
:10048000BFF4F7AF090728BFA0E80C5048BF0CC065
:100490005DF804EB890028BF40F8042B08BF7047C3
:1004A00048BF20F8022B11F0804F18BF00F8012B35
:1004B000704700004FF0013C50F8042B51F8043B0A
:1004C0009A4221D1A2EB0C03934313EACC1317D128
:1004D00050F8042B51F8043B9A4215D1A2EB0C03BF
:1004E000934313EACC130BD150F8042B51F8043B7F
:1004F0009A4209D1A2EB0C03934313EACC13DBD04D
:100500004FF00000704700BFD01A01BAB1FA81F174
:1005100001F0180122FA01F0CB40C1F12001DBB259
:10052000C0B2C01A2CFA01F3D11A914311EAC311D7
:10053000E6D1704770477047704770472DE9FF4F0D
:100540000C461E464FF0FF378BB0D2E90001DDF8B4
:1005500060800A908A46C1F30A5505B93D460021DC
:1005600008464FF00000BAF1000F00F4400005DA31
:1005700000EB80004FF4400101EA50004FEA90592F
:10058000B9F1010F00DDB9460A9850EA4A000ED0D1
:1005900044F61050A5F2FF3545432F14B8F1000F73
:1005A0001ED07542291E1EDDC9F100021CE0B8F103
:1005B000010F4FF0000001D0302103E0F24305E0CD
:1005C0002154401CB042FBDB304600220021215464
:1005D0000B99C1F80880C1E900200FB0BDE8F08F89
:1005E000BD1B6D1CDEE74A4600DA694206A800F032
:1005F00067FA06AB93E8070003AB83E807005046B1
:100600000A9900F0A3FF8DE80700A0F500501F38FD
:1006100000900398002D0ADD42F21F014A4608446B
:10062000002303A90390684601F00CFA09E0A0F545
:1006300000504A461F38002303A90390684601F082
:1006400016FA8DE807000004000C03D04FF0FF30CD
:10065000410800E01046B8F1000F03D000220092DC
:1006600015461EE0751E05D400F08CF93032625537
:100670006D1EF9D5B3460122084302D000227F1C2B
:1006800004E02078302801D100227F1E002A09973B
:1006900084D01DE0112D07DA00F074F93032625574
:1006A0006D1C50EA0102F5D1084302D00098C8B190
:1006B0000EE00021681E05E0235C625C6354225456
:1006C000401E491C8142F7DBAB46A81B401E099027
:1006D000002004F80B000B98099AC0F80880C0E9C4
:1006E000002B7AE711264FF0000857E72DE9F04F6D
:1006F00088460446D21D22F0070191B0D1E90001DD
:10070000CDE90A0102F00AFD02460B98C00F01D0A4
:100710002D2007E02068810701D52B2002E0202151
:1007200001EAC000032A099001D0072A05DB03462D
:100730004146204600F084F90BE12078800601D57F
:10074000E06900E00620B8F1650F814606D0B8F1F7
:10075000660F18D0B8F1670F70D131E00020B9F101
:10076000110F009001DB112301E009F101030AAA36
:1007700001A90CA8FFF7E2FEDDE90C70002609F1E3
:100780000105834647E001204B4600904FF00047AB
:100790000AAA01A90CA8FFF7D1FEDDE90DB00C995A
:1007A0005D46002610B909F101000D18B9EB0500EE
:1007B00003D4C0F1FF3609F10105A5EB09002BE0D8
:1007C000B9F1010F01DA4FF001090020B9F1110F61
:1007D0000090484601DD112300E003460AAA01A962
:1007E0000CA8FFF7ABFEDDE90C704D4600268346F2
:1007F000207800070AD4AB4500DA5D4601A8012D38
:1008000004DD411911F8011C302907D04F4502DAE7
:1008100017F1040F04DA012082460FE06D1EEEE7A7
:10082000002F02DCED1B3E4403E0781CA84200DDF3
:100830007D1CB81B00F1010A4FF00047207800072B
:1008400003D4AA4501DB4FF0FF3A0021B7F1004F76
:100850000DF143088DF8431024D002202B23002FE4
:1008600001DA7F422D230A21021EA0F1010000DCE3
:100870005FB197FBF1FC97FBF1F201FB1C7C174683
:100880000CF1300C08F801CDEEE7A8F1010003707F
:100890002188090501D5452100E06521A0F1010865
:1008A00000F8011C09980FA9A1EB0807FF1D00B172
:1008B0000120411901EBEA70A1693844081A401E71
:1008C000A0612078C00602D42046AFF300800998CA
:1008D00028B1D4E901219047206A401C2062207889
:1008E000C00622D52046AFF300801EE0002E04DBB8
:1008F000B34502DD01A8805D00E03020D4E901218C
:100900009047206A401C2062761CAAF101005FEA31
:10091000000A0AD100F032F8C0680168405CD4E9EE
:1009200001219047206A401C2062281EA5F1010584
:10093000DCDC07E0D4E9012118F8010B9047206ABC
:10094000401C2062381EA7F10107F3DC2046AFF3FC
:100950000080032011B041E6074B70B50D467B4483
:1009600000F05BF80446284600F01CF910B14FF087
:10097000FF3070BD204670BD9729000000487047C9
:10098000E001002030B5B0F10A024FEA900E71F19B
:1009900000034EEA817EB0EB0E0061EB91014FEA5D
:1009A000101E4EEA017E10EB0E0041EB11114FEAD2
:1009B000102E4EEA016E10EB0E0041EB11214FEAB2
:1009C000104E4EEA014E10EB0E0041EB1141401863
:1009D00041F100014FEAD00040EA41704FEAD101F5
:1009E00010EB80054FEA810444EA907444EB010463
:1009F0006D1944EB0404521BA3414FF0000348BFA0
:100A00000A3200D530BD401C41F1000130BD00006C
:100A100001694A1C02610878704700B58FB0CDE9C2
:100A200001310021059105497944CDE903101146B2
:100A30006846FFF7B1FC0FB000BD0000E5FFFFFF07
:100A40002DE9F0411F46044603260168072A01F4F8
:100A5000006004DB08B116A505E016A503E008B1A7
:100A600015A500E015A521F010002060A069C01EAA
:100A7000A0610FB1401EA0612046AFF300804FB1CE
:100A8000D4E9012138469047206A401C2062C01CEE
:100A9000206206E0206AFAE7D4E9012115F8010B8B
:100AA0009047761EF8D22046AFF30080BDE8F08173
:100AB0004E414E006E616E00494E4600696E660002
:100AC0002DE9F047814616468AB0354878440DC86E
:100AD0008DE80D0032487844801C03AC0DC884E8D2
:100AE0000D0041F69B300844372190FBF1F290FB5A
:100AF000F1F5A5F1800501FB12041B3C02D564420F
:100B0000012000E00020DFF898A080460027FA448A
:100B1000AAF1BE0A0EE0E0070AD03246684607EBAB
:100B2000470101230AEB810100F0A1FF8DE80700D6
:100B300064107F1C002CEED1194F7F44AE3F19E0AA
:100B4000E80715D007EB04100DF1180A90E80E0025
:100B50008AE80E00C068F04201D198190890324628
:100B6000012306A903A800F082FF03AB83E8070076
:100B70006D10641C002DE3D14FF00103324669462D
:100B8000B8F1000F03A802D000F05CFF01E000F014
:100B90006EFFC9E90001C9F808200AB0BDE8F08776
:100BA000842A0000007B00F08000704710B54248A6
:100BB0005421FFF757FC41485421FFF753FC4048AC
:100BC0005421FFF74FFC3F493B483C4A3F4B0860EC
:100BD0003D490A603A491960531C0365481C106579
:100BE000012008653B48344A39A1784400F0D8F91F
:100BF00020B9384878440A3800F077FA37482F4A45
:100C000035A1784400F0CCF920B9344878440A384A
:100C100000F06BFA32482A4A2FA1784400F0C0F95C
:100C200020B92F4878440A3800F05FFA4023224860
:100C3000DC000021224600F090F920B125487844DC
:100C4000543800F052FA1D4822464023002100F09B
:100C500084F920B121487844543800F046FA184805
:100C600022461023002100F078F9002806D01C4805
:100C70007844BDE81040563800F037BA10BD10482F
:100C800070B5006D20F001040B4800F0FFF90B482F
:100C900000F0FCF90A4800F0F9F909E0206D20F0B5
:100CA0000105204600F0F2F9204600F044F82C46F9
:100CB000002CF3D170BD0000C400002018010020FA
:100CC0006C0100201C0000202000002024000020D7
:100CD00072000000D228000077000000C128000048
:100CE000B128000000487047C00100207546FFF79A
:100CF000F9FFAE4605006946534620F007008546D9
:100D000018B020B5FFF7B2FABDE820404FF000065A
:100D10004FF000074FF000084FF0000B21F00701E3
:100D2000AC46ACE8C009ACE8C009ACE8C009ACE826
:100D3000C0098D46704770B50446051F00F0DCF908
:100D40000068002C14BF446870BD002C18BFAC4272
:100D50003CBF20466468F8D301680A18AA4218BF4D
:100D6000456003D12A68054611440160286841198D
:100D7000A1421CBF6C6070BD616869602168084455
:100D8000286070BD2DE9F04705460C46C86820F480
:100D9000201040F48000C860800602D5084600F0AC
:100DA000F8FAE06841F282014FF0FF390140022970
:100DB00003D0204600F096FAB5E000F42041B1F5EA
:100DC000004F0FD1C00306D56168E06A884200D8A1
:100DD0000846606006E02069E0626060606902F0D9
:100DE000D1F9A061A0680022EEB200280DDAE16816
:100DF0008B050AD4C043A06041F490302260E060CB
:100E00006068411C61600670A5E0E0689046226061
:100E100040F40050E060206968BB606902F0B8F9F6
:100E2000012704F12405A0B1A08910F4407F08D067
:100E3000E06900F0ACF9206118B1E06840F40060AE
:100E400016E0E7612561E06820F4407040F48060BE
:100E50000EE0E06900F09BF900282061F1D0E06825
:100E600040F4006010F4407FE06002D140F48070F4
:100E7000E06020696060E06825696FF0010AC105E3
:100E80001FD56168E06A884200D80846411B04D03B
:100E90002246284600F030FAF0BBE068010203D594
:100EA000E562C4E9015854E0691CE1626160E169EE
:100EB00040F48030491EC4E9021030462E70BDE86F
:100EC000F087010202D500F480320AE06068411C1C
:100ED00061600670E0680A2E40F48030E06006D061
:100EE0000022E16A6068814203D90B4602E00122D8
:100EF000F7E70346A7895B1B7F0503D4E7699F4299
:100F000000DDE2B1814200D80146E5620F1AC4E972
:100F10000158002B09DD00E005E02246194628466D
:100F200000F0EAF908B14846C9E747B1A069E562AF
:100F30006560C01BA061E06840F01000E060E06800
:100F4000000208D56168A069E562491B0844656034
:100F5000A0615046B3E73046B1E770B5C468A50755
:100F600013D0650211D4B2F5807F09D0B2F5007FAD
:100F700006D0B2F5806F08D1012300F1240106E00C
:100F80005D1E6FF07F46B54201D3012070BD016147
:100F9000C361416024F470611143C160002070BDE1
:100FA0002DE9F0410C4607461646104600F06EF853
:100FB0002078611C61280AD0722802D077283CD1A1
:100FC00002E00125002405E00225042402E00824B3
:100FD00048F2020511F8010B2B2806D0622809D02F
:100FE00011F8010C74280AD00BE045F0030544F019
:100FF0000204EFE745F0040544F00104EAE744F099
:1010000010043846214602F0CFF8411C15D00021CB
:10101000316171604FF40071F560F161706120071A
:1010200004D530460222002100F0E0F8306D40F097
:10103000010030653046BDE8F0810020FBE72DE976
:10104000F0410D460646104C206DC10704D0410802
:1010500004D020F00104F7E722460EE0542000F00F
:1010600096F807000ED0206D47F001010843542187
:1010700020653846FFF7F6F93A4629463046BDE87E
:10108000F0418DE70020D6E7C40000202DE9F047AD
:1010900004464FF000094FF0FF37C568D4E90486D5
:1010A000A80707D0204600F051F9304602F05EF85C
:1010B000002802DA3846BDE8F087280502D5404608
:1010C000FFF739FE4C212046FFF7CCF9206D20F0C8
:1010D000010020654846EEE710B50446AFF30080F6
:1010E0002046BDE81040FFF7ADB810B500F078F924
:1010F000BDE8104000F06EB900487047C8010020FC
:10110000704770477047704738B504460A4600205C
:101110006946AFF30080002808BF38BD0246009939
:10112000204600F084F9012038BD012000F0D3B939
:10113000F8B5AFF30080054600200C46102000BF34
:101140000646A819A0420DD9324669460020AFF3E1
:101150000080070008BF00F0BEF90098A04218BF49
:101160000546C419FFF7C8FF05600746F01D20F0CB
:1011700007004619284600F053F9B44208BFF8BDED
:10118000A21B31463868BDE8F84000F050B970B590
:101190000646FFF7B1FF056806F10B0020F00704D3
:1011A000B4429CBF002070BD2B466A68BAB110687B
:1011B000A04210D304F1080188423CBF5068586037
:1011C00007D35168101941601168091B016058600C
:1011D0001460101D70BD13465268002AE7D12146E5
:1011E0002846FFF791FF0028DED170BD2DE9F041C0
:1011F000044616460D464769007B80072ED03846C8
:1012000001F0C6FF50BB3EB3012E02D0022E25D105
:1012100004E0204600F025F905441DE0384601F0C1
:10122000B1FFE168002841F01001E16005DA2046D5
:1012300000F058F80120BDE8F081C9030BD56268C1
:10124000E16A914200D81146A26911442269891AC3
:10125000814200DD08460544002D01DA0220EAE75C
:10126000E16A6068E268814206D29103E06203D5D8
:1012700022F4003141F01002A6690027AE4213DCCF
:10128000E16A814201D90B4600E0034603EB060CFC
:101290002369ACEB030CAC4506DD814201D98C46D9
:1012A00000E084469C4505D1A760276042F02000FD
:1012B000A5620DE0AD1BE669AE1B8142A66000D9B8
:1012C0000846C01A281A20605819606022F02000D1
:1012D00003490840E060002084F84870ABE7000054
:1012E000BFCFD7FFC16821F4001141F08001C16078
:1012F00000218160016070472DE9F0478146144666
:101300000E464FF0FF383248D5685769054209D07C
:101310003846A16901F076FF002811DB2C48C04354
:101320000540E5602B4632464946384601F06DFFE0
:10133000A16920F00042B21A11440028A16103D033
:101340002046FFF7CFFF4046BDE8F08770B5044662
:101350000569C06A6168884200D80846E16821F4DE
:101360002011E160C90312D5A84208D02246411BD2
:101370002846FFF7C1FF10B14FF0FF3070BD0020CD
:10138000E562C4E90150E06820F48030E0600020AC
:1013900070BD10B50446C06820F02000E060A16A6E
:1013A000A06988420DD02046FFF7D0FFE06820F406
:1013B000405040F01000E060A06AA0612069E06247
:1013C000606044F24001E0688843E06010BD0000C6
:1013D00010000200002801D000F01CB87047000087
:1013E00010B5014602A000F05DF8012010BD00001C
:1013F00053494752545245443A20526564697265D4
:1014000063743A2063616E2774206F70656E3A20B2
:101410000000000001491820ABBEFEE726000200D4
:1014200000210160C0E90110704710207047034699
:1014300040688C46002818BF88423CBF034640687D
:10144000F8D318681844884207D00CF1030020F044
:101450000700001D411A521A0146081D0A60FFF7D5
:101460006ABC10B50146C268900703D0900607D544
:10147000886A0AE000F03EF801210160881E10BD74
:101480008B69486818440B69C01A91F848301BB141
:1014900091F84910401A10BD1103FCD50028FADD5F
:1014A000401E10BD70B505460C460A2000E06D1CBC
:1014B00000F018F835B128780028F8D102E0641C53
:1014C00000F010F814B120780028F8D1BDE8704081
:1014D0000A2000F007B810B500F010F8BDE8104081
:1014E000FFF778BF08B569468DF800000320ABBE52
:1014F00008BD704700487047C001002010B50128A2
:1015000005D0002103A0FFF7CDFF012010BD09A1E8
:10151000F8E7000053494752544D454D3A204F7566
:1015200074206F662068656170206D656D6F7279DB
:10153000000000003A2048656170206D656D6F7293
:101540007920636F72727570746564005FEA400C95
:1015500008BF91F0000F4FEA8C234FEAC12243EA03
:1015600051514FEA1C5018BF00F5F0404FEA3000CF
:1015700018BF41F000415FEA6C5C00F02980BCF1CB
:10158000FF3F08BF40F080407047130C06BF1204B5
:101590004FF0100C4FF0000C130E04BF12020CF1B0
:1015A000080C130F04BF12010CF1040C930F04BFBD
:1015B00092000CF1020CD30F04BF52000CF1010C8D
:1015C00011464FF00002A0F11F00A0EB0C00704785
:1015D00011F0004F08BF704731F000413FF4D5AF24
:1015E0000B0C06BF09044FF0100C4FF0000C0B0E53
:1015F00004BF09020CF1080C0B0F04BF09010CF128
:10160000040C8B0F04BF89000CF1020CCB0F04BF3C
:1016100049000CF1010CCCF12003A0EB0C0022FAE4
:1016200003F302FA0CF241EA030100F101007047F2
:1016300020F07F4C80EA030023F07F47ACEB0703E8
:1016400003F57C5300F0004003F1FF032DE98049CE
:101650004FEA154B09B44FEA144325EA0B4E24EA2E
:1016600003480FF2042606EB132749083E785FEA89
:10167000320203FB0667C7F5000707FB06F64FEAD1
:1016800054374FEAD64606F1020607FB066CCCF14A
:10169000005C4FEA1C472CEA074C07FB06F40CFBE6
:1016A00006F504EB15464FEA961634BF00204FF0BE
:1016B00000404FEAD13706FB07FC4FEA1C4C0CFBFD
:1016C0000BF7D21B03FB0CF761EB07010CFB0EF7CA
:1016D000B0EB074072EB17420CFB08F734BFA2EBEC
:1016E0000742B2EB074261EB17414FEA0C444FEA65
:1016F000910706FB07FC4FEA1C4C0CFB0BF7B0EB09
:10170000C74072EB573203FB0CF734BFA2EBC74262
:10171000B2EBC74261EB57310CFB0EF7B0EBC700E1
:1017200072EB57720CFB08F734BFA2EBC702B2EBA7
:10173000C70261EB5771039F4FEA816141EA921141
:1017400004EBCC044FEAD1374FEA826206FB07FC78
:1017500042EA90124FEA80604FEA1C4C0CFB0BF7F8
:10176000D21B03FB0CF761EB07010CFB0EF7B0EB90
:10177000074072EB17420CFB08F734BFA2EB07429D
:10178000B2EB074261EB17414FEA8C554FEA9107E4
:1017900004EB9C2406FB07FC4FEA1C4C0CFB0BF7EC
:1017A000B0EBC74072EB573203FB0CF734BFA2EB30
:1017B000C742B2EBC74261EB57310CFB0EF7B0EBFF
:1017C000C70072EB57720CFB08F734BFA2EBC702DD
:1017D000B2EBC70261EB577115EB4C254FEA816103
:1017E00041EA92114FEA82624FEAD13742EA9012FF
:1017F00006FB07FC44F100044FEA80604FEA1C4CF2
:101800000CFB0BF7D21B03FB0CF761EB07010CFB86
:101810000EF7B0EB074072EB17420CFB08F734BF32
:10182000A2EB0742B2EB074261EB174115EB1C1527
:101830004FEA813141EA92414FEA823242EA9042D4
:101840004FEA80304FEA0C7644F1000448EA034343
:101850004EEA0B484FF0000EB2EB080C71EB030799
:1018600024BF624639464EEB0E0E4FF0000B0018B7
:10187000524149414BEB0B0BB2EB080C71EB0307E8
:101880007BF1000B24BF624639464EEB0E0E4FF043
:10189000000B0018524149414BEB0B0BB2EB080C0B
:1018A00071EB03077BF1000B24BF624639464EEB18
:1018B0000E0E51EA020718BF46F0010616EB0E762F
:1018C00055F1000254F1000103D5BDE88901BDE8DE
:1018D0000088BDE88901BDE80048B619524141EBD6
:1018E0000101A3F10103704780807F7E7D7C7B7ABC
:1018F0007978777676757473727171706F6E6E6DBC
:101900006C6C6B6A6A696868676666656464636361
:1019100062616160605F5F5E5E5D5D5C5C5B5B5AE7
:101920005A59595858575756565555555454535354
:1019300052525251515050504F4F4F4E4E4D4D4DAF
:101940004C4C4C4B4B4B4A4A4A49494948484847FA
:101950004747474646464545454444444443434338
:101960004342424242414141002B9C4630D47700E1
:101970002BD01CB54FEA370703B44FF010004FF0DF
:101980001001BAF1000F06D0BCF1000FDCBF40F02F
:10199000080040F008014FF000000FBCBDE8104007
:1019A0000BF1010BBBF1010F08BF5FEA170722BF64
:1019B00012F1010211F101014FF0004143F1000366
:1019C00000F0004043EA00007047F9D35708D0E721
:1019D00046EA064613F1400F4FEA16461FDD13F1A3
:1019E000200FDFBF16430A46002120335B42BED0E2
:1019F000C3F1200746EA064602FA07F74FEA164601
:101A000046EA0706C3F1200722FA03F201FA07F7B4
:101A100021FA03F14FF0000342EA0702A7E746EA82
:101A2000020646EA06464FEA164646EA0106BCBFEB
:101A300046EA0646360C4FF000034FF000024FF026
:101A4000000194E72DE9804C9A46934670B491E8E2
:101A5000380007C831EA400C48BF34EA430C03D5CC
:101A6000FFF7E6FDFFF780FFF0BCBDE8008C2DE935
:101A7000804C9A46934670B491E8380007C810F03D
:101A8000804F08BF13F0804F03D100F005F8FFF737
:101A90006BFFF0BCBDE8008C20F07F4780EA0300BC
:101AA00023F07F4C07EB0C03A3F57C5300F00040C0
:101AB000A3F1FE0392F0000F00F0B38095F0000F49
:101AC00000F077802DE901494FEA11404FEA1446B2
:101AD00021EA004800FB06FC24EA064708FB06F65C
:101AE00007FB08F800FB07F718EB06484CEB164C11
:101AF0004FEA124B18EB07484FEA15464CEB1740DC
:101B000022EA0B4E0BFB06FC25EA06470EFB06F607
:101B100007FB0EFE0BFB07F71EEB064E4CEB164CBD
:101B20004FF000061EEB074E4CEB174B18EB0B0863
:101B300040F1000018EB0E0B58EB000840F10000DC
:101B40008F1A4FF000013CBFC943661B14BFB5EBB1
:101B5000040C00213CBFC943F61B4FEA17444EEA70
:101B60008E0E27EA04454FEA1C4704FB07622CEA65
:101B7000074C05FB07F70CFB05F604FB0CFC16EB0A
:101B8000074642EB174216EB0C4642EB1C421BEB9E
:101B9000060658EB0202414146EA9E0601D5BDE821
:101BA0000189B619524141EB0101A3F10103BDE8DE
:101BB00001894FEA14454FEA114724EA054621EA14
:101BC000074C05FB07F406FB07F70CFB06F105FBCA
:101BD0000CFC11EB074144EB17444FEA124711EBA1
:101BE0000C4144EB1C4422EA074C05FB07F206FBC0
:101BF00007F70CFB06F605FB0CFC16EB074642EB61
:101C0000174216EB0C4642EB1C456A1854F10001D2
:101C100048BF7047B619524141EB0101A3F10103DE
:101C2000704795F0000F37D04FEA11424FEA144742
:101C300021EA024624EA074C02FB07F106FB07F7FC
:101C40000CFB06F402FB0CFC14EB074441EB1741C0
:101C50004FEA154714EB0C4441EB1C4125EA074CB5
:101C600002FB07F506FB07F70CFB06F602FB0CFC74
:101C700016EB074645EB174516EB0C4645EB1C42A9
:101C8000121951F1000148BF7047B619524141EB9A
:101C90000101A3F1010370474FEA14454FEA1147D0
:101CA00024EA054621EA074C05FB07F106FB07F786
:101CB0000CFB06F24FF0000605FB0CFC12EB074292
:101CC00041EB174112EB0C4251EB1C4148BF7047EE
:101CD000921841EB0101A3F101037047464910B589
:101CE0004A6822F440324A604A6843681A434A60AC
:101CF00001684A6822F480724A6001684A68036990
:101D000042EA03224A6001684A6822F040724A604F
:101D100001684A6883681A434A6001688A6822F445
:101D200000628A6001688A68C3681A438A60816AAF
:101D30006FF07062D14201688A6822F070628A6036
:101D400001688A680CD0836A1A438A6001688A68CD
:101D500022F040528A6001688A68C36A1A4301E02F
:101D600022F040528A6001688A6822F002028A608A
:101D700001688A68037E42EA43028A6090F8201074
:101D8000002901684A680FD042F400624A60016885
:101D90004A6822F460424A6001684A68174C436A04
:101DA00004EB43331A4301E022F400624A60016805
:101DB000CA6A22F47002CA620168CA6A838B104C34
:101DC00004EB03531A43CA6201688A6822F4007262
:101DD0008A6001688A6890F8303042EA43228A605B
:101DE00001688A6822F480628A6001688A684069B2
:101DF00042EA8020886010BD0023014000E0FFFF20
:101E00000000F0FFFEE7704772B6FEE778B50024E9
:101E1000009490F83C20012A19D0012280F83C203F
:101E20000A6807230568092A13D9EE680A3A02EB03
:101E3000420293409E43EE600B788A680A3B03EBB4
:101E400043039A400368DD682A43DA6010E0022009
:101E500078BD2E6902EB420293409E432E610B78BF
:101E60008A6803EB43039A4003681D692A431A6199
:101E70004A681F23072A13D205686E6B521E02EBB5
:101E8000820293409E436E630B790A885B1E92B276
:101E900003EB83039A4003685D6B2A435A6327E090
:101EA00005680D2A12D22E6BD21F02EB82029340DC
:101EB0009E432E630B790A88DB1F92B203EB8303E8
:101EC0009A4003681D6B2A431A6311E0EE6A0D3ACB
:101ED00002EB820293409E43EE620B790A880D3B2F
:101EE00092B203EB83039A400368DD6A2A43DA6205
:101EF000164B0568144A9D4206D10D68122D03D178
:101F0000556845F48005556005689D4218D10B68F9
:101F1000102B01D0112B13D1536843F400035360ED
:101F2000096810290CD10A490A4A0968B1FBF2F183
:101F300001EB8101490000E0491E00910029FBD11D
:101F400080F83C40002078BD002301400020014083
:101F50001800002040420F000068C06C704770B548
:101F600004004FF0000503D0206C002610B107E0FC
:101F7000012070BD204600F01DF8666484F83C60C6
:101F8000206CC00610D4206C20F4885040F0020071
:101F900020642046FFF7A2FE6664206C20F0020059
:101FA00040F00100206400E0012584F83C602846F0
:101FB00070BD000008B500680649884208D106488F
:101FC000016841F480710160006800F48070009045
:101FD00008BD0000002001404438024018B500212F
:101FE000009190F83C20012A07D0012280F83C2083
:101FF00002689368DB0702D011E0022018BD9368E5
:1020000043F0010393602E4A2E4B1268B2FBF3F2A9
:1020100002EB420200E0521E0092002AFBD102684D
:102020009368DB0742D0036C40F20164A34343F49E
:102030008073036453685B0505D5036C23F4005378
:1020400043F480530364036CDB0404D5436C23F036
:102050000603436400E0416480F83C101A496FF0C5
:102060002203136049680068CA06184906D08842EE
:1020700024D1816811F0405F13D01FE08842F8D06E
:10208000134A904203D1D1F80423D206F1D0114A69
:10209000904213D1D1F8041301F01F011029E8D3A5
:1020A0000CE0816841F08041816007E0016C41F003
:1020B00010010164416C41F001014164002018BD30
:1020C0001800002040420F00002301400020014082
:1020D00000210140002201402DE9F84FDFF8BCA1AA
:1020E0000022012503264FF00F090AF1040BAAF183
:1020F000040E00BF0B6805FA02F42340A34270D11E
:102100000F7907F00307012F01D0022F16D187683E
:102110004FEA420806FA08FC27EA0C07D1F80CC07F
:102120000CFA08FC4CEA070CC0F808C04768A74343
:102130000C79C4F3001494403C4344600C79E443AC
:10214000A4070AD0C4684FEA420C06FA0CF7BC4355
:102150008F6807FA0CF72743C7600C7904F0030473
:10216000022C12D1D40800EB840CDCF82040570775
:10217000FF0E09FA07F824EA0804D1F8108008FADB
:1021800007F848EA0408CCF8208004684FEA420CBB
:1021900006FA0CF7BC430F7907F0030707FA0CF7B0
:1021A000274307604C6814F4403F70D03C4C2768CC
:1021B00047F480472760246822F0030704F4804432
:1021C0000094384C07EB040CDCF8084897074FEAFA
:1021D000177809FA08F7BC43334FB84202D10027F9
:1021E00024E054E0314FB84201D101271EE0304FC6
:1021F000B84201D1022719E02E4FB84201D103277E
:1022000014E02D4FB84201D104270FE02B4FB84204
:1022100001D105270AE02A4FB84201D1062705E07F
:10222000284FB84201D1072700E0082707FA08F72E
:102230002743CCF80878DAF800405746D1F804C0B4
:102240009C435FEACC2C00D51C433C60DBF800408B
:102250005F46D1F804C09C435FEA8C2C00D51C4338
:102260003C60DEF800407746D1F804C09C435FEA4A
:102270008C3C00D51C433C60084F083F3C68D1F8BB
:1022800004C09C435FEACC3C00D51C433C60521C1C
:10229000102AFFF42FAFBDE8F88F0000083C014082
:1022A0004438024000300140000002400004024077
:1022B00000080240000C02400010024000140240DE
:1022C00000180240001C02400AB1816170470904F5
:1022D000FBE7000001488068704700000C00002008
:1022E0000248816802781144816070470C00002028
:1022F0000B4810B5016841F400710160016841F4B8
:1023000080610160016841F480710160032000F088
:102310006FF80F2000F006F800F024F8002010BD40
:10232000003C024070B50D4D04464FF47A71287898
:10233000B1FBF0F00A490968B1FBF0F000F0EAFAED
:1023400048B9102C07D200222146501E00F030F868
:1023500000206C6070BD012070BD00000C000020EA
:10236000180000200A4808B5016841F48041016066
:10237000006800F4804000900548001F016841F0AB
:1023800080510160006800F08050009008BD00009E
:1023900044380240002809DB00F01F02012191406F
:1023A0004009800000F1E020C0F8001170470000F3
:1023B000F0B40E4B1B680C46C3F30223C3F10705B0
:1023C000042D00D90425191D072901D2002300E09E
:1023D000DB1E012606FA05F1491E214099409E4068
:1023E000761E16403143F0BC00F0B0BE0CED00E0AC
:1023F000064900F0070208684FF6FF03184040EA5C
:102400000220034A10430860704700000CED00E012
:102410000000FA052DE9F0470E46050065D0DFF80B
:102420001481D8F80000F7B200F00700B04207D2DC
:1024300088F80070D8F8000000F00700B04254D1CE
:1024400028683D4C810712D5400703D5206840F429
:10245000E05020602878000703D5206840F46040F1
:1024600020602068A96820F0F000084320602878E8
:10247000C0072DD0304968680839012812D00228D9
:1024800013D0032811D00968890700292DDA2168A3
:1024900021F0030101432160FFF71CFF814641F257
:1024A000883A0EE009688903EFE709688901ECE7DB
:1024B000FFF710FFA0EB0901514502D90320BDE849
:1024C000F0872068696800F00C00B0EB810FEFD155
:1024D000D8F80010404601F00701B14207D9077053
:1024E000006800F00700B04201D00120E7E728783B
:1024F000400705D52068E96820F4E05008432060D3
:102500002878000706D52068296920F4604040EA51
:10251000C100206000F018F82168084AC1F30311D7
:10252000515CC8400649086006480068FFF7FAFE9B
:102530000020C4E7003C024008380240B0340008E4
:102540001800002010000020154810B5006810F099
:102550000C02144813D04110042A0FD0082A0ED1BF
:102560000F4C241F2268236802F03F025B0207D54C
:102570002068C0F38810A0FB010106E0084610BDEA
:102580002168C1F38811A1FB00010023FDF780FE43
:102590002168C1F30141491C4900B0FBF1F010BDB5
:1025A000083802400024F4002DE9F84F04006ED0F2
:1025B0002078DFF84C93C007A9F104054AD009F14F
:1025C00004000168C1F38101012908D00068C0F34B
:1025D000810002280AD1D9F80000400206D52868F7
:1025E000800337D560680028E1D033E06068B0F53B
:1025F000803F10D0B0F5A02F286810D020F4803094
:102600002860286820F4802028606068A8B1FFF75F
:1026100061FE06460DE0286840F48030F4E740F49F
:1026200080202860F7E700BFFFF754FE801B642876
:1026300073D828688003F7D50CE0FFF74BFE0646F9
:1026400005E000BFFFF746FE801B6428F0D828682D
:102650008003F7D42078DFF8AC8280074FF0000ABF
:102660003ED5A748001D016811F00C0F08D0006886
:10267000C0F3810002280BD1D9F80000400207D432
:102680002868800716D5E068012800D112E033E100
:10269000E068B8B10120C8F80000FFF71BFE06464D
:1026A00005E000BFFFF716FE801B0228C0D828688F
:1026B0008007F7D52868216920F0F80040EAC100BA
:1026C00028600DE0C8F800A0FFF704FE064604E00D
:1026D000FFF700FE801B02281FD828688007F7D468
:1026E0002078000722D5864F87486169703771B11D
:1026F00001210160FFF7EEFD064604E0FFF7EAFD69
:10270000801B022809D838688007F7D50EE0C0F88A
:1027100000A0FFF7DFFD064605E082E0FFF7DAFDE7
:10272000801B02287DD838688007F7D420784007BE
:1027300068D5DFF8CCB100270BF13C0BDBF80000CB
:10274000C0000BD4DBF8001041F08051CBF8001032
:10275000DBF80000012700F0805000906B4E3068DD
:10276000C00510D4306840F480703060FFF7B2FDCF
:10277000009005E0FFF7AEFD0099401A022850D8FE
:102780003068C005F6D55E4EA0686C3601280FD0C3
:102790000528306810D020F001003060306820F04B
:1027A00004003060A068B8B1FFF794FD00900FE01E
:1027B000306840F00100F4E740F004003060F7E7D3
:1027C000FFF788FD0099411A41F28830814266D8AE
:1027D00030688007F4D50EE0FFF77CFD009007E03D
:1027E000FFF778FD0099411A41F28830814256D8AE
:1027F00030688007F4D42FB1DBF8001021F080514D
:10280000CBF80010A069C8B33D49091D0968C1F3A0
:10281000810102294AD00228504607D0C8F860003A
:1028200000E03CE0FFF756FD04463BE04746C8F8B1
:102830006000FFF74FFD064605E000BFFFF74AFDC9
:10284000801B02282BD828688001F7D4D4E907011F
:102850000843A16A2E4A490802EB0141626A41EA33
:102860008211084394F82C1040EA0161C9F8001065
:1028700001203866FFF72EFD044606E03EE000BF6B
:10288000FFF728FD001B022809D828688001F7D52A
:1028900034E000BFFFF71EFD001B022802D9032011
:1028A000BDE8F88F28688001F4D427E00128F7D02C
:1028B000D9F80000E26900F4800191421CD1226A3B
:1028C00000F03F01914217D147F6C071626A0140A2
:1028D000B1EB821F10D1A26A4FF0FF3300F44031F8
:1028E00003EB5202B1EB024F06D194F82C1000F02A
:1028F0007060B0EB016F01D00120D1E70020CFE77D
:102900000438024000004742800E474200700040F9
:102910000000FFFF10B5401EB0F1807F01D3012001
:1029200010BD4FF0E02460610F21601700F00EFC35
:102930000020A06107202061002010BD7047704773
:1029400070B590F83C20012A32D0012480F83C4038
:10295000022280F83D2003685A689D6822F07006C4
:102960000A6832435A60134B02689A4214D0B2F19B
:10297000804F11D0104B9A420ED0104B9A420BD080
:102980000F4B9A4208D00F4B9A4205D00E4B9A42F9
:1029900002D00E4B9A4204D1496825F080031943B6
:1029A000916080F83D40002180F83C10084670BDE1
:1029B000022070BD000001400004004000080040FB
:1029C000000C00400004014000400140001800409D
:1029D00010B5040003D094F83D0010B107E00120C9
:1029E00010BD002084F83C00204600F01FF80220B3
:1029F00084F83D00211D206800F0F6FA012084F8DB
:102A0000460084F83E0084F83F0084F8400084F8D3
:102A1000410084F8420084F8430084F8440084F8BC
:102A2000450084F83D00002010BD000008B5006896
:102A3000B0F1804F12D10A48016841F001010160F4
:102A40000068002200F00100009011461C20FFF7F2
:102A5000AFFCBDE808401C20FFF79CBC08BD00008F
:102A60004038024090F83D10012901D00120704704
:102A7000022180F83D100168CA6842F00102CA6074
:102A800000681149884214D0B0F1804F11D00F492D
:102A900088420ED00E4988420BD00E49884208D099
:102AA0000D49884205D00D49884202D00C49884220
:102AB00004D1816801F00701062903D0016841F0C3
:102AC0000101016000207047000001400004004047
:102AD00000080040000C004000040140004001409C
:102AE0000018004070B5044690F83C00002501280D
:102AF00017D0012684F83C60022084F83D0020684D
:102B0000826822F0770222F47F42826008685028AF
:102B100038D00DDC20284FD005DC90B3102811D11F
:102B20004AE0022070BD302846D040280AD13BE060
:102B300060282FD070280DD0B0F5805F03D0B0F59D
:102B4000005F12D0012584F83D60002084F83C002D
:102B5000284670BDCB68D1E90121206800F0A8FAB1
:102B60002068816841F0770109E0CB68D1E9012153
:102B7000206800F09DFA2068816841F480418160FE
:102B8000E1E719E0CA684968206800F0A3FA50211B
:102B9000206806E0CA684968206800F0ACFA602145
:102BA000206800F08FFACEE7CA684968206800F014
:102BB00091FA40212068F4E7226801461046F0E7C8
:102BC000704770B50446006801694FF00005C943BD
:102BD000890715D4C168C943890711D4E91E016169
:102BE00001202077206880698007204602D0FFF707
:102BF000E7FF04E000F098F8204600F096F825770B
:102C000020680169C943490717D4C168C943490706
:102C100013D46FF0040101610220207720688069DD
:102C200010F4407F204602D0FFF7CAFF04E000F016
:102C30007BF8204600F079F8257720680169C943C0
:102C4000090716D4C168C943090712D46FF00801F7
:102C50000161042020772068C0698007204602D0E7
:102C6000FFF7AEFF04E000F05FF8204600F05DF8EB
:102C7000257720680169C943C90617D4C168C943CB
:102C8000C90613D46FF01001016108202077206875
:102C9000C06910F4407F204602D0FFF791FF04E0A6
:102CA00000F042F8204600F040F8257720680169DE
:102CB000C943C90708D1C168C943C90704D1891EDE
:102CC0000161204600F032F820680169C943090615
:102CD00009D4C168C943090605D46FF080010161B8
:102CE0002046FFF72BFE20680169C943490609D435
:102CF000C168C943490605D46FF04001016120460F
:102D000000F064F820680169C94389060BD4C168E2
:102D1000C943890607D46FF0200101612046BDE850
:102D20007040FFF70CBE70BD7047704710B51C486F
:102D3000FFF754F91A48FFF70FF900EE100ADFED1C
:102D40001A0A184CB8EEC00A9FED181A84ED000A52
:102D500060EE200A80EE810ADFED150A30EE600A8F
:102D6000DFED140A20EE200AF0EE040A80EE201AAD
:102D7000B3EE090A31EE000A84ED010A10EE100AE2
:102D800000F01EFB41EC100B0BA053EC102BFDF7D9
:102D9000F7FA94ED010ABDEEC00A84ED020A10BDF7
:102DA00034000020000000203333534000F07F4502
:102DB0005C8F423F00007A44476961205472692069
:102DC000414443202566200A000000007047FEE7CA
:102DD00007490968C9070AD0054980390968C90740
:102DE00005D04FF060410A68002AFCD00870704797
:102DF000800E00E07FB500241548009401940294F1
:102E00001249039401604FF48031C0E90114046158
:102E1000047680F820400F49C0E90A140125C561F5
:102E2000C46080F830404561FFF799F808B1FEF7BB
:102E3000EBFF1020CDE90005694602940448FEF737
:102E4000E5FF002801D0FEF7DFFF7FBD0020014035
:102E5000340000200100000F30B587B0142168460F
:102E6000FDF700FB15480024016841F08001016076
:102E7000016801F080010591016841F001010160E4
:102E8000016801F001010591016841F00201016052
:102E900000680B4D00F002000590002254212846E6
:102EA000FFF712FA542000900120CDE90104694691
:102EB00028460394FFF710F907B030BD30380240C0
:102EC0000000024010B586B0002417480094019419
:102ED0000294039404944FF080410594016044F2FD
:102EE0009F11C0E9011441F28731C0E903148461E4
:102EF000FFF76EFD08B1FEF787FF4FF4805000909A
:102F000069460948FFF7EEFD08B1FEF77DFF04941E
:102F100004A905480594FFF713FD002801D0FEF72A
:102F200073FF06B010BD00007C000020FEE7FEE746
:102F300070477047FFF7D4B930B593B03021684679
:102F4000FDF790FA14210CA8FDF78CFA1D48002516
:102F5000016841F080510160006800F080501190DC
:102F60001948016841F4804101600068022400F4BE
:102F7000804011900120039010200490009406944A
:102F80000820CDE90750A820CDE9090404200B90C2
:102F90006846FFF709FB08B172B6FEE70CA90F20DF
:102FA00081E831004FF4A0500F904FF48050109002
:102FB00005210CA8FFF72EFA002801D072B6FEE713
:102FC00013B030BD40380240007000400248016834
:102FD00041F470010160704788ED00E00148FFF79F
:102FE000F0BD00007C000020F0B50268254C264DA5
:102FF000264E274F274B4FF0804CA04209D060450A
:1030000007D0A84205D0B04203D0B84201D09842C0
:1030100004D122F0700E4A6842EA0E02A0421BD090
:10302000604519D0A84217D0B04215D0B84213D08D
:10303000984211D0184DA8420ED0184DA8420BD07E
:10304000174DA84208D0174DA84205D0164DA842EA
:1030500002D0164DA84203D122F44075CA682A4313
:103060004D6922F080022A4302608A68C2620A68BF
:103070008262A04201D0984201D109690163012115
:103080004161F0BD00000140000400400008004024
:10309000000C004000040140004001400044014099
:1030A0000048014000180040001C00400020004083
:1030B00010B5846842EA032224F47F440A43224381
:1030C000826010BD826822F070020A4342F007015C
:1030D0008160704710B5036A046A24F00104046239
:1030E000846924F0F00444EA021423F00A020A433B
:1030F0008461026210BD10B5036A23F010030362FD
:103100008369046A23F4704343EA023224F0A00383
:1031100043EA01118261016210BDFEE703B4019828
:103120004100009850EAC12018BF04204A0D18BF82
:1031300040F0010040F2FF72B2EB515F08BF40F077
:103140000200012808BF052002B070470907090ED8
:10315000002804DB00F1E02080F80014704700F044
:103160000F0000F1E02080F8141D70476FF400415B
:10317000401804D0012803D0022801D00814704759
:10318000002070476FF40041401800D000207047C5
:103190006FF40041401805D0012802D0022801D068
:1031A000002070470120704770B504004FF0FF35D4
:1031B00011D020783A280ED10CA12046FDF77AF9DB
:1031C00058B10CA12046FDF775F948B10BA1204676
:1031D000FDF770F938B1284670BD48F2010070BDA6
:1031E00048F2020070BD48F2030070BD3A535444E7
:1031F000494E00003A5354444F5554003A535444F6
:10320000455252004FF0FF30704710B50C466FF436
:103210000041411813464FF0FF3013D0012902D06E
:1032200002290FD106E063B114F8010BFFF7D0FDBE
:103230005B1EF8E72BB114F8010BFFF7C9FD5B1E0D
:10324000F8E7002010BD0000F0B585B00546142257
:1032500022A16846FDF7D4F84FF47A7195FBF1F09E
:1032600095FBF1F201FB12524FF0640192FBF1F277
:1032700095FBF1F301FB13514FF00A0391FBF3F1BE
:1032800095FBF3F61A4C10F0FF00D2B220722271B7
:10329000C9B203FB1653A170637005D110202072D0
:1032A00012B9207101B9A070124E01256F4600229B
:1032B00010213046FFF708F8605D385C00F046F8F2
:1032C000284600F043F8012210213046FEF7FCFFAB
:1032D0006D00092DEBDB05B0F0BD0000C0F9A4B016
:1032E000999282F880908883C6A1868EFF000000A4
:1032F00028000020000002408A68002A01DCFDF757
:1033000041BD521E8A604A68C0B2531C4B601070A7
:1033100070470000FEF7ECFFFFF70EFEFFF79CFD85
:10332000FFF768FDFFF7CEFD0548FEF757FE05489D
:10333000FFF798FB044CA068FFF786FFFBE700004F
:10334000340000207C0000200000002070B50D4EED
:1033500005460024280601D5012200E00022402174
:103360003046FEF7B1FF6D00012204213046FEF722
:10337000ABFF002204213046FEF7A6FF641C082C98
:10338000E8DB70BD0000024010B500290AD00878C3
:10339000002807D005487844FDF78CF8002801D0B4
:1033A000002010BD0248784410BD0000F601000066
:1033B000EE0100000808A0F500114FEA3101704746
:1033C00043004FEAD30C4FEA3C0C43401FBF400779
:1033D0000CF1605113F0FE4F70471CF0006F03D1E9
:1033E00000200CF0004170470CF0004343EA50709D
:1033F00010B540EACC0000F00EF800BF00000092CB
:103400004FEA0001FFF7D6BF4FF000414FF0000038
:10341000A1F5002170470EF1020E2EF0030E5EF8AA
:10342000044B244204D44FEA4102B2F17F4F11D839
:103430004FEA4003B3F17F4F0CD80ED14FEAD07C56
:10344000B2F17F4F0CEB4C0C0CF1020C08BF4CEBB3
:10345000D17C04E04FF0080C01E04FEAD17C0CEB8A
:103460004C0324FA03F404F00704B4F1040C06D26C
:103470000EEB840CBDE810404CF0010C6047DFE817
:103480000CF0070802024FF00040A0F5800010BDCC
:103490000846420018BFD2F1807288BF00F0004099
:1034A00010BD4FF04070E1EE100A7047FDF71EB9F5
:1034B00000000000000000000102030406070809E4
:1034C0003A535444494E003A5354444F5554003AE9
:1034D000535444455252000002400000000000A036
:1034E0000000000005400000000000C800000000CF
:1034F0000C4000000000409C00000000194000004B
:103500000020BCBE0000000034400000BFC91B8E7C
:1035100000000004B5400000504BCFD06607E2CF5A
:10352000010000006C4100003E8251AADFEEA7348A
:1035300001000000D9420000DCB5A0E23A301F973C
:10354000FFFFFFFFB4450000FD25A0C8E9A3C14F60
:10355000FFFFFFFFFF3F00000000008000000000B1
:10356000FF3F00000000008000000000A8350008B8
:103570000000002028000000C4010008D035000829
:1035800028000020F8070000E00100081C000000EF
:1035900043000000F8FFFFFF0C0000000E000000D9
:1035A0000F0000002E0000000000000000000000DE
:1035B00000000000010000001000000000000000FA
:1035C0000024F400000000000000000000000000E3
:040000050800018965
:00000001FF
