:020000040800F2
:100000001008002041020008E31F0008DD1C000862
:10001000E11F0008CD0F000891200008000000003B
:10002000000000000000000000000000E71F0008C2
:10003000CF0F000800000000E51F0008E91F0008BE
:100040005B0200085B0200085B0200085B0200081C
:100050005B0200085B0200085B0200085B0200080C
:100060005B0200085B0200085B0200085B020008FC
:100070005B0200085B0200085B0200085B020008EC
:100080005B0200085B0200085B0200085B020008DC
:100090005B0200085B0200085B0200085B020008CC
:1000A0005B0200085B0200085B0200085B020008BC
:1000B0005B0200085B0200085B0200085B020008AC
:1000C0005B0200085B0200085B0200085B0200089C
:1000D0005B0200085B0200085B0200085B0200088C
:1000E0005B0200085B0200085B0200085B0200087C
:1000F0005B0200085B0200085B0200085B0200086C
:100100005B0200085B0200085B0200085B0200085B
:100110005B0200085B0200085B0200085B0200084B
:100120005B0200085B0200085B0200085B0200083B
:100130005B0200085B0200085B0200085B0200082B
:100140005B0200085B0200085B0200085B0200081B
:100150005B0200085B0200085B0200085B0200080B
:100160005B0200085B0200085B0200085B020008FB
:100170005B0200085B0200085B0200080000000050
:100180005B0200085B02000800F002F800F049F88A
:100190000AA090E8000C82448344AAF10107DA45E2
:1001A00001D100F03EF8AFF2090EBAE80F0013F0EB
:1001B000010F18BFFB1A43F001031847EC2200009F
:1001C0000C230000103A24BF78C878C1FAD852072F
:1001D00024BF30C830C144BF04680C6070470000C1
:1001E0000023002400250026103A28BF78C1FBD840
:1001F000520728BF30C148BF0B607047782900F014
:10020000F780002070471FB502F01CF99DE803003D
:1002100000F0CEFC00F00AFA1FBD10B500F06FFA36
:1002200010BD00F09FFA1146FFF7EDFF02F05EF8F7
:1002300000F08EFC03B4FFF7F0FF03BC00F02AFED1
:100240000948804709480047FEE7FEE7FEE7FEE76A
:10025000FEE7FEE7FEE7FEE7FEE7FEE704480549A6
:10026000054A064B704700008120000889010008FC
:1002700010020020100800201004002010040020AC
:1002800053EA020C00F069802DE9F04B4FF00006B4
:10029000002B1FBFB3FA83F503FA05F424FA05F621
:1002A0005E4012BF1643B2FA82F502FA05F4C5F1B8
:1002B00020051EBF22FA05FC44EA0C04203556EA4C
:1002C000044C4FEA144418BF641C4FF000084FF070
:1002D0000009904271EB030C39D3002919BFB1FA20
:1002E00081F701FA07F6B0FA80F700FA07F6C7F1CE
:1002F00020071EBF20FA07FC46EA0C062037B6FB93
:10030000F4FCA7EB0507103F07F01F0BCBF120060D
:100310000CFA0BFB2CFA06F644BFB3460026202F3E
:10032000A4BF5E464FF0000B5BEA060C08BF4FF01F
:10033000010B19EB0B09ABFB027C48EB0608C01B59
:1003400006FB02CC0BFB03CC71EB0C01C1E70B46A7
:10035000024641464846BDE8F08B13B54FF0000019
:100360004FF00001AFF30080BDE81C407047000073
:100370000FB4044910B503AA029800F029F910BC83
:100380005DF814FB040100202DE9F0410E460446FF
:10039000002020622046E168884730B3252805D038
:1003A000D4E901219047206A401CF2E7E168204629
:1003B00000278847050018D0A5F14100192802D868
:1003C00020354FF400673246294620462760FFF764
:1003D00015FF40B1012804D0F61D26F007060836A7
:1003E000D8E7361DD6E72846DAE7206ABDE8F0816F
:1003F00070B504460D4621461068AFF30080218891
:10040000090502D50F4A7A4402E00E4A7A440E32B8
:10041000002104F1240305E000F00F060009965DB9
:100420005E54491C0028F7D120780023000704D52A
:10043000702D02D009B1022311322046BDE8704070
:1004400000F06DB8732000004FF0000200B51346B5
:1004500094469646203922BFA0E80C50A0E80C50E4
:10046000B1F12001BFF4F7AF090728BFA0E80C5095
:1004700048BF0CC05DF804EB890028BF40F8042B8E
:1004800008BF704748BF20F8022B11F0804F18BFFB
:1004900000F8012B704700004FF0013C50F8042B8E
:1004A00051F8043B9A4221D1A2EB0C03934313EA87
:1004B000CC1317D150F8042B51F8043B9A4215D1B4
:1004C000A2EB0C03934313EACC130BD150F8042B8B
:1004D00051F8043B9A4209D1A2EB0C03934313EA6F
:1004E000CC13DBD04FF00000704700BFD01A01BA28
:1004F000B1FA81F101F0180122FA01F0CB40C1F10B
:100500002001DBB2C0B2C01A2CFA01F3D11A914318
:1005100011EAC311E6D170477047704770472DE963
:10052000F0470D4699469246044600F124080168BA
:10053000880604D5E06921F01001216000E0012067
:10054000A84201DD471B00E00027A1697A1902EBF0
:100550000900081AA0612078C00602D42046AFF333
:100560000080002608E0D4E901211AF8060090472F
:10057000206A401C761C20624E45F4DB2078C006C1
:100580000AD52046AFF3008006E0D4E901213020EF
:100590009047206A401C2062381EA7F10107F4DC56
:1005A00007E0D4E9012118F805009047206A401CB3
:1005B0002062281EA5F10105F3DC2046AFF3008080
:1005C0002078000602D50220BDE8F0870120FBE775
:1005D000074B70B50D467B4400F011F804462846E1
:1005E00000F020F810B14FF0FF3070BD204670BD14
:1005F000B51B000001694A1C02610878704700B50C
:100600008FB0CDE901310021059105497944CDE94B
:10061000031011466846FFF7B7FE0FB000BD00009B
:10062000E5FFFFFF007B00F08000704710B54248F7
:100630005421FFF709FF41485421FFF705FF4048C7
:100640005421FFF701FF3F493B483C4A3F4B0860BC
:100650003D490A603A491960531C0365481C1065FE
:10066000012008653B48344A39A1784400F0D4F9A8
:1006700020B9384878440A3800F073FA37482F4ACE
:1006800035A1784400F0C8F920B9344878440A38D4
:1006900000F067FA32482A4A2FA1784400F0BCF9EA
:1006A00020B92F4878440A3800F05BFA40232248EA
:1006B000DC000021224600F08CF920B12548784466
:1006C000543800F04EFA1D4822464023002100F025
:1006D00080F920B121487844543800F042FA184893
:1006E00022461023002100F074F9002806D01C488F
:1006F0007844BDE81040563800F033BA10BD1048B9
:1007000070B5006D20F001040B4800F0FBF90B48B8
:1007100000F0F8F90A4800F0F5F909E0206D20F042
:100720000105204600F0EEF9204600F040F82C4686
:10073000002CF3D170BD0000B000002004010020A7
:1007400058010020500000205400002058000020D4
:1007500072000000F81D000077000000E71D000097
:10076000D71D0000754600F003FAAE460500694645
:10077000534620F00700854618B020B5FFF76EFD00
:10078000BDE820404FF000064FF000074FF0000892
:100790004FF0000B21F00701AC46ACE8C009ACE813
:1007A000C009ACE8C009ACE8C0098D46704770B517
:1007B0000446051F00F0E0F90068002C14BF4468EF
:1007C00070BD002C18BFAC423CBF20466468F8D313
:1007D00001680A18AA4218BF456003D12A68054675
:1007E0001144016028684119A1421CBF6C6070BDB2
:1007F0006168696021680844286070BD2DE9F04790
:1008000005460C46C86820F4201040F48000C860FB
:10081000800602D5084600F0FCFAE06841F2820149
:100820004FF0FF390140022903D0204600F09AFA28
:10083000B5E000F42041B1F5004F0FD1C00306D55B
:100840006168E06A884200D80846606006E0206976
:10085000E0626060606901F038FCA061A06800227D
:10086000EEB200280DDAE1688B050AD4C043A0601F
:1008700041F490302260E0606068411C6160067065
:10088000A5E0E0689046226040F40050E0602069F6
:1008900068BB606901F01FFC012704F12405A0B1C9
:1008A000A08910F4407F08D0E06900F0B0F9206121
:1008B00018B1E06840F4006016E0E7612561E06887
:1008C00020F4407040F480600EE0E06900F09FF991
:1008D00000282061F1D0E06840F4006010F4407F0F
:1008E000E06002D140F48070E06020696060E06800
:1008F00025696FF0010AC1051FD56168E06A884269
:1009000000D80846411B04D02246284600F034FA9D
:10091000F0BBE068010203D5E562C4E9015854E088
:10092000691CE1626160E16940F48030491EC4E9FC
:10093000021030462E70BDE8F087010202D500F4A7
:1009400080320AE06068411C61600670E0680A2E2F
:1009500040F48030E06006D00022E16A60688142A5
:1009600003D90B4602E00122F7E70346A7895B1B88
:100970007F0503D4E7699F4200DDE2B1814200D8E0
:100980000146E5620F1AC4E90158002B09DD00E0B9
:1009900005E022461946284600F0EEF908B148461F
:1009A000C9E747B1A069E5626560C01BA061E06866
:1009B00040F01000E060E068000208D56168A069BE
:1009C000E562491B08446560A0615046B3E73046C4
:1009D000B1E770B5C468A50713D0650211D4B2F5AC
:1009E000807F09D0B2F5007F06D0B2F5806F08D1C4
:1009F000012300F1240106E05D1E6FF07F46B54241
:100A000001D3012070BD0161C361416024F47061B4
:100A10001143C160002070BD2DE9F0410C4607462E
:100A20001646104600F06EF82078611C61280AD046
:100A3000722802D077283CD102E00125002405E08D
:100A40000225042402E0082448F2020511F8010BF3
:100A50002B2806D0622809D011F8010C74280AD07E
:100A60000BE045F0030544F00204EFE745F0040510
:100A700044F00104EAE744F010043846214601F04E
:100A800037FB411C15D00021316171604FF40071BA
:100A9000F560F1617061200704D530460222002123
:100AA00000F0E4F8306D40F0010030653046BDE8FC
:100AB000F0810020FBE72DE9F0410D460646104C81
:100AC000206DC10704D0410804D020F00104F7E7ED
:100AD00022460EE0542000F09AF807000ED0206D58
:100AE00047F001010843542120653846FFF7ACFC6C
:100AF0003A4629463046BDE8F0418DE70020D6E76A
:100B0000B00000202DE9F04704464FF000094FF0F7
:100B1000FF37C568D4E90486A80707D0204600F04F
:100B200055F9304601F0C5FA002802DA3846BDE82A
:100B3000F087280502D54046FFF739FE4C212046B4
:100B4000FFF782FC206D20F0010020654846EEE7AB
:100B500010B50446AFF300802046BDE81040FFF713
:100B600069BB10B500F07CF9BDE8104000F072B927
:100B700000487047AC01002000487047B4010020D5
:100B8000704770477047704738B504460A460020E2
:100B90006946AFF30080002808BF38BD02460099BF
:100BA000204600F084F9012038BD012000F0D3B9BF
:100BB000F8B5AFF30080054600200C46102000BFBA
:100BC0000646A819A0420DD9324669460020AFF367
:100BD0000080070008BF00F0BEF90098A04218BFCF
:100BE0000546C419FFF7C8FF05600746F01D20F051
:100BF00007004619284600F053F9B44208BFF8BD73
:100C0000A21B31463868BDE8F84000F050B970B515
:100C10000646FFF7B1FF056806F10B0020F0070458
:100C2000B4429CBF002070BD2B466A68BAB1106800
:100C3000A04210D304F1080188423CBF50685860BC
:100C400007D35168101941601168091B0160586091
:100C50001460101D70BD13465268002AE7D121466A
:100C60002846FFF791FF0028DED170BD2DE9F04145
:100C7000044616460D464769007B80072ED038464D
:100C800001F029FA50BB3EB3012E02D0022E25D12D
:100C900004E0204600F025F905441DE0384601F047
:100CA00014FAE168002841F01001E16005DA2046FD
:100CB00000F058F80120BDE8F081C9030BD5626847
:100CC000E16A914200D81146A26911442269891A49
:100CD000814200DD08460544002D01DA0220EAE7E2
:100CE000E16A6068E268814206D29103E06203D55E
:100CF00022F4003141F01002A6690027AE4213DC55
:100D0000E16A814201D90B4600E0034603EB060C81
:100D10002369ACEB030CAC4506DD814201D98C465E
:100D200000E084469C4505D1A760276042F0200082
:100D3000A5620DE0AD1BE669AE1B8142A66000D93D
:100D40000846C01A281A20605819606022F0200056
:100D500003490840E060002084F84870ABE70000D9
:100D6000BFCFD7FFC16821F4001141F08001C160FD
:100D700000218160016070472DE9F04781461446EB
:100D80000E464FF0FF383248D5685769054209D002
:100D90003846A16901F0DAF9002811DB2C48C0437C
:100DA0000540E5602B4632464946384601F0D1F908
:100DB000A16920F00042B21A11440028A16103D0B9
:100DC0002046FFF7CFFF4046BDE8F08770B50446E8
:100DD0000569C06A6168884200D80846E16821F464
:100DE0002011E160C90312D5A84208D02246411B58
:100DF0002846FFF7C1FF10B14FF0FF3070BD002053
:100E0000E562C4E90150E06820F48030E060002031
:100E100070BD10B50446C06820F02000E060A16AF3
:100E2000A06988420DD02046FFF7D0FFE06820F48B
:100E3000405040F01000E060A06AA0612069E062CC
:100E4000606044F24001E0688843E06010BD00004B
:100E500010000200002801D000F01CB8704700000C
:100E600010B5014602A000F05DF8012010BD0000A1
:100E700053494752545245443A2052656469726559
:100E800063743A2063616E2774206F70656E3A2038
:100E90000000000001491820ABBEFEE7260002005A
:100EA00000210160C0E9011070471020704703461F
:100EB00040688C46002818BF88423CBF0346406803
:100EC000F8D318681844884207D00CF1030020F0CA
:100ED0000700001D411A521A0146081D0A60FFF75B
:100EE00066BC10B50146C268900703D0900607D5CE
:100EF000886A0AE000F03EF801210160881E10BDFA
:100F00008B69486818440B69C01A91F848301BB1C6
:100F100091F84910401A10BD1103FCD50028FADDE4
:100F2000401E10BD70B505460C460A2000E06D1C41
:100F300000F018F835B128780028F8D102E0641CD8
:100F400000F010F814B120780028F8D1BDE8704006
:100F50000A2000F007B810B500F010F8BDE8104006
:100F6000FFF778BF08B569468DF800000320ABBED7
:100F700008BD704700487047AC01002010B501283B
:100F800005D0002103A0FFF7CDFF012010BD09A16E
:100F9000F8E7000053494752544D454D3A204F75EC
:100FA00074206F662068656170206D656D6F727961
:100FB000000000003A2048656170206D656D6F7219
:100FC0007920636F7272757074656400FEE7704714
:100FD00072B6FEE770B5044600F006F90546601CDF
:100FE00002D004480078044400F0FEF8401BA04200
:100FF000FAD370BD400000202DE9F84FDFF8BCA106
:101000000022012503264FF00F090AF1040BAAF173
:10101000040E00BF0B6805FA02F42340A34270D10E
:101020000F7907F00307012F01D0022F16D187682F
:101030004FEA420806FA08FC27EA0C07D1F80CC070
:101040000CFA08FC4CEA070CC0F808C04768A74334
:101050000C79C4F3001494403C4344600C79E4439D
:10106000A4070AD0C4684FEA420C06FA0CF7BC4346
:101070008F6807FA0CF72743C7600C7904F0030464
:10108000022C12D1D40800EB840CDCF82040570766
:10109000FF0E09FA07F824EA0804D1F8108008FACC
:1010A00007F848EA0408CCF8208004684FEA420CAC
:1010B00006FA0CF7BC430F7907F0030707FA0CF7A1
:1010C000274307604C6814F4403F70D03C4C2768BD
:1010D00047F480472760246822F0030704F4804423
:1010E0000094384C07EB040CDCF8084897074FEAEB
:1010F000177809FA08F7BC43334FB84202D10027EA
:1011000024E054E0314FB84201D101271EE0304FB6
:10111000B84201D1022719E02E4FB84201D103276E
:1011200014E02D4FB84201D104270FE02B4FB842F5
:1011300001D105270AE02A4FB84201D1062705E070
:10114000284FB84201D1072700E0082707FA08F71F
:101150002743CCF80878DAF800405746D1F804C0A5
:101160009C435FEACC2C00D51C433C60DBF800407C
:101170005F46D1F804C09C435FEA8C2C00D51C4329
:101180003C60DEF800407746D1F804C09C435FEA3B
:101190008C3C00D51C433C60084F083F3C68D1F8AC
:1011A00004C09C435FEACC3C00D51C433C60521C0D
:1011B000102AFFF42FAFBDE8F88F0000083C014073
:1011C0004438024000300140000002400004024068
:1011D00000080240000C02400010024000140240CF
:1011E00000180240001C024001488068704700005F
:1011F0004000002070B5040025D094F83D00002583
:1012000020B984F83C50204600F004FA242084F8E9
:101210003D002068016821F001010160206801683B
:1012200041F4004101602068016821F4004101603F
:1012300000F04AFB4D4A6168914201D84C4900E0F8
:101240004C49884201D2012070BD4B492368B0FB54
:10125000F1F15E6826F03F060E435E6063689342DC
:1012600006D94FF4967359434FF47A73B1FBF3F1F7
:101270002368491C1E6A26F03F06314319626168E3
:10128000914210D84900401EB0FBF1F2521CC2F34B
:101290000B02042A01D2042022E0B0FBF1F0401C32
:1012A000C0F30B001CE0A268F2B301EBC10303EB37
:1012B0000116431EB3FBF6F35B1C43F480431B058E
:1012C00049D092B301EBC10202EB0111401EB0FB09
:1012D000F1F0401CC0F30B0040F4804040F40040AB
:1012E0002168CA694CF6FF739A431043C861D4E978
:1012F000071001432068026822F0C0021143016018
:10130000D4E9030101432068826848F2FF339A431D
:1013100011438160D4E9050108432168CA6822F0BD
:10132000FF021043C86001E00EE016E0206801688B
:1013300041F0010101602564202084F83D0025630F
:1013400084F83E50002070BD01EB4106431EB3FB04
:10135000F6F35B1CB3E70120C2E701EB4101401E3D
:10136000B0FBF1F0401CC0F30B00B7E7A086010012
:1013700080841E0000093D0040420F002DE9FF4F10
:1013800081B089460446FFF72FFF054694F83D00DB
:101390004FF0000820287DD1192301225049204612
:1013A000009500F027FD002874D194F83C00012836
:1013B00070D0012084F83C0020680168C90703D17F
:1013C000016841F0010101602068016821F40061B9
:1013D0000160242084F83D00002626644148E06234
:1013E0004FF0011B20272068016841F480710160E3
:1013F0000095002259462046049B00F0FBFC50B1AA
:1014000020680068C00502D54FF4007020640320F6
:1014100005B0BDE8F08F216809F0FE000861FFF714
:10142000E3FE2168054648694969C0F34000C1F3FD
:1014300080214FF0A00A0FE0FFF7D6FE411B049871
:10144000814200D808B984F83DA0216848694969FB
:10145000C0F34000C1F3802194F83D20A02A02D0BF
:1014600008B90029E8D084F83D7020684169C94373
:10147000890716D4016841F4007101602068416950
:1014800080691923012216492046009500F0B2FC1C
:10149000B8B900E021E084F83D7084F83C60002099
:1014A000B6E7016841F40071016021686FF4806063
:1014B0004861192301220A492046009500F09AFC50
:1014C00008B10120A4E7039808F1010880458AD3F8
:1014D00084F83D7084F83C60F3E7022098E7000050
:1014E000020010000000FFFF2DE9F84F1F46904654
:1014F0008A460446DDF82890FFF776FE054694F804
:101500003D0020287FD11923012240492046009523
:1015100000F070FC002876D194F83C00012872D0CD
:10152000012084F83C0020680168C90703D10168E4
:1015300041F0010101602068016821F4006101604F
:10154000212084F83D00102084F83E000026266407
:10155000C4F824806785608D20852D48E0622B4685
:101560004A465146204600F0D1FB90B920684169B7
:101570008069009036E02A464946204600F0B9FCD2
:1015800050B1206C042804D12068016841F4007136
:1015900001600120BDE8F88F606A21680078086169
:1015A000606A401C6062618D491E6185218D491E03
:1015B00089B2218522685369DB435B070BD451B1A3
:1015C00000781061606A401C6062608D401E60851A
:1015D000208D401E20852A464946204600F0E4FB27
:1015E0000028CED1208D0028C5D154F83D0B0168CC
:1015F00041F400710160202004F81E09E677667747
:101600000020C7E7FFE70220C4E700000200100047
:101610000000FFFF10B586B0044614216846FEF7AF
:1016200013FF13492068884220D112480021026824
:1016300042F002020260006800F002000590C02043
:1016400000901220CDE901010320039004200490B2
:1016500069460948FFF7D0FC06481030016841F49C
:1016600000110160006800F40010059006B010BD84
:1016700000540040303802400004024002488168B3
:101680000278114481607047400000200B4810B57B
:10169000016841F400710160016841F480610160FA
:1016A000016841F480710160032000F061F80F20AF
:1016B00000F006F800F024F8002010BD003C0240C5
:1016C00070B50D4D04464FF47A712878B1FBF0F0F7
:1016D0000A490968B1FBF0F000F0ECFA48B9102CA7
:1016E00007D200222146501E00F022F800206C6034
:1016F00070BD012070BD0000400000204C000020A3
:101700000A4808B5016841F480410160006800F4AE
:10171000804000900548001F016841F08051016041
:10172000006800F08050009008BD0000443802407E
:10173000F0B40E4B1B680C46C3F30223C3F107053C
:10174000042D00D90425191D072901D2002300E02A
:10175000DB1E012606FA05F1491E214099409E40F4
:10176000761E16403143F0BC00F093BC0CED00E057
:10177000064900F0070208684FF6FF03184040EAE8
:101780000220034A10430860704700000CED00E09F
:101790000000FA052DE9F0470E46050065D0DFF898
:1017A0001481D8F80000F7B200F00700B04207D269
:1017B00088F80070D8F8000000F00700B04254D15B
:1017C00028683D4C810712D5400703D5206840F4B6
:1017D000E05020602878000703D5206840F460407E
:1017E00020602068A96820F0F00008432060287875
:1017F000C0072DD0304968680839012812D0022866
:1018000013D0032811D00968890700292DDA21682F
:1018100021F0030101432160FFF7E6FC814641F21C
:10182000883A0EE009688903EFE709688901ECE767
:10183000FFF7DAFCA0EB0901514502D90320BDE80E
:10184000F0872068696800F00C00B0EB810FEFD1E1
:10185000D8F80010404601F00701B14207D90770DF
:10186000006800F00700B04201D00120E7E72878C7
:10187000400705D52068E96820F4E050084320605F
:101880002878000706D52068296920F4604040EADE
:10189000C100206000F028F82168084AC1F3031154
:1018A000515CC8400649086006480068FFF708FF19
:1018B0000020C4E7003C0240083802404E240008E3
:1018C0004C000020440000200448054900680968D5
:1018D000044AC1F38221515CC84070474C0000208B
:1018E000083802405E240008154810B5006810F062
:1018F0000C02144813D04110042A0FD0082A0ED12C
:101900000F4C241F2268236802F03F025B0207D5B8
:101910002068C0F38810A0FB010106E0084610BD56
:101920002168C1F38811A1FB00010023FEF7A8FC88
:101930002168C1F30141491C4900B0FBF1F010BD21
:10194000083802400024F4002DE9F84F04006ED05E
:101950002078DFF84C93C007A9F104054AD009F1BB
:1019600004000168C1F38101012908D00068C0F3B7
:10197000810002280AD1D9F80000400206D5286863
:10198000800337D560680028E1D033E06068B0F5A7
:10199000803F10D0B0F5A02F286810D020F4803000
:1019A0002860286820F4802028606068A8B1FFF7CC
:1019B0001BFC06460DE0286840F48030F4E740F454
:1019C00080202860F7E700BFFFF70EFC801B64282B
:1019D00073D828688003F7D50CE0FFF705FC0646AE
:1019E00005E000BFFFF700FC801B6428F0D82868E2
:1019F0008003F7D42078DFF8AC8280074FF0000A2C
:101A00003ED5A748001D016811F00C0F08D00068F2
:101A1000C0F3810002280BD1D9F80000400207D49E
:101A20002868800716D5E068012800D112E033E16C
:101A3000E068B8B10120C8F80000FFF7D5FB064602
:101A400005E000BFFFF7D0FB801B0228C0D8286844
:101A50008007F7D52868216920F0F80040EAC10026
:101A600028600DE0C8F800A0FFF7BEFB064604E0C2
:101A7000FFF7BAFB801B02281FD828688007F7D41D
:101A80002078000722D5864F87486169703771B189
:101A900001210160FFF7A8FB064604E0FFF7A4FB65
:101AA000801B022809D838688007F7D50EE0C0F8F7
:101AB00000A0FFF799FB064605E082E0FFF794FBE4
:101AC000801B02287DD838688007F7D4207840072B
:101AD00068D5DFF8CCB100270BF13C0BDBF8000038
:101AE000C0000BD4DBF8001041F08051CBF800109F
:101AF000DBF80000012700F0805000906B4E30684A
:101B0000C00510D4306840F480703060FFF76CFB83
:101B1000009005E0FFF768FB0099401A022850D8B2
:101B20003068C005F6D55E4EA0686C3601280FD02F
:101B30000528306810D020F001003060306820F0B7
:101B400004003060A068B8B1FFF74EFB00900FE0D2
:101B5000306840F00100F4E740F004003060F7E73F
:101B6000FFF742FB0099411A41F28830814266D862
:101B700030688007F4D50EE0FFF736FB009007E0F1
:101B8000FFF732FB0099411A41F28830814256D862
:101B900030688007F4D42FB1DBF8001021F08051B9
:101BA000CBF80010A069C8B33D49091D0968C1F30D
:101BB000810102294AD00228504607D0C8F86000A7
:101BC00000E03CE0FFF710FB04463BE04746C8F866
:101BD0006000FFF709FB064605E000BFFFF704FBC6
:101BE000801B02282BD828688001F7D4D4E907018C
:101BF0000843A16A2E4A490802EB0141626A41EAA0
:101C00008211084394F82C1040EA0161C9F80010D1
:101C100001203866FFF7E8FA044606E03EE000BF20
:101C2000FFF7E2FA001B022809D828688001F7D5DF
:101C300034E000BFFFF7D8FA001B022802D90320C6
:101C4000BDE8F88F28688001F4D427E00128F7D098
:101C5000D9F80000E26900F4800191421CD1226AA7
:101C600000F03F01914217D147F6C071626A01400E
:101C7000B1EB821F10D1A26A4FF0FF3300F4403164
:101C800003EB5202B1EB024F06D194F82C1000F096
:101C90007060B0EB016F01D00120D1E70020CFE7E9
:101CA0000438024000004742800E47420070004066
:101CB0000000FFFF10B5401EB0F1807F01D301206E
:101CC00010BD4FF0E02460610F21601700F0E1F9D2
:101CD0000020A06107202061002010BDFEE7016800
:101CE0004A69D24352050FD46FF480624A610021E1
:101CF00040F8301F202242738173026942F00402CF
:101D0000026101730120704700207047F8B5044656
:101D1000C06A1E460D461746082807D0012805D080
:101D200010F5803F02D0206B122804D12068016892
:101D300041F480710160134600224FF001112046EA
:101D4000009600F057F840B120680068C00502D541
:101D50004FF4007020640320F8BD2069B0F5804F77
:101D60000ED00620216800EAD51040F0F00008618E
:101D700033463A460B49204600F070F878B902E045
:101D800005F0FE0000E0E8B221680861054933462D
:101D90003A46891F204600F061F80028DCD0012077
:101DA000F8BD00000800010070B516460D46044657
:101DB0000DE02046FFF793FF08B1012070BD681CBD
:101DC00005D0FFF711FA801BA84207D835B120686B
:101DD0004069C0434007ECD4002070BD002044F8A7
:101DE000300F20216173A073216941F0200121612E
:101DF0002073E2E72DE9F0471E4690460D46044663
:101E0000C1F30747DDF8209008E0701C06D0FFF70B
:101E1000EBF9A0EB0900B0420FD876B12068012F92
:101E200018D0806925EA00000004000C14D00021BD
:101E30004145EAD00020BDE8F087002044F8300F8B
:101E400020216173A073216941F020012161207379
:101E50000120F0E74069E5E70121E9E72DE9F047D6
:101E60009A4691460E46044600254FF02008C1F3DD
:101E7000074725E020684069C043400514D4206826
:101E8000016841F40071016021686FF4806048616D
:101E9000256384F83D8084F83E50206C40F00400B7
:101EA000206484F83C501FE0B9F1FF3F08D0FFF7F1
:101EB0009BF9A0EB0A0149450CD8B9F1000F09D0F4
:101EC0002068012F13D0806926EA00000004000C6E
:101ED0000BD0CFE744F8305F84F80D80A5732069FC
:101EE00040F02000206125730120BDE8F0874069A3
:101EF000EAE770B516460D4604460DE02046FFF7AA
:101F0000EEFE08B1012070BD681C05D0FFF76CF92A
:101F1000801BA84207D835B120684069C04300063D
:101F2000ECD4002070BD002044F8300F20216173F4
:101F3000A073216941F0200121612073E2E70000D4
:101F400007490968C9070AD0054980390968C907DE
:101F500005D04FF060410A68002AFCD00870704735
:101F6000800E00E00D4808B5016841F08001016075
:101F7000016801F080010091016841F001010160F8
:101F8000016801F001010091016841F00201016066
:101F9000006800F00200009008BD000030380240E8
:101FA0000D4810B50B4901600C49416000214FF408
:101FB00080428160C0E9031241618161C1610162B7
:101FC000FFF718F9002803D0BDE81040FFF700B86C
:101FD00010BD0000005400405C000020A0860100FD
:101FE000FEE7FEE770477047FFF748BB30B593B098
:101FF00030216846FEF728FA14210CA8FEF724FACF
:102000001D480025016841F080510160006800F022
:10201000805011901948016841F4804101600068C6
:10202000022400F4804011900120009000040190EF
:102030008001CDE9064008AA0420A82182E8130007
:102040000B906846FFF780FC08B172B6FEE70CA95A
:102050000F2081E831004FF4A0500F904FF48050D2
:10206000109005210CA8FFF795FB002801D072B64F
:10207000FEE713B030BD0000403802400070004061
:102080000248016841F470010160704788ED00E08A
:10209000FEE70907090E002804DB00F1E02080F8C4
:1020A0000014704700F00F0000F1E02080F8141DCC
:1020B00070476FF40041401804D0012803D0022873
:1020C00001D008147047002070476FF40041401899
:1020D00000D0002070476FF40041401805D001285F
:1020E00002D0022801D00020704701207047000074
:1020F00070B504004FF0FF3511D020783A280ED18A
:102100000CA12046FEF7C8F958B10CA12046FEF7F5
:10211000C3F948B10BA12046FEF7BEF938B12846F5
:1021200070BD48F2010070BD48F2020070BD48F277
:10213000030070BD3A535444494E00003A5354448E
:102140004F5554003A535444455252004FF0FF301B
:10215000704710B50C466FF40041411813464FF01C
:10216000FF3013D0012902D002290FD106E063B15C
:1021700014F8010BFFF7E4FE5B1EF8E72BB114F82F
:10218000010BFFF7DDFE5B1EF8E7002010BD8A683B
:10219000002A01DCFEF732BB521E8A604A68C0B2D8
:1021A000531C4B601070704710B5802000F05EF833
:1021B0000024202000F07AF8641C462CF9DB10BDC6
:1021C00010B53220FEF706FF302000F04FF8052052
:1021D000FEF700FF302000F049F80120FEF7FAFE7C
:1021E000302000F043F80A20FEF7F4FE202000F033
:1021F0003DF80A20FEF7EEFE282000F037F8012017
:10220000FEF7E8FE082000F031F80120FEF7E2FEBC
:10221000012000F02BF80120FEF7DCFE0120FEF784
:10222000D9FE062000F022F80120FEF7D3FE0C2094
:1022300000F01CF8BDE810400520FEF7CBBE30B121
:10224000012807D0022808D003280BD108E041F06C
:10225000800107E041F0C00104E041F0940101E099
:1022600041F0D401C8B200F001B800001CB500F084
:10227000F00141F00C028DF8042041F0080100014A
:102280008DF8051040F00C018DF8061040F00800A4
:102290008DF8070064200090042301AA4E21024813
:1022A000FFF722F91CBD00005C0000201CB500F007
:1022B000F00141F00D028DF8042041F00901000108
:1022C0008DF8051040F00D018DF8061040F0090062
:1022D0008DF8070064200090042301AA4E210248D3
:1022E000FFF702F91CBD00005C000020FFF7CEF9EB
:1022F000FFF77CFEFFF736FEFFF752FE01244FF694
:10230000FF7500BF05EA4401052303224248FFF799
:1023100035F818B141A0FEF72BF803E0214640A0A4
:10232000FEF726F8641C802CECDBFFF749FF6420E5
:10233000FEF750FE4020FFF799FF414D0024285D35
:10234000FFF7B4FF641C082CF9DB4820FFF78EFF71
:102350003B4D00240835285DFFF7A8FF641C082CBE
:10236000F9DB5020FFF782FF354D00241035285D42
:10237000FFF79CFF641C082CF9DB5820FFF776FF61
:102380002F4D00241835285DFFF790FF641C082CA2
:10239000F9DB6020FFF76AFF294D00242035285D16
:1023A000FFF784FF641C082CF9DB6820FFF75EFF51
:1023B000234D00242835285DFFF778FF641C082C86
:1023C000F9DB7020FFF752FF1D4D00243035285DEA
:1023D000FFF76CFF641C082CF9DB7820FFF746FF41
:1023E000174D00243835285DFFF760FF641C082C6A
:1023F000F9DB4FF47A7500210120FFF720FF00245C
:10240000E0B2FFF753FF641C082CF9DB2846FEF707
:10241000E1FDFFF7C9FEEEE75C0000202D200A0079
:1024200048414C5F4932435F49734465766963654F
:1024300052656164793A2030782558200A000000FE
:10244000000000204FF04070E1EE100A70470000DD
:102450000000000000000102030406070809000054
:102460000000010203043A535444494E003A5354C5
:10247000444F5554003A535444455252003031327F
:102480003334353637383941424344454640305875
:102490000030313233343536373839616263646540
:1024A0006640307800000000C824000800000020CA
:1024B0005C000000C4010008242500085C00002026
:1024C000B4070000E001000800000A00110E00003F
:1024D0000E0E040E15040A0A080C0E0F0E0C08004E
:1024E00000040E0E0E1F040000000A15110E040059
:1024F000000E1111110A1B000E1017121212100EED
:1025000004041F0404001F0001000000100000006C
:10251000000000000024F4000000000000000000A3
:0425200000000000B7
:040000050800018965
:00000001FF
