:020000040800F2
:10000000C806002029020008BB1200083D120008A3
:10001000B9120008E9050008691300080000000093
:10002000000000000000000000000000BF120008F7
:10003000EB05000800000000BD120008C112000816
:10004000430200084302000843020008430200087C
:10005000430200084302000843020008430200086C
:10006000430200084302000843020008430200085C
:10007000430200084302000843020008430200084C
:10008000430200084302000843020008430200083C
:10009000430200084302000843020008430200082C
:1000A000430200084302000843020008430200081C
:1000B000430200084302000843020008430200080C
:1000C00043020008430200084302000843020008FC
:1000D00043020008430200084302000843020008EC
:1000E00043020008430200084302000843020008DC
:1000F00043020008430200084302000843020008CC
:1001000043020008430200084302000843020008BB
:1001100043020008430200084302000843020008AB
:10012000430200084302000843020008430200089B
:10013000430200084302000843020008430200088B
:10014000430200084302000843020008430200087B
:10015000430200084302000843020008430200086B
:10016000430200084302000843020008430200085B
:100170004302000843020008430200080000000098
:10018000430200084302000800F002F800F03CF8C7
:100190000AA090E8000C82448344AAF10107DA45E2
:1001A00001D100F031F8AFF2090EBAE80F0013F0F8
:1001B000010F18BFFB1A43F001031847A8120000F3
:1001C000C8120000103A24BF78C878C1FAD8520784
:1001D00024BF30C830C144BF04680C6070470000C1
:1001E0000023002400250026103A28BF78C1FBD840
:1001F000520728BF30C148BF0B6070471FB501F0E0
:1002000023F91FBD10B510BD00F0CFF81146FFF760
:10021000F5FF01F0BBF800F0EDF803B4FFF7F2FFD3
:1002200003BC00F0F5F80000094880470948004782
:10023000FEE7FEE7FEE7FEE7FEE7FEE7FEE7FEE796
:10024000FEE7FEE704480549054A064B70470000F3
:100250005913000889010008C8000020C8060020C2
:10026000C8020020C802002053EA020C00F0698096
:100270002DE9F04B4FF00006002B1FBFB3FA83F5BA
:1002800003FA05F424FA05F65E4012BF1643B2FAEB
:1002900082F502FA05F4C5F120051EBF22FA05FC1D
:1002A00044EA0C04203556EA044C4FEA144418BFC3
:1002B000641C4FF000084FF00009904271EB030CF2
:1002C00039D3002919BFB1FA81F701FA07F6B0FA5C
:1002D00080F700FA07F6C7F120071EBF20FA07FCD7
:1002E00046EA0C062037B6FBF4FCA7EB0507103FE7
:1002F00007F01F0BCBF120060CFA0BFB2CFA06F6CD
:1003000044BFB3460026202FA4BF5E464FF0000B2B
:100310005BEA060C08BF4FF0010B19EB0B09ABFBB6
:10032000027C48EB0608C01B06FB02CC0BFB03CC8F
:1003300071EB0C01C1E70B46024641464846BDE859
:10034000F08B13B54FF000004FF00001AFF30080C9
:10035000BDE81C4070474FF0000200B513469446BC
:100360009646203922BFA0E80C50A0E80C50B1F10D
:100370002001BFF4F7AF090728BFA0E80C5048BF21
:100380000CC05DF804EB890028BF40F8042B08BFBF
:10039000704748BF20F8022B11F0804F18BF00F8BB
:1003A000012B7047704770477047754600F02CF876
:1003B000AE4605006946534620F00700854618B052
:1003C00020B5FFF73FFFBDE820404FF000064FF09B
:1003D00000074FF000084FF0000B21F00701AC467A
:1003E000ACE8C009ACE8C009ACE8C009ACE8C00999
:1003F0008D46704710B50446AFF300802046BDE837
:100400001040FFF70ABF0000004870476800002056
:1004100001491820ABBEFEE726000200704700002D
:10042000464910B54A6822F440324A604A68436837
:100430001A434A6001684A6822F480724A6001687F
:100440004A68036942EA03224A6001684A6822F066
:1004500040724A6001684A6883681A434A600168CA
:100460008A6822F400628A6001688A68C3681A4355
:100470008A60816A6FF07062D14201688A6822F0F6
:1004800070628A6001688A680CD0836A1A438A6045
:1004900001688A6822F040528A6001688A68C36AEB
:1004A0001A4301E022F040528A6001688A6822F013
:1004B00002028A6001688A68037E42EA43028A6017
:1004C00090F82010002901684A680FD042F40062B9
:1004D0004A6001684A6822F460424A6001684A68DA
:1004E000174C436A04EB43331A4301E022F40062E1
:1004F0004A600168CA6A22F47002CA620168CA6A64
:10050000838B104C04EB03531A43CA6201688A6858
:1005100022F400728A6001688A6890F8303042EAFA
:1005200043228A6001688A6822F480628A600168D6
:100530008A68406942EA8020886010BD002301403B
:1005400000E0FFFF0000F0FF1FB5002000900390C7
:1005500001200190042002906946044800F048F808
:10056000002801D072B6FEE71FBD00002000002069
:100570001FB500200390012000900220019004206C
:1005800002906946034800F033F8002801D072B6A3
:10059000FEE71FBD200000201FB5002003901020A3
:1005A000009003200190042002906946034800F067
:1005B0001FF8002801D072B6FEE71FBD2000002002
:1005C0001FB500200390112000900420019002909C
:1005D0006946044800F00CF8002801D072B6FEE726
:1005E0001FBD000020000020FEE7704772B6FEE746
:1005F00078B50024009490F83C20012A19D00122FB
:1006000080F83C200A6807230568092A13D9EE6898
:100610000A3A02EB420293409E43EE600B788A68EE
:100620000A3B03EB43039A400368DD682A43DA6020
:1006300010E0022078BD2E6902EB420293409E43F7
:100640002E610B788A6803EB43039A4003681D69A7
:100650002A431A614A681F23072A13D205686E6B62
:10066000521E02EB820293409E436E630B790A880E
:100670005B1E92B203EB83039A4003685D6B2A43CF
:100680005A6327E005680D2A12D22E6BD21F02EBA7
:10069000820293409E432E630B790A88DB1F92B23D
:1006A00003EB83039A4003681D6B2A431A6311E02E
:1006B000EE6A0D3A02EB820293409E43EE620B79A2
:1006C0000A880D3B92B203EB83039A400368DD6A0C
:1006D0002A43DA62164B0568144A9D4206D10D681A
:1006E000122D03D1556845F48005556005689D427B
:1006F00018D10B68102B01D0112B13D1536843F480
:1007000000035360096810290CD10A490A4A096894
:10071000B1FBF2F101EB8101490000E0491E0091BB
:100720000029FBD180F83C40002078BD0023014027
:10073000002001400C00002040420F000068C06C07
:10074000704770B504004FF0000503D0206C002600
:1007500010B107E0012070BD204600F01DF866646E
:1007600084F83C60206CC00610D4206C20F48850C3
:1007700040F0020020642046FFF752FE6664206CC1
:1007800020F0020040F00100206400E0012584F820
:100790003C60284670BD000010B586B004461421A8
:1007A0006846FFF7D8FD1149206888421BD11048E0
:1007B0000021026842F480720260006800F48070D8
:1007C00005900B481438026842F00102026000688C
:1007D00000F00100059003200090CDE90101694679
:1007E000044800F00DF906B010BD000000200140E3
:1007F00044380240000002402DE9F0410446006800
:100800000D4681684FF0000749050BD58068C0058B
:1008100008D5206C40F02000206484F83C70012052
:10082000BDE8F08100F0E4F9064613E0681C11D041
:1008300025B100F0DDF9801BA8420BD920680068C3
:10084000800707D4206C40F00400206484F83C70DA
:100850000320E5E7206800688007E7D521686FF08E
:1008600012000860206C40F40070206420688168E9
:1008700011F0405F13D1217E89B9C16A11F4700F64
:1008800002D0806840050AD4206C20F48070206477
:10089000206CC00403D4206C40F0010020640020D0
:1008A000BEE7000018B50021009190F83C20012A15
:1008B00007D0012280F83C2002689368DB0702D051
:1008C00011E0022018BD936843F0010393602E4AA3
:1008D0002E4B1268B2FBF3F202EB420200E0521E12
:1008E0000092002AFBD102689368DB0742D0036CB8
:1008F00040F20164A34343F48073036453685B05CF
:1009000005D5036C23F4005343F480530364036C54
:10091000DB0404D5436C23F00603436400E0416428
:1009200080F83C101A496FF0220313604968006890
:10093000CA06184906D0884224D1816811F0405F68
:1009400013D01FE08842F8D0134A904203D1D1F867
:100950000423D206F1D0114A904213D1D1F80413E6
:1009600001F01F011029E8D30CE0816841F08041BB
:10097000816007E0016C41F010010164416C41F0BD
:1009800001014164002018BD0C00002040420F000E
:1009900000230140002001400021014000220140CD
:1009A00090F83C1001290CD0012180F83C1001681E
:1009B0008A6822F001028A6001688968C90702D04A
:1009C00007E002207047016C21F4885141F00101D9
:1009D0000164002180F83C100846704770B5044659
:1009E00000F006F90546601C02D004480078044473
:1009F00000F0FEF8401BA042FAD370BD00000020BA
:100A00002DE9F84FDFF8BCA10022012503264FF0A5
:100A10000F090AF1040BAAF1040E00BF0B6805FAD6
:100A200002F42340A34270D10F7907F00307012F8E
:100A300001D0022F16D187684FEA420806FA08FC57
:100A400027EA0C07D1F80CC00CFA08FC4CEA070C9A
:100A5000C0F808C04768A7430C79C4F30014944059
:100A60003C4344600C79E443A4070AD0C4684FEACD
:100A7000420C06FA0CF7BC438F6807FA0CF72743C1
:100A8000C7600C7904F00304022C12D1D40800EBE7
:100A9000840CDCF820405707FF0E09FA07F824EA17
:100AA0000804D1F8108008FA07F848EA0408CCF8DE
:100AB000208004684FEA420C06FA0CF7BC430F7919
:100AC00007F0030707FA0CF7274307604C6814F494
:100AD000403F70D03C4C276847F48047276024682B
:100AE00022F0030704F480440094384C07EB040C14
:100AF000DCF8084897074FEA177809FA08F7BC436B
:100B0000334FB84202D1002724E054E0314FB842BD
:100B100001D101271EE0304FB84201D1022719E070
:100B20002E4FB84201D1032714E02D4FB84201D116
:100B300004270FE02B4FB84201D105270AE02A4FC6
:100B4000B84201D1062705E0284FB84201D1072756
:100B500000E0082707FA08F72743CCF80878DAF806
:100B600000405746D1F804C09C435FEACC2C00D526
:100B70001C433C60DBF800405F46D1F804C09C4356
:100B80005FEA8C2C00D51C433C60DEF800407746C1
:100B9000D1F804C09C435FEA8C3C00D51C433C6008
:100BA000084F083F3C68D1F804C09C435FEACC3C46
:100BB00000D51C433C60521C102AFFF42FAFBDE847
:100BC000F88F0000083C01404438024000300140EA
:100BD000000002400004024000080240000C0240F5
:100BE000001002400014024000180240001C0240A5
:100BF00001488068704700000000002002488168BA
:100C00000278114481607047000000200B4810B545
:100C1000016841F400710160016841F48061016084
:100C2000016841F480710160032000F061F80F2039
:100C300000F006F800F024F8002010BD003C02404F
:100C400070B50D4D04464FF47A712878B1FBF0F081
:100C50000A490968B1FBF0F000F0DCFA48B9102C41
:100C600007D200222146501E00F022F800206C60BE
:100C700070BD012070BD0000000000200C000020AD
:100C80000A4808B5016841F480410160006800F439
:100C9000804000900548001F016841F080510160CC
:100CA000006800F08050009008BD00004438024009
:100CB000F0B40E4B1B680C46C3F30223C3F10705C7
:100CC000042D00D90425191D072901D2002300E0B5
:100CD000DB1E012606FA05F1491E214099409E407F
:100CE000761E16403143F0BC00F03FBB0CED00E037
:100CF000064900F0070208684FF6FF03184040EA73
:100D00000220034A10430860704700000CED00E029
:100D10000000FA052DE9F0470E46050065D0DFF822
:100D20001481D8F80000F7B200F00700B04207D2F3
:100D300088F80070D8F8000000F00700B04254D1E5
:100D400028683D4C810712D5400703D5206840F440
:100D5000E05020602878000703D5206840F4604008
:100D600020602068A96820F0F000084320602878FF
:100D7000C0072DD0304968680839012812D00228F0
:100D800013D0032811D00968890700292DDA2168BA
:100D900021F0030101432160FFF72AFF814641F260
:100DA000883A0EE009688903EFE709688901ECE7F2
:100DB000FFF71EFFA0EB0901514502D90320BDE852
:100DC000F0872068696800F00C00B0EB810FEFD16C
:100DD000D8F80010404601F00701B14207D907706A
:100DE000006800F00700B04201D00120E7E7287852
:100DF000400705D52068E96820F4E05008432060EA
:100E00002878000706D52068296920F4604040EA68
:100E1000C100206000F018F82168084AC1F30311EE
:100E2000515CC8400649086006480068FFF708FFA3
:100E30000020C4E7003C0240083802405214000879
:100E40000C00002004000020154810B5006810F0C8
:100E50000C02144813D04110042A0FD0082A0ED1D6
:100E60000F4C241F2268236802F03F025B0207D563
:100E70002068C0F38810A0FB010106E0084610BD01
:100E80002168C1F38811A1FB00010023FFF7ECF9F1
:100E90002168C1F30141491C4900B0FBF1F010BDCC
:100EA000083802400024F4002DE9F84F04006ED009
:100EB0002078DFF84C93C007A9F104054AD009F166
:100EC00004000168C1F38101012908D00068C0F362
:100ED000810002280AD1D9F80000400206D528680E
:100EE000800337D560680028E1D033E06068B0F552
:100EF000803F10D0B0F5A02F286810D020F48030AB
:100F00002860286820F4802028606068A8B1FFF776
:100F10006FFE06460DE0286840F48030F4E740F4A8
:100F200080202860F7E700BFFFF762FE801B64287F
:100F300073D828688003F7D50CE0FFF759FE064602
:100F400005E000BFFFF754FE801B6428F0D8286836
:100F50008003F7D42078DFF8AC8280074FF0000AD6
:100F60003ED5A748001D016811F00C0F08D000689D
:100F7000C0F3810002280BD1D9F80000400207D449
:100F80002868800716D5E068012800D112E033E117
:100F9000E068B8B10120C8F80000FFF729FE064656
:100FA00005E000BFFFF724FE801B0228C0D8286898
:100FB0008007F7D52868216920F0F80040EAC100D1
:100FC00028600DE0C8F800A0FFF712FE064604E016
:100FD000FFF70EFE801B02281FD828688007F7D471
:100FE0002078000722D5864F87486169703771B134
:100FF00001210160FFF7FCFD064604E0FFF7F8FD64
:10100000801B022809D838688007F7D50EE0C0F8A1
:1010100000A0FFF7EDFD064605E082E0FFF7E8FDE2
:10102000801B02287DD838688007F7D420784007D5
:1010300068D5DFF8CCB100270BF13C0BDBF80000E2
:10104000C0000BD4DBF8001041F08051CBF8001049
:10105000DBF80000012700F0805000906B4E3068F4
:10106000C00510D4306840F480703060FFF7C0FDD8
:10107000009005E0FFF7BCFD0099401A022850D807
:101080003068C005F6D55E4EA0686C3601280FD0DA
:101090000528306810D020F001003060306820F062
:1010A00004003060A068B8B1FFF7A2FD00900FE027
:1010B000306840F00100F4E740F004003060F7E7EA
:1010C000FFF796FD0099411A41F28830814266D8B7
:1010D00030688007F4D50EE0FFF78AFD009007E046
:1010E000FFF786FD0099411A41F28830814256D8B7
:1010F00030688007F4D42FB1DBF8001021F0805164
:10110000CBF80010A069C8B33D49091D0968C1F3B7
:10111000810102294AD00228504607D0C8F8600051
:1011200000E03CE0FFF764FD04463BE04746C8F8BA
:101130006000FFF75DFD064605E000BFFFF758FDC4
:10114000801B02282BD828688001F7D4D4E9070136
:101150000843A16A2E4A490802EB0141626A41EA4A
:101160008211084394F82C1040EA0161C9F800107C
:1011700001203866FFF73CFD044606E03EE000BF74
:10118000FFF736FD001B022809D828688001F7D533
:1011900034E000BFFFF72CFD001B022802D903201A
:1011A000BDE8F88F28688001F4D427E00128F7D043
:1011B000D9F80000E26900F4800191421CD1226A52
:1011C00000F03F01914217D147F6C071626A0140B9
:1011D000B1EB821F10D1A26A4FF0FF3300F440310F
:1011E00003EB5202B1EB024F06D194F82C1000F041
:1011F0007060B0EB016F01D00120D1E70020CFE794
:101200000438024000004742800E47420070004010
:101210000000FFFF10B5401EB0F1807F01D3012018
:1012200010BD4FF0E02460610F21601700F09DF8C1
:101230000020A06107202061002010BDFEE7000013
:10124000104810B50E4A026000214FF48032C0E908
:10125000012101220261027680F820100A4BC0E9C8
:101260000A310423C361C16080F830104261FFF786
:1012700068FA002803D0BDE81040FFF7B7B910BDE9
:1012800000200140200000200100000F094808B59F
:10129000016841F080010160016801F08001009166
:1012A000016841F001010160006800F00100009058
:1012B00008BD000030380240FEE7FEE77047704787
:1012C000FFF79CBC30B593B030216846FFF743F878
:1012D00014210CA8FFF73FF81D480025016841F0D4
:1012E00080510160006800F0805011901948016839
:1012F00041F4804101600068022400F480401190B4
:1013000001200090000401908001CDE9064008AA68
:101310000420A82182E813000B906846FFF7C4FD63
:1013200008B172B6FEE70CA90F2081E831004FF436
:10133000A0500F904FF48050109005210CA8FFF79B
:10134000E9FC002801D072B6FEE713B030BD000002
:1013500040380240007000400248016841F47001CA
:101360000160704788ED00E0FEE70907090E0028DC
:1013700004DB00F1E02080F80014704700F00F005B
:1013800000F1E02080F8141D70470000FFF73EFCDC
:10139000FFF798FFFFF77AFFFFF752FF284C4FF453
:1013A0007A7500BFFFF7D0F82648FFF77BFA294689
:1013B0002448FFF721FA2348FFF7C0F920602148AD
:1013C000FFF7EEFA0A20FFF709FBFFF7D1F81D48F7
:1013D000FFF768FA29461B48FFF70EFA1948FFF78E
:1013E000ADF960601748FFF7DBFA0A20FFF7F6FA5D
:1013F000FFF7D2F81348FFF755FA29461148FFF7CF
:10140000FBF91048FFF79AF9A0600E48FFF7C8FAF9
:101410000A20FFF7E3FAFFF7D3F80A48FFF742FA8A
:1014200029460848FFF7E8F90648FFF787F9E06022
:101430000448FFF7B5FA0A20FFF7D0FAB2E7000038
:1014400010000020200000204FF04070E1EE100A54
:1014500070470000000000000000010203040607BE
:10146000080900008414000800000020100000009B
:10147000C40100089414000810000020B806000001
:10148000E001000801000000100000000000000062
:041490000024F40040
:040000050800018965
:00000001FF
