:020000040800F2
:1000000080070020390200084D1B0008211A000853
:10001000491B00087D0E0008251C00080000000098
:10002000000000000000000000000000531B00085A
:10003000810E000800000000511B0008551B00083D
:10004000530200085302000853020008530200083C
:100050005302000853020008830E000853020008F0
:10006000530200088D0E0008970E00085302000886
:10007000530200085302000853020008530200080C
:1000800053020008530200085302000853020008FC
:1000900053020008530200085302000853020008EC
:1000A00053020008530200085302000853020008DC
:1000B00053020008530200085302000853020008CC
:1000C00053020008530200085302000853020008BC
:1000D00053020008530200085302000853020008AC
:1000E000530200085302000853020008530200089C
:1000F000530200085302000853020008530200088C
:10010000530200085302000853020008530200087B
:10011000530200085302000853020008530200086B
:10012000530200085302000853020008530200085B
:10013000530200085302000853020008530200084B
:10014000530200085302000853020008530200083B
:10015000530200085302000853020008530200082B
:10016000530200085302000853020008530200081B
:100170005302000853020008530200080000000068
:10018000530200085302000800F002F800F044F89F
:100190000AA090E8000C82448344AAF10107DA45E2
:1001A00001D100F039F8AFF2090EBAE80F0013F0F0
:1001B000010F18BFFB1A43F001031847341D00005C
:1001C000541D0000103A24BF78C878C1FAD85207ED
:1001D00024BF30C830C144BF04680C6070470000C1
:1001E0000023002400250026103A28BF78C1FBD840
:1001F000520728BF30C148BF0B6070471FB501F0E0
:1002000059FE9DE8030000F02BFC00F053F91FBDE0
:1002100010B500F0B8F910BD00F0E8F91146FFF78D
:10022000EDFF01F0D9FD00F0EBFB03B4FFF7F0FFA9
:1002300003BC00F087FD00000948804709480047DB
:10024000FEE7FEE7FEE7FEE7FEE7FEE7FEE7FEE786
:10025000FEE7FEE704480549054A064B70470000E3
:10026000111C00088901000880010020800700207F
:10027000800300208003002053EA020C00F0698014
:100280002DE9F04B4FF00006002B1FBFB3FA83F5AA
:1002900003FA05F424FA05F65E4012BF1643B2FADB
:1002A00082F502FA05F4C5F120051EBF22FA05FC0D
:1002B00044EA0C04203556EA044C4FEA144418BFB3
:1002C000641C4FF000084FF00009904271EB030CE2
:1002D00039D3002919BFB1FA81F701FA07F6B0FA4C
:1002E00080F700FA07F6C7F120071EBF20FA07FCC7
:1002F00046EA0C062037B6FBF4FCA7EB0507103FD7
:1003000007F01F0BCBF120060CFA0BFB2CFA06F6BC
:1003100044BFB3460026202FA4BF5E464FF0000B1B
:100320005BEA060C08BF4FF0010B19EB0B09ABFBA6
:10033000027C48EB0608C01B06FB02CC0BFB03CC7F
:1003400071EB0C01C1E70B46024641464846BDE849
:10035000F08B13B54FF000004FF00001AFF30080B9
:10036000BDE81C40704700000FB4044910B503AA53
:10037000029800F071F810BC5DF814FB74000020C6
:100380004FF0000200B5134694469646203922BF2E
:10039000A0E80C50A0E80C50B1F12001BFF4F7AF79
:1003A000090728BFA0E80C5048BF0CC05DF804EB5B
:1003B000890028BF40F8042B08BF704748BF20F8C9
:1003C000022B11F0804F18BF00F8012B704700007E
:1003D0004FF0013C50F8042B51F8043B9A4221D1D4
:1003E000A2EB0C03934313EACC1317D150F8042B60
:1003F00051F8043B9A4215D1A2EB0C03934313EA44
:10040000CC130BD150F8042B51F8043B9A4209D17C
:10041000A2EB0C03934313EACC13DBD04FF00000A4
:10042000704700BFD01A01BAB1FA81F101F018018A
:1004300022FA01F0CB40C1F12001DBB2C0B2C01AF8
:100440002CFA01F3D11A914311EAC311E6D1704796
:100450007047704770470000074B70B50D467B44EE
:1004600000F011F80446284600F020F810B14FF0D3
:10047000FF3070BD204670BD5B19000001694A1C49
:1004800002610878704700B58FB0CDE901310021D5
:10049000059105497944CDE903101146684600F0FD
:1004A000F1F80FB000BD0000E5FFFFFF007B00F09A
:1004B0008000704710B542485421FFF761FF414862
:1004C0005421FFF75DFF40485421FFF759FF3F4992
:1004D0003B483C4A3F4B08603D490A603A49196035
:1004E000531C0365481C1065012008653B48344ACD
:1004F00039A1784400F0E8F920B9384878440A383E
:1005000000F087FA37482F4A35A1784400F0DCF92B
:1005100020B9344878440A3800F07BFA32482A4A35
:100520002FA1784400F0D0F920B92F4878440A3838
:1005300000F06FFA40232248DC000021224600F040
:10054000A0F920B125487844543800F062FA1D48DB
:1005500022464023002100F094F920B1214878443C
:10056000543800F056FA184822461023002100F0B3
:1005700088F9002806D01C487844BDE81040563859
:1005800000F047BA10BD104870B5006D20F00104AE
:100590000B4800F00FFA0B4800F00CFA0A4800F084
:1005A00009FA09E0206D20F00105204600F002FA6A
:1005B000204600F040F82C46002CF3D170BD00001E
:1005C0002000002074000020C8000020140000203B
:1005D000180000201C00002072000000E01900003C
:1005E00077000000CF190000BF190000754600F029
:1005F00017FAAE4605006946534620F007008546C7
:1006000018B020B5FFF726FEBDE820404FF00006E9
:100610004FF000074FF000084FF0000B21F00701EA
:10062000AC46ACE8C009ACE8C009ACE8C009ACE82D
:10063000C0098D46704770B50446051F00F0F4F9F7
:100640000068002C14BF446870BD002C18BFAC4279
:100650003CBF20466468F8D301680A18AA4218BF54
:10066000456003D12A680546114401602868411994
:10067000A1421CBF6C6070BD61686960216808445C
:10068000286070BD2DE9F04106460024D6E90170CE
:10069000F5688046304603E04146B847641C304662
:1006A000A8470028F8D12046BDE8F0812DE9F047A1
:1006B00005460C46C86820F4201040F48000C8604D
:1006C000800602D5084600F0FCFAE06841F282019B
:1006D0004FF0FF390140022903D0204600F09AFA7A
:1006E000B5E000F42041B1F5004F0FD1C00306D5AD
:1006F0006168E06A884200D80846606006E02069C8
:10070000E0626060606901F0BEFAA061A06800224A
:10071000EEB200280DDAE1688B050AD4C043A06070
:1007200041F490302260E0606068411C61600670B6
:10073000A5E0E0689046226040F40050E060206947
:1007400068BB606901F0B1FA012704F12405A0B18A
:10075000A08910F4407F08D0E06900F0B0F9206172
:1007600018B1E06840F4006016E0E7612561E068D8
:1007700020F4407040F480600EE0E06900F09FF9E2
:1007800000282061F1D0E06840F4006010F4407F60
:10079000E06002D140F48070E06020696060E06851
:1007A00025696FF0010AC1051FD56168E06A8842BA
:1007B00000D80846411B04D02246284600F034FAEF
:1007C000F0BBE068010203D5E562C4E9015854E0DA
:1007D000691CE1626160E16940F48030491EC4E94E
:1007E000021030462E70BDE8F087010202D500F4F9
:1007F00080320AE06068411C61600670E0680A2E81
:1008000040F48030E06006D00022E16A60688142F6
:1008100003D90B4602E00122F7E70346A7895B1BD9
:100820007F0503D4E7699F4200DDE2B1814200D831
:100830000146E5620F1AC4E90158002B09DD00E00A
:1008400005E022461946284600F0EEF908B1484670
:10085000C9E747B1A069E5626560C01BA061E068B7
:1008600040F01000E060E068000208D56168A0690F
:10087000E562491B08446560A0615046B3E7304615
:10088000B1E770B5C468A50713D0650211D4B2F5FD
:10089000807F09D0B2F5007F06D0B2F5806F08D115
:1008A000012300F1240106E05D1E6FF07F46B54292
:1008B00001D3012070BD0161C361416024F4706106
:1008C0001143C160002070BD2DE9F0410C46074680
:1008D0001646104600F06EF82078611C61280AD098
:1008E000722802D077283CD102E00125002405E0DF
:1008F0000225042402E0082448F2020511F8010B45
:100900002B2806D0622809D011F8010C74280AD0CF
:100910000BE045F0030544F00204EFE745F0040561
:1009200044F00104EAE744F010043846214601F09F
:10093000CFF9411C15D00021316171604FF4007175
:10094000F560F1617061200704D530460222002174
:1009500000F0E4F8306D40F0010030653046BDE84D
:10096000F0810020FBE72DE9F0410D460646104CD2
:10097000206DC10704D0410804D020F00104F7E73E
:1009800022460EE0542000F09AF807000ED0206DA9
:1009900047F001010843542120653846FFF7F0FC79
:1009A0003A4629463046BDE8F0418DE70020D6E7BB
:1009B000200000202DE9F04704464FF000094FF0D9
:1009C000FF37C568D4E90486A80707D0204600F0A1
:1009D00055F9304601F044F9002802DA3846BDE8FE
:1009E000F087280502D54046FFF725FE4C2120461A
:1009F000FFF7C6FC206D20F0010020654846EEE7B9
:100A000010B50446AFF300802046BDE81040FFF764
:100A10000CBC10B500F07CF9BDE8104000F072B9D4
:100A2000004870471C010020004870472401002046
:100A3000704770477047704738B504460A46002033
:100A40006946AFF30080002808BF38BD0246009910
:100A5000204600F084F9012038BD012000F0D3B910
:100A6000F8B5AFF30080054600200C46102000BF0B
:100A70000646A819A0420DD9324669460020AFF3B8
:100A80000080070008BF00F0BEF90098A04218BF20
:100A90000546C419FFF7C8FF05600746F01D20F0A2
:100AA00007004619284600F053F9B44208BFF8BDC4
:100AB000A21B31463868BDE8F84000F050B970B567
:100AC0000646FFF7B1FF056806F10B0020F00704AA
:100AD000B4429CBF002070BD2B466A68BAB1106852
:100AE000A04210D304F1080188423CBF506858600E
:100AF00007D35168101941601168091B01605860E3
:100B00001460101D70BD13465268002AE7D12146BB
:100B10002846FFF791FF0028DED170BD2DE9F04196
:100B2000044616460D464769007B80072ED038469E
:100B300001F0BBF850BB3EB3012E02D0022E25D1EE
:100B400004E0204600F025F905441DE0384601F098
:100B50009AF8E168002841F01001E16005DA2046CA
:100B600000F058F80120BDE8F081C9030BD5626898
:100B7000E16A914200D81146A26911442269891A9A
:100B8000814200DD08460544002D01DA0220EAE733
:100B9000E16A6068E268814206D29103E06203D5AF
:100BA00022F4003141F01002A6690027AE4213DCA6
:100BB000E16A814201D90B4600E0034603EB060CD3
:100BC0002369ACEB030CAC4506DD814201D98C46B0
:100BD00000E084469C4505D1A760276042F02000D4
:100BE000A5620DE0AD1BE669AE1B8142A66000D98F
:100BF0000846C01A281A20605819606022F02000A8
:100C000003490840E060002084F84870ABE700002A
:100C1000BFCFD7FFC16821F4001141F08001C1604E
:100C200000218160016070472DE9F047814614463C
:100C30000E464FF0FF383248D5685769054209D053
:100C40003846A16901F078F8002811DB2C48C04330
:100C50000540E5602B4632464946384601F082F8A9
:100C6000A16920F00042B21A11440028A16103D00A
:100C70002046FFF7CFFF4046BDE8F08770B5044639
:100C80000569C06A6168884200D80846E16821F4B5
:100C90002011E160C90312D5A84208D02246411BA9
:100CA0002846FFF7C1FF10B14FF0FF3070BD0020A4
:100CB000E562C4E90150E06820F48030E060002083
:100CC00070BD10B50446C06820F02000E060A16A45
:100CD000A06988420DD02046FFF7D0FFE06820F4DD
:100CE000405040F01000E060A06AA0612069E0621E
:100CF000606044F24001E0688843E06010BD00009D
:100D000010000200002801D000F01CB8704700005D
:100D100010B5014602A000F05DF8012010BD0000F2
:100D200053494752545245443A20526564697265AA
:100D300063743A2063616E2774206F70656E3A2089
:100D40000000000001491820ABBEFEE726000200AB
:100D500000210160C0E90110704710207047034670
:100D600040688C46002818BF88423CBF0346406854
:100D7000F8D318681844884207D00CF1030020F01B
:100D80000700001D411A521A0146081D0A60FFF7AC
:100D900052BC10B50146C268900703D0900607D533
:100DA000886A0AE000F03EF801210160881E10BD4B
:100DB0008B69486818440B69C01A91F848301BB118
:100DC00091F84910401A10BD1103FCD50028FADD36
:100DD000401E10BD70B505460C460A2000E06D1C93
:100DE00000F018F835B128780028F8D102E0641C2A
:100DF00000F010F814B120780028F8D1BDE8704058
:100E00000A2000F007B810B500F010F8BDE8104057
:100E1000FFF778BF08B569468DF800000320ABBE28
:100E200008BD7047004870471C01002010B501281C
:100E300005D0002103A0FFF7CDFF012010BD09A1BF
:100E4000F8E7000053494752544D454D3A204F753D
:100E500074206F662068656170206D656D6F7279B2
:100E6000000000003A2048656170206D656D6F726A
:100E70007920636F727275707465640000BFFEE75D
:100E8000704710B5012000F055F810BD10B50820CE
:100E900000F050F810BD10B5102000F04BF810BD58
:100EA00072B600BFFEE7000070B5044600F05AF9C4
:100EB00006462546681C10B104480078054400BF6A
:100EC00000F050F9801BA842FAD370BD0C0000203E
:100ED00010B50446012C06D10CA0FFF745FA0120FD
:100EE0000D49086010E0102C06D10CA0FFF73CFA69
:100EF00002200949086007E0082C05D10AA0FFF785
:100F000033FA03200449086010BD00004B5F5550C0
:100F10005F50696E200A0000000000204B305F50D7
:100F2000696E200A000000004B315F50696E200A94
:100F30000000000010B5044604480068204020B1BD
:100F4000024804602046FFF7C3FF10BD143C014077
:100F5000F8B502460B460025002400200021D6E00B
:100F6000012606FA01F51E6806EA0504AC4274D1B2
:100F70001E7906F00306012E04D01E7906F0030642
:100F8000022E13D190684F000326BE40B0434F009D
:100F9000DE68BE4030439060506801268E40B0430A
:100FA0001E79C6F300168E40304350601E7906F05D
:100FB0000306032E09D0D0684F000326BE40B0437D
:100FC0004F009E68BE403043D0601E7906F0030695
:100FD000022E13D1CF0802F1200656F827004E0743
:100FE000F70E0F26BE40B0434F07FF0E1E69BE40EE
:100FF0003043CF0802F1200646F8270010684F0062
:101000000326BE40B0431E7906F003064F00BE40E3
:10101000304310605E6806F44036002E76D000BF84
:10102000002600963C4E366846F480463A4F3E60B5
:101030003E46366806F48046009600BF00BF374E35
:101040008F0856F827008E07370F0F26BE40B04393
:10105000334EB24202D1002624E057E0314EB24274
:1010600001D101261EE0304EB24201D1022619E024
:101070002E4EB24201D1032614E02D4EB24201D1D0
:1010800004260FE02B4EB24201D105260AE02A4E7B
:10109000B24201D1062605E0284EB24201D1072610
:1010A00000E008268F073F0FBE4030431B4E8F08DD
:1010B00046F82700224E3068A0435E6806F480168A
:1010C00006B120431E4E3060361D3068A0435E6876
:1010D00006F4001606B12043194E361D3060184E36
:1010E000361F3068A0435E6806F4003606B1204320
:1010F000134E361F3060361F3068A0435E6806F41A
:10110000803606B120430E4E083E3060491C10293F
:10111000FFF426AFF8BD0000443802400838014013
:10112000000002400004024000080240000C02409F
:10113000001002400014024000180240001C02404F
:10114000083C014010B5426921EA020302EA0104A9
:1011500043EA0443836110BD0AB1816101E00B04DD
:101160008361704701480068704700000400002058
:10117000034800680349097808440149086070473A
:10118000040000200C00002010B50D48006840F459
:1011900000700B4908600846006840F480600860F1
:1011A0000846006840F480700860032000F0A2F850
:1011B0000F2000F007F800F02BF8002010BD000011
:1011C000003C024070B504460E4800784FF47A7136
:1011D000B1FBF0F00C490968B1FBF0F5284600F0CE
:1011E00005FC08B1012070BD102C07D20022214659
:1011F000501E00F041F80548046001E00120F2E7CC
:101200000020F0E70C000020100000200800002063
:1012100008B500BF002000900E48006840F48040F0
:101220000C4908600846006800F48040009000BF48
:1012300000BF00BF00200090081F006840F08050F1
:10124000091F08600846006800F08050009000BF49
:1012500000BF08BD4438024001460846002809DBAB
:1012600000F01F0301229A4043099B0003F1E02391
:10127000C3F8002100BF70472DE9F05F80460D469E
:101280001646002700F0D0FC074639462A4633466A
:1012900001F00700C0F1070ABAF1040F02D94FF0BC
:1012A000040A01E0C0F1070AD14600F1040ABAF1CC
:1012B000070F02D24FF0000A01E0A0F1030AD44662
:1012C0004FF0010A0AFA09FAAAF1010A0AEA020A27
:1012D0000AFA0CFA4FF0010B0BFA0CFBABF1010B05
:1012E0000BEA030B4AEA0B042146404600F0A4FC3B
:1012F000BDE8F09F00BF00F00702064B19684FF6EB
:10130000FF031940044B0B4343EA0221014B1960D0
:1013100000BF70470CED00E00000FA0570B5044610
:101320000D460CB9012070BD5848006800F0070058
:10133000A84209D255490D700846006800F0070020
:10134000A84201D00120EEE7207800F00200022838
:101350001DD1207800F00400042805D14C48006815
:1013600040F4E0504A490860207800F0080008285E
:1013700005D14748006840F460404549086044484A
:10138000006820F0F000A168084341490860207817
:1013900000F00100A8B36068012807D13C48083874
:1013A0000068C0F34040B8B90120BCE7606802287B
:1013B00002D06068032807D1354808380068C0F3B8
:1013C000406048B90120AEE7314808380068C0F3F2
:1013D000400008B90120A6E72D48006820F003006E
:1013E000616808432A490860FFF7BCFE064609E029
:1013F000FFF7B8FE801B41F28831884202D90320F2
:1014000091E707E02248006800F00C006168B0EB4B
:10141000810FEDD11D48006800F00700A84209D9EE
:101420001A490D700846006800F00700A84201D074
:10143000012078E7207800F00400042807D1144840
:10144000006820F4E050E168084311490860207802
:1014500000F00800082808D10D48006820F460401A
:10146000216940EAC1000A49086000F019F80849FA
:101470000968C1F30311074A515CC8400649086076
:1014800006480068FFF79EFE00204CE7003C024043
:1014900008380240BE1E000810000020080000208E
:1014A0002DE9F047002400250026A14625480068C4
:1014B00000F00C0020B1042805D008283AD105E03E
:1014C000DFF8849039E0DFF8849036E01D48001F93
:1014D000006800F03F041B48001F006800F4800013
:1014E00078B11A481749091F0968C1F38811A0FB90
:1014F00001700146224600233846FEF7BDFE054630
:101500000EE011480F49091F0968C1F38811A0FBBB
:1015100001700146224600233846FEF7ADFE05461F
:101520000848001F0068C0F30140401C4600B5FB9E
:10153000F6F902E0DFF8109000BF00BF4846BDE8B2
:10154000F0870000083802400024F40000127A00FE
:10155000F8B504460CB90120F8BD207800F0010070
:10156000002874D0F948006800F00C0004280DD061
:10157000F648006800F00C00082813D1F348001F5B
:10158000006800F48000B0F5800F0BD1EF480838F8
:101590000068C0F34040002859D06068002856D148
:1015A0000120D9E700BF6068B0F5803F08D1E74867
:1015B0000838006840F48030E449083908601EE0CB
:1015C0006068B0F5A02F0DD1E0480838006840F4FD
:1015D0008020DE49083908600846006840F4803001
:1015E00008600CE0D9480838006820F48030D749FA
:1015F000083908600846006820F48020086000BFB1
:10160000606890B1FFF7AEFD054606E0FFF7AAFD62
:10161000401B642801D903209EE7CC4808380068A5
:10162000C0F340400028F1D011E0FFF79BFD0546D4
:1016300006E0FFF797FD401B642801D903208BE7E4
:10164000C24808380068C0F340400028F1D1207833
:1016500000F0020002285FD1BC48006800F00C00D6
:1016600058B1BA48006800F00C0008281CD1B748EF
:10167000001F006800F48000B0B9B4480838006862
:10168000C0F3400020B1E068012801D0012063E7E9
:10169000AE480838006820F0F800216940EAC1002F
:1016A000AA490839086037E0E06800B30120A8497A
:1016B0000860FFF757FD054606E0FFF753FD401BA6
:1016C000022801D9032047E7A04808380068C0F382
:1016D00040000028F1D09D480838006820F0F8004C
:1016E000216940EAC10099490839086014E00020E6
:1016F00097490860FFF736FD054606E0FFF732FD23
:10170000401B022801D9032026E7904808380068CA
:10171000C0F340000028F1D1207800F0080008282C
:101720002CD16069A8B101208A490860FFF71AFD31
:10173000054606E0FFF716FD401B022801D90320ED
:101740000AE782486C300068C0F340000028F1D0FE
:1017500014E000207F490860FFF704FD054606E01D
:10176000FFF700FD401B022801D90320F4E677486B
:101770006C300068C0F340000028F1D1207800F000
:101780000400042870D1002770483830006800F049
:10179000805090B900BF002000906C48383000683D
:1017A00040F080506949383108600846006800F010
:1017B0008050009000BF00BF01276748006800F418
:1017C0008070B0B96448006840F480706249086075
:1017D000FFF7C8FC054606E0FFF7C4FC401B0228E3
:1017E00001D90320B8E65C48006800F48070002846
:1017F000F2D000BFA068012808D1544868300068C2
:1018000040F001005149683108601DE0A0680528DA
:101810000DD14E486830006840F004004B496831F3
:1018200008600846006840F0010008600CE0474886
:101830006830006820F001004449683108600846BB
:10184000006820F00400086000BFA068A8B1FFF79E
:1018500089FC054609E0FFF785FC401B41F2883111
:10186000884202D9032077E626E0384868300068CD
:10187000C0F340000028EED013E0FFF773FC0546EC
:1018800008E0FFF76FFC401B41F28831884201D924
:10189000032061E62D4868300068C0F3400000284E
:1018A000EFD1012F07D129483830006820F080504F
:1018B00026493831086000BFA069002845D0234878
:1018C000006800F00C0008285DD0A069022845D10E
:1018D00000201F490866FFF745FC054606E0FFF7B4
:1018E00041FC401B022801D9032035E6174808387F
:1018F0000068C0F340600028F1D1D4E90701084333
:10190000616A40EA81110122A06AC2EB500041EAFB
:1019100000412C20005D41EA00600C49091F08606D
:1019200001200B490866FFF71DFC054606E0FFF79E
:1019300019FC401B022801D903200DE60348083892
:101940000068C0F340600028F1D049E00838024048
:1019500000004742800E47420070004000202149AD
:101960000866FFF7FFFB054606E0FFF7FBFB401BA1
:10197000022801D90320EFE51B480068C0F340604E
:101980000028F2D12CE0A069012800D1E4E5164836
:10199000001D0668A069012820D006F48001E069D6
:1019A00081421BD106F03F01206A814216D147F6E1
:1019B000C0703040616AB0EB811F0FD106F4403136
:1019C0000122A06AC2EB5000B1EB004F06D106F035
:1019D00070612C20005DB1EB006F01D00120BBE5F0
:1019E0000020B9E5000047420038024070B50446C7
:1019F0002546681EB0F1807F01D301200FE0681EEC
:101A00004FF0E02148610F214FF0FF3000F014F952
:101A100000204FF0E021886107200861002070BDA0
:101A200000BFFEE70A49096801F0010171B10849E8
:101A30008039096801F0010141B100BF4FF06041F8
:101A400009680029FAD04FF060421070704700001A
:101A5000800E00E000B587B0142102A8FEF790FCCC
:101A600000BF002001903548006840F01000334965
:101A700008600846006800F01000019000BF00BF39
:101A800000BF002001900846006840F08000086018
:101A90000846006800F08000019000BF00BF00BF52
:101AA000002001900846006840F0010008600846E8
:101AB000006800F00100019000BF00BF0122C021BA
:101AC0001F48FFF749FB182002904FF404100390C1
:101AD0000120049002A91B48FFF73AFA0120029066
:101AE0004FF4881003900220049002A91448FFF7D5
:101AF0002FFAC0200290012003900020049005904E
:101B000002A90F48FFF724FA002201210620FFF75F
:101B1000B3FB0620FFF7A0FB002211460920FFF7C8
:101B2000ABFB0920FFF798FB002211460A20FFF7C4
:101B3000A3FB0A20FFF790FB07B000BD303802403E
:101B4000000002400010024000BFFEE700BFFEE7B9
:101B50007047704710B5FFF70BFB10BD00B593B091
:101B6000302107A8FEF70CFC142102A8FEF708FCA0
:101B700000BF002001902448006840F080502249B6
:101B800008600846006800F08050019000BF00BF68
:101B900000BF002001901D48006840F480401B49B0
:101BA00008600846006800F48040019000BF00BF54
:101BB000012007900004089002200D9041050E912D
:101BC00004210F91A8211091022111910421129159
:101BD00007A8FFF7BDFC08B1FFF762F90F200290DC
:101BE00002200390002004904FF4A05005904FF481
:101BF00080500690052102A8FFF790FB08B1FFF77F
:101C00004FF913B000BD00004038024000700040A2
:101C10000348006840F47000014908607047000004
:101C200088ED00E000BFFEE702480068C0F3022034
:101C3000704700000CED00E010B5002804DB0A0737
:101C4000130E054A135406E00A07140E034A00F067
:101C50000F031B1FD45410BD00E400E018ED00E09A
:101C600001466FF40040084420B1012804D0022846
:101C700006D103E0002070470020FCE70020FAE7CF
:101C80004FF0FF30F7E701466FF40040084420B101
:101C9000012804D0022806D103E00020704700206C
:101CA000FCE70020FAE70020F8E701466FF4004067
:101CB000084420B1012804D0022806D103E0012005
:101CC00070470120FCE70120FAE70020F8E7000058
:101CD00070B504460D4614B94FF0FF3070BD207842
:101CE0003A281AD10EA12046FEF772FB10B948F22D
:101CF0000100F3E70CA12046FEF76AFB10B948F299
:101D00000200EBE70AA12046FEF762FB10B948F299
:101D10000300E3E74FF0FF30E0E74FF0FF30DDE78F
:101D20003A535444494E00003A5354444F555400DA
:101D30003A5354444552520002466FF40040104456
:101D400020B1012805D0022809D105E04FF0FF306D
:101D500070474FF0FF30FBE74FF0FF30F8E74FF0F0
:101D6000FF30F5E72DE9F04107460C461546984649
:101D70006FF40040384420B1012806D002281AD15F
:101D80000EE04FF0FF30BDE8F08105E014F8016B84
:101D9000304600F089F86D1E002DF7D10020F2E7E3
:101DA00005E014F8016B304600F078F86D1E002D48
:101DB000F7D10020E7E74FF0FF30E4E78A68002A18
:101DC00001DCFEF773BC521E8A604A68C0B2531C25
:101DD0004B60107070470000FFF7D6F9FFF7BEFEAA
:101DE000FFF738FE41E02148006801280BD10024AC
:101DF00007E080211E48FFF7A5F9C820FFF754F837
:101E0000641C322CF5DB1948006802280AD119A09D
:101E1000FEF7AAFA80211648FFF794F94FF42F70C5
:101E2000FFF742F811480068032809D115A0FEF712
:101E30009BFA80210E48FFF785F96420FFF734F8FC
:101E400080210B48FFF77EF900240BE011A0FEF77C
:101E50008BFA002503E010A0FEF786FA6D1C642DB6
:101E6000F9DB641CB4F57A7FF0DBBCE700000020EE
:101E700000000240737461747573203D2032200AA3
:101E800000000000737461747573203D2033200AD4
:101E900000000000310000003200000000B50346E1
:101EA0001846FFF7BFFD00BD00B503461846FFF713
:101EB000B9FD00BD4FF04070E1EE100A7047000020
:101EC00000000000000001020304060708090000EA
:101ED0000000010203043A535444494E003A53545B
:101EE000444F5554003A53544445525200000000A8
:101EF000101F00080000002020000000C40100089E
:101F0000301F00082000002060070000E0010008EA
:101F100000000000000000001000000001000000B0
:101F20000024F40000000000000000000000000099
:040000050800018965
:00000001FF
